{"abi":[{"type":"function","name":"handleSkeet","inputs":[{"name":"signer","type":"address","internalType":"address"},{"name":"r","type":"bytes32","internalType":"bytes32"},{"name":"s","type":"bytes32","internalType":"bytes32"},{"name":"commit","type":"bytes","internalType":"bytes"},{"name":"treeNodes","type":"bytes[]","internalType":"bytes[]"},{"name":"target","type":"bytes","internalType":"bytes"},{"name":"collection","type":"string","internalType":"string"},{"name":"rkey","type":"string","internalType":"string"}],"outputs":[],"stateMutability":"nonpayable"},{"type":"function","name":"signerSafes","inputs":[{"name":"","type":"address","internalType":"address"}],"outputs":[{"name":"","type":"address","internalType":"contract SignerSafe"}],"stateMutability":"view"},{"type":"event","name":"LogCreateSignerSafe","inputs":[{"name":"signer","type":"address","indexed":true,"internalType":"address"},{"name":"signerSafe","type":"address","indexed":true,"internalType":"address"}],"anonymous":false},{"type":"event","name":"LogExecutePayload","inputs":[{"name":"signer","type":"address","indexed":true,"internalType":"address"},{"name":"to","type":"address","indexed":true,"internalType":"address"},{"name":"value","type":"uint256","indexed":false,"internalType":"uint256"},{"name":"data","type":"bytes","indexed":false,"internalType":"bytes"},{"name":"payload","type":"string","indexed":false,"internalType":"string"}],"anonymous":false}],"bytecode":{"object":"0x60808060405234601557611d3a908161001b8239f35b600080fdfe6080604052600436101561001257600080fd5b60003560e01c806378b0efad146100375763c361a0a51461003257600080fd5b610297565b346101015761010036600319011261010157610051610106565b602435906044356064356001600160401b038111610101576100779036906004016101bd565b6084356001600160401b03811161010157610096903690600401610219565b60a4356001600160401b038111610101576100b59036906004016101bd565b9160c4356001600160401b038111610101576100d59036906004016101bd565b9360e435966001600160401b038811610101576100f96100ff9836906004016101bd565b966103c4565b005b600080fd5b600435906001600160a01b038216820361010157565b634e487b7160e01b600052604160045260246000fd5b604081019081106001600160401b0382111761014d57604052565b61011c565b90601f801991011681019081106001600160401b0382111761014d57604052565b60405190610182604083610152565b565b60405190610182606083610152565b60405190610182608083610152565b6001600160401b03811161014d57601f01601f191660200190565b81601f82011215610101576020813591016101d7826101a2565b926101e56040519485610152565b828452828201116101015781600092602092838601378301015290565b6001600160401b03811161014d5760051b60200190565b9080601f8301121561010157813561023081610202565b9261023e6040519485610152565b81845260208085019260051b820101918383116101015760208201905b83821061026a57505050505090565b81356001600160401b0381116101015760209161028c878480948801016101bd565b81520191019061025b565b34610101576020366003190112610101576001600160a01b036102b8610106565b166000526000602052602060018060a01b0360406000205416604051908152f35b60005b8381106102ec5750506000910152565b81810151838201526020016102dc565b9061030f602092828151948592016102d9565b0190565b6040513d6000823e3d90fd5b1561010157565b1561032d57565b60405162461bcd60e51b815260206004820152601a60248201527f5369676e65722073686f756c64206e6f7420626520656d7074790000000000006044820152606490fd5b6001610182919392936020604051958261039588945180928580880191016102d9565b8301602f60f81b838201526103b382518093856021850191016102d9565b01010301601f198101845283610152565b919593929560206000604051806103db818c6102fc565b039060025afa15610498576020916000916104168351916040519384938460609194939260808201958252601c602083015260408201520152565b838052039060015afa15610498576104959561045d61048f9261045661044360005160018060a01b031690565b6001600160a01b0390921691821461031f565b1515610326565b610489610469846104b6565b9661047588515161058b565b6040610480826106f3565b5001519061089a565b93610372565b93610a7e565b50565b610313565b604051906104aa82610132565b60606020838281520152565b906104bf61049d565b506104c861049d565b506104d582511515610d0f565b6104df8251610d5b565b916104ea815161090f565b9060005b815181101561056b57602060006105156105088486610969565b51604051918280926102fc565b039060025afa15610498576001906000516105308286610969565b526105656105476105418386610969565b5161130c565b90610552848a610969565b5261055d8386610969565b515114610dab565b016104ee565b505091610588919261057b610173565b9182526020820152610df7565b90565b60008091604051602081019163f82c50f160e01b83526024820152602481526105b5604482610152565b51906a636f6e736f6c652e6c6f675afa50565b6040519060a082018281106001600160401b0382111761014d576040526000608083606081528260208201528260408201526060808201520152565b1561060b57565b60405162461bcd60e51b815260206004820152601b60248201527f65787065637465642035206669656c647320696e20636f6d6d697400000000006044820152606490fd5b1561065757565b60405162461bcd60e51b815260206004820152602260248201527f636f6d6d69742064696420737472696e67206d75737420626520333220627974604482015261657360f01b6064820152608490fd5b156106ae57565b60405162461bcd60e51b815260206004820152601f60248201527f636f6d6d69742076657273696f6e206e756d626572206d7573742062652033006044820152606490fd5b906001600160401b039160009061071261070b6105c8565b9282610ea7565b94169061072160058314610604565b6000915b808310610733575050509190565b9091946107409083610efb565b9081906001600160c81b03198116663b32b939b4b7b760c91b036107975750506107889561078f600360ff61077760019588611185565b60ff9190911660208a01819052909a565b16146106a7565b019190610725565b6001600160d81b03198116636461746160e01b81036107cb575050506107bf600191846115ee565b9690604086015261078f565b63383932bb60e11b036107f25750506107e6600191846110cc565b9690608086015261078f565b6001600160e01b03191662191a5960ea1b810361082e57505060209561082961081d6001938661100a565b98908088525114610650565b61078f565b909150623932bb60e91b03610855576108496001918461100a565b9690606086015261078f565b60405162461bcd60e51b815260206004820152601760248201527f756e657870656374656420636f6d6d6974206669656c640000000000000000006044820152606490fd5b9080156108a957016020015190565b606460405162461bcd60e51b815260206004820152602060248201527f43616e27742072656164206120434944206861736820617420696e64657820306044820152fd5b604080519091906108fe8382610152565b6001815291601f1901366020840137565b9061091982610202565b6109266040519182610152565b8281528092610937601f1991610202565b0190602036910137565b634e487b7160e01b600052603260045260246000fd5b8051156109645760200190565b610941565b80518210156109645760209160051b010190565b6040519061098a82610132565b6060602083600081520152565b634e487b7160e01b600052601160045260246000fd5b6000198101919082116109bc57565b610997565b90600182018092116109bc57565b90600882018092116109bc57565b90600482018092116109bc57565b90600282018092116109bc57565b90601f82018092116109bc57565b919082018092116109bc57565b60409160208252610a3481518092816020860152602086860191016102d9565b601f01601f1916010190565b15610a4757565b60405162461bcd60e51b815260206004820152600f60248201526e6475706c696361746520656e74727960881b6044820152606490fd5b919394926000610a96602092604051918280926102fc565b039060025afa156104985760009492945191610ab06108ed565b94610aba86610957565b52610ac361097d565b50600093845b865115610d0557610ae5610adc88610957565b519182856111f5565b9190829015610caa575090610afa9184611235565b929083986020610b16610b0d8789610969565b5184519061089a565b920199610b248b515161090f565b9360005b8c5151811015610bfa57610b578d6040610b4e84610b468d8f610969565b519351610969565b5101519061089a565b610b618288610969565b52898d898b8a604051610b8a81610b7c602082019485610a14565b03601f198101835282610152565b519020610b98868551610969565b5151604051610baf81610b7c602082019485610a14565b51902014610bc4575b50505050600101610b28565b610b4e85610b46610bd89594602094610969565b14610be7575b898d898b610bb8565b99610bf29015610a40565b600199610bde565b5096919495509691995097969197610c1d610c1889518b5190610a07565b61090f565b99610c278b610957565b5260015b8a898051831015610c565790610c4f83610c488160019695610969565b5192610969565b5201610c2b565b505050909192939460005b8951811015610c96578089610c8f8d610c89848f600197610c8191610969565b519451610a07565b90610969565b5201610c61565b5093975093979094919550955b9690610ac9565b96939894915050610cc1610c1888969396516109ad565b9760005b8951811015610cf55780610ce3610cdd6001936109c1565b8b610969565b51610cee828d610969565b5201610cc5565b5092959194979093965095610ca3565b5050505050905090565b15610d1657565b60405162461bcd60e51b815260206004820152601760248201527f54726565206d75737420636f6e7461696e206e6f6465730000000000000000006044820152606490fd5b90610d6582610202565b610d726040519182610152565b8281528092610d83601f1991610202565b019060005b828110610d9457505050565b602090610d9f61097d565b82828501015201610d88565b15610db257565b60405162461bcd60e51b815260206004820152601a60248201527f657870656374656420746f207265616420616c6c2062797465730000000000006044820152606490fd5b90610e0061049d565b5060005b602083019081518051821015610ea25781610e1e91610969565b5192600182018083116109bc575b855151811015610e9557610e41818551610969565b518514610e5057600101610e2c565b60405162461bcd60e51b815260206004820152601860248201527f6e6f64652063696473206d75737420626520756e6971756500000000000000006044820152606490fd5b5092506001915001610e04565b505050565b610eb66005939260ff9261147c565b94919290921603610ec5579190565b60405162461bcd60e51b815260206004820152600e60248201526d065787065637465642061206d61760941b6044820152606490fd5b6003610f0a60ff94938361147c565b9291959095161480610f92575b15610f41576001600160401b03610588926020836000198860031b1c199201015116941690610a07565b60405162461bcd60e51b815260206004820152602360248201527f657870656374656420737472696e67206c656e677468206f662037206f72206c60448201526265737360e81b6064820152608490fd5b5060076001600160401b0385161115610f17565b60405190610fb5602083610152565b6000808352366020840137565b90610fcc826101a2565b610fd96040519182610152565b8281528092610937601f19916101a2565b908151811015610964570160200190565b60001981146109bc5760010190565b60ff6110186003938361147c565b94919290921603611097576001600160401b03169061103682610fc2565b93839260005b6110468287610a07565b8510156110895761108160019161106e6110608888610fea565b516001600160f81b03191690565b60001a61107b828b610fea565b53610ffb565b94019361103c565b509150926105889250610a07565b60405162461bcd60e51b815260206004820152600d60248201526c195e1c1958dd1959081d195e1d609a1b6044820152606490fd5b91909160f66110db8483610fea565b5160f81c1461117357602090830101516001600160b81b03191668013ead3ed7fff4776f60bd1b016111225760098201918281116109bc57602901918281116109bc579190565b60405162461bcd60e51b815260206004820152602360248201527f6578706563746564204349447631206461672d63626f7220736861323536206860448201526219585960ea1b6064820152608490fd5b50600182018092116109bc5760009190565b60ff92916111929161147c565b939091166111a15760ff169190565b60405162461bcd60e51b815260206004820152602660248201527f696e76616c6964206d616a6f7220286578706563746564204d616a6f72556e7360448201526569676e65642960d01b6064820152608490fd5b92915b6020840151805182101561122857611211828492610969565b511461121f576001016111f8565b92505060019190565b5050509050600090600090565b90929161124061097d565b505b6020820151805182101561127b5761125b828692610969565b511461126957600101611242565b8093506112769151610969565b519190565b60405162461bcd60e51b815260206004820152601b60248201527f636f756c646e277420676574206369642c206e6f7420666f756e6400000000006044820152606490fd5b156112c757565b60405162461bcd60e51b815260206004820152601960248201527f65787065637465642032206669656c647320696e206e6f6465000000000000006044820152606490fd5b906001600160401b039160009061132461070b61097d565b941690611333600283146112c0565b6000915b808310611345575050509190565b90919461135290836119ce565b9081906001600160f81b031916601b60fa1b8103611385575050611378600191846110cc565b969085525b019190611337565b909150606560f81b036113b3576113a9956113a260019285611664565b97906117ca565b602086015261137d565b60405162461bcd60e51b81526020600482015260156024820152741d5b995e1c1958dd1959081b9bd91948199a595b19605a1b6044820152606490fd5b156113f757565b60405162461bcd60e51b815260206004820152605160248201527f616e20657874656e64656420686561646572206d757374206e6f7420636f6e7460448201527f61696e20612076616c7565207468617420776f756c642066697420696e736964606482015270329030903737b936b0b6103432b0b232b960791b608482015260a490fd5b909161149d6114976114916110608686610fea565b60f81c90565b936109c1565b91601f600585901c60071694169060188210156114b957509190565b90928360188296951460001461151257506114da611497916114e0936119a3565b60ff1690565b915b60186001600160401b03851610801590611505575b611500906113f0565b929190565b5060ff81166007146114f7565b6019810361153e575061152b6115329161153893611985565b61ffff1690565b936109eb565b916114e2565b601a810361156657506115576115609161153893611967565b63ffffffff1690565b936109dd565b601b141590506115835761157d8461153892611943565b936109cf565b60405162461bcd60e51b815260206004820152603760248201527f756e737570706f7274656420686561646572206d696e6f72203e32372e20286e60448201527f6f20696e646566696e6974652073657175656e636573290000000000000000006064820152608490fd5b602090820101519091906001600160b81b03191668013ead3ed7fff4776f60bd1b016111225760098201918281116109bc57602901918281116109bc579190565b60405190608082018281106001600160401b0382111761014d5760405260006060838281528160208201528260408201520152565b600461167360ff94938361147c565b9291959095160361170957926001600160401b031661169181610202565b9161169f6040519384610152565b818352601f196116ae83610202565b0160005b8181106116f2575050906000915b8183106116ce575050509190565b9091946116dd60019183611af0565b96906116e98287610969565b520191906116c0565b6020906116fd61162f565b828288010152016116b2565b60405162461bcd60e51b8152602060048201526011602482015270657870656374656420616e20617272617960781b6044820152606490fd5b9061174c82610202565b6117596040519182610152565b828152809261176a601f1991610202565b0160005b81811061177a57505050565b6040519060608201918083106001600160401b0384111761014d5760209260405260608152600083820152600060408201528282860101520161176e565b60ff601f9116019060ff82116109bc57565b6117d48151611742565b6117dc610fa6565b906000915b83518310156118f9576117ff6117f78486610969565b515160ff1690565b90602061180c8587610969565b51015191611826611821845160ff8416610a07565b610fc2565b9261183f6114da611836846117b8565b60051c60071690565b61185261184c83516109f9565b60051c90565b9360005b8281106118df5750505060005b8381106118c35750505050600190604061187d8587610969565b510151606061188c8688610969565b510151611897610184565b91838352602083015260408201526118af8585610969565b526118ba8484610969565b509201916117e1565b8060019160051b60208082860101519186018801015201611863565b8060019160051b6020808286010151918a01015201611856565b5091505090565b1561190757565b60405162461bcd60e51b8152602060048201526014602482015273736c6963696e67206f7574206f662072616e676560601b6044820152606490fd5b9081519160088201928383116109bc57602093611961911015611900565b01015190565b9081519160048201928383116109bc57602093611961911015611900565b9081519160028201928383116109bc57602093611961911015611900565b9081519160018201928383116109bc576119c7936119c2911015611900565b610fea565b5160f81c90565b60ff6119dd600394938361147c565b95919290921603611a54576001600160401b031660018103611a0f57611a096110608561058894610fea565b93610a07565b60405162461bcd60e51b815260206004820152601b60248201527f657870656374656420737472696e67206c656e677468206f66203100000000006044820152606490fd5b60405162461bcd60e51b815260206004820152602260248201527f696e76616c6964206d616a6f7220286578706563746564204d616a6f72546578604482015261742960f01b6064820152608490fd5b15611aab57565b60405162461bcd60e51b815260206004820152601f60248201527f65787065637465642034206669656c647320696e206e6f646520656e747279006044820152606490fd5b611b0c6001600160401b039392611b0561162f565b5082610ea7565b931690611b1b60048314611aa4565b60009160606000916000936000915b808310611b5b57505050611b48611b3f610193565b60ff9095168552565b6020840152604083015260608201529190565b90919597611b6990836119ce565b989089906001600160f81b031916600760fc1b8103611b9d57505050611b9160019883611185565b9890965b019190611b2a565b91979491606b60f81b8103611bc357505050611bbb60019883611c55565b989093611b95565b94969194909190601d60fa1b8103611bec57505050611be4600198836110cc565b989095611b95565b919950959450603b60f91b03611c1057611c08600198836110cc565b989094611b95565b60405162461bcd60e51b815260206004820152601b60248201527f756e6578706563746564206e6f646520656e747279206669656c6400000000006044820152606490fd5b60ff611c636002938361147c565b94919290921603611cb3576001600160401b031690611c8182610fc2565b93839260005b611c918287610a07565b85101561108957611cab60019161106e6110608888610fea565b940193611c87565b60405162461bcd60e51b815260206004820152602360248201527f696e76616c6964206d616a6f7220286578706563746564204d616a6f7242797460448201526265732960e81b6064820152608490fdfea2646970667358221220fe63682eccef9c72a9ca5a21b2bddca698489e17e6c62eedf37ef13124b3a64164736f6c634300081c0033","linkReferences":{}},"methodIdentifiers":{"handleSkeet(address,bytes32,bytes32,bytes,bytes[],bytes,string,string)":"78b0efad","signerSafes(address)":"c361a0a5"},"id":30}