{"abi":[{"type":"function","name":"assertCommitNodeContainsData","inputs":[{"name":"proveMe","type":"bytes32","internalType":"bytes32"},{"name":"commitNode","type":"bytes","internalType":"bytes"}],"outputs":[],"stateMutability":"nonpayable"},{"type":"function","name":"dataNodeRecordKeyForCID","inputs":[{"name":"cid","type":"bytes32","internalType":"bytes32"},{"name":"dataNode","type":"bytes","internalType":"bytes"},{"name":"dataNodeEntryIdx","type":"uint256","internalType":"uint256"}],"outputs":[{"name":"","type":"string","internalType":"string"}],"stateMutability":"nonpayable"},{"type":"function","name":"handleSkeet","inputs":[{"name":"_v","type":"uint8","internalType":"uint8"},{"name":"_r","type":"bytes32","internalType":"bytes32"},{"name":"_s","type":"bytes32","internalType":"bytes32"},{"name":"rootCbor","type":"bytes","internalType":"bytes"},{"name":"dataCbor","type":"bytes","internalType":"bytes"},{"name":"dataNodeEntryIdx","type":"uint256","internalType":"uint256"},{"name":"treeCbors","type":"bytes[]","internalType":"bytes[]"}],"outputs":[],"stateMutability":"nonpayable"},{"type":"function","name":"merkleProvenRootHash","inputs":[{"name":"proveMe","type":"bytes32","internalType":"bytes32"},{"name":"treeNodes","type":"bytes[]","internalType":"bytes[]"},{"name":"hints","type":"uint256[]","internalType":"uint256[]"}],"outputs":[{"name":"","type":"bytes32","internalType":"bytes32"}],"stateMutability":"nonpayable"},{"type":"function","name":"predictSafeAddress","inputs":[{"name":"sigHash","type":"bytes32","internalType":"bytes32"},{"name":"_v","type":"uint8","internalType":"uint8"},{"name":"_r","type":"bytes32","internalType":"bytes32"},{"name":"_s","type":"bytes32","internalType":"bytes32"}],"outputs":[{"name":"","type":"address","internalType":"address"}],"stateMutability":"view"},{"type":"function","name":"predictSignerAddress","inputs":[{"name":"sigHash","type":"bytes32","internalType":"bytes32"},{"name":"_v","type":"uint8","internalType":"uint8"},{"name":"_r","type":"bytes32","internalType":"bytes32"},{"name":"_s","type":"bytes32","internalType":"bytes32"}],"outputs":[{"name":"","type":"address","internalType":"address"}],"stateMutability":"pure"},{"type":"function","name":"signerSafes","inputs":[{"name":"","type":"address","internalType":"address"}],"outputs":[{"name":"","type":"address","internalType":"contract SignerSafe"}],"stateMutability":"view"},{"type":"event","name":"LogCreateSignerSafe","inputs":[{"name":"signer","type":"address","indexed":true,"internalType":"address"},{"name":"signerSafe","type":"address","indexed":true,"internalType":"address"}],"anonymous":false},{"type":"event","name":"LogExecutePayload","inputs":[{"name":"signer","type":"address","indexed":true,"internalType":"address"},{"name":"to","type":"address","indexed":true,"internalType":"address"},{"name":"value","type":"uint256","indexed":false,"internalType":"uint256"},{"name":"data","type":"bytes","indexed":false,"internalType":"bytes"},{"name":"payload","type":"string","indexed":false,"internalType":"string"}],"anonymous":false}],"bytecode":{"object":"0x6080604052348015600f57600080fd5b506124da8061001f6000396000f3fe608060405234801561001057600080fd5b506004361061007d5760003560e01c8063cdbec9f21161005b578063cdbec9f2146100fd578063e3e962ac14610110578063f9f485b314610131578063fe1275861461014457600080fd5b80633995ac9614610082578063c361a0a514610097578063c732454b146100dd575b600080fd5b610095610090366004611d35565b610157565b005b6100c06100a5366004611e08565b6000602081905290815260409020546001600160a01b031681565b6040516001600160a01b0390911681526020015b60405180910390f35b6100f06100eb366004611e38565b6103a2565b6040516100d49190611eae565b6100c061010b366004611ee1565b61084a565b61012361011e366004611f1c565b6108b2565b6040519081526020016100d4565b61009561013f366004611f99565b611421565b6100c0610152366004611ee1565b6117fa565b60006002888860405160200161016e929190611fe4565b60408051601f198184030181529082905261018891611ff4565b602060405180830381855afa1580156101a5573d6000803e3d6000fd5b5050506040513d601f19601f820116820180604052508101906101c89190612010565b6040805160008082526020820180845284905260ff8f1692820192909252606081018d9052608081018c90529192509060019060a0016020604051602081039080840390855afa158015610220573d6000803e3d6000fd5b5050604051601f1901519150506001600160a01b0381166102885760405162461bcd60e51b815260206004820152601a60248201527f5369676e65722073686f756c64206e6f7420626520656d70747900000000000060448201526064015b60405180910390fd5b6001600160a01b0381811660009081526020819052604090205416610394576040516001600160a01b0382169081906102c090611c86565b8190604051809103906000f59050801580156102e0573d6000803e3d6000fd5b506001600160a01b03838116600090815260208190526040902080546001600160a01b03191692909116918217905561034e5760405162461bcd60e51b815260206004820152601060248201526f14d85999481b9bdd0818dc99585d195960821b604482015260640161027f565b6001600160a01b038083166000818152602081905260408082205490519316927f9f5f38090a53b52fccc9ab2ecccf3e10c222adcad8af17ae2974abeaef68b4cc9190a3505b505050505050505050505050565b606060008080836103b482600161203f565b93506103c184600261203f565b93506103ce84600161203f565b935060005b8681116107f9576103e585600161203f565b94506103f285600261203f565b945061043589898080601f0160208091040260200160405190810160405280939291908181526020018383808284376000920191909152508992506118bd915050565b96506001600160401b031694506000905089868a610453888361203f565b9261046093929190612052565b8080601f0160208091040260200160405190810160405280939291908181526020018383808284376000920191909152509293506104a4925087915088905061203f565b95506104e78a8a8080601f0160208091040260200160405190810160405280939291908181526020018383808284376000920191909152508a92506118bd915050565b97506001600160401b03169550600090508a878b610505898361203f565b9261051293929190612052565b8080601f016020809104026020016040519081016040528093929190818152602001838380828437600092019190915250929350610556925088915089905061203f565b96506105998b8b8080601f0160208091040260200160405190810160405280939291908181526020018383808284376000920191909152508b92506118bd915050565b506001600160401b031696506105b2905087600161203f565b96508560ff81166000036105c857829450610601565b60006105d98660008460ff16611a97565b905080846040516020016105ee92919061207c565b6040516020818303038152906040529550505b6106428c8c8080601f0160208091040260200160405190810160405280939291908181526020018383808284376000920191909152508c92506118bd915050565b909150816001600160401b0316915080995081985050506106a58c8c8080601f0160208091040260200160405190810160405280939291908181526020018383808284376000920191909152506106a092508c91506001905061203f565b611b59565b156106bc576106b588600261203f565b97506106e7565b6106c788600361203f565b9750602596506106d888600261203f565b97506106e4878961203f565b97505b6106f288600161203f565b97506106ff88600361203f565b975061070c88600261203f565b9750602596508984036107d757604051620b889160dd1b6020820152602581018e905260450160408051601f1981840301815291905280516020909101208c898d6107578b8361203f565b9261076493929190612052565b604051610772929190611fe4565b6040518091039020146107c75760405162461bcd60e51b815260206004820152601e60248201527f43696420696e2064617461206e6f646520646964206e6f74206d617463680000604482015260640161027f565b8498505050505050505050610842565b6107e1878961203f565b975050505080806107f1906120ab565b9150506103d3565b5060405162461bcd60e51b815260206004820152601c60248201527f456e747279206e6f7420666f756e6420696e2064617461206e6f646500000000604482015260640161027f565b949350505050565b6040805160008082526020820180845287905260ff861692820192909252606081018490526080810183905260019060a0016020604051602081039080840390855afa15801561089e573d6000803e3d6000fd5b5050604051601f1901519695505050505050565b6000805b848110156114165760008484838181106108d2576108d26120c4565b90506020020135905060008062a2616560e81b6001600160c01b031916898986818110610901576109016120c4565b905060200281019061091391906120da565b61092291600391600091612052565b61092b91612120565b6001600160c01b0319161461094257610942612158565b60036109a78a8a87818110610959576109596120c4565b905060200281019061096b91906120da565b8080601f0160208091040260200160405190810160405280939291908181526020018383808284376000920191909152508592506118bd915050565b6001600160401b03909116935091505081841115610a225760405162461bcd60e51b815260206004820152603260248201527f48696e7420697320666f7220616e20696e646578206265796f6e642074686520604482015271656e64206f662074686520656e747269657360701b606482015260840161027f565b8315610a2c578391505b60005b828110156110b15762a4616b60e81b8b8b88818110610a5057610a506120c4565b9050602002810190610a6291906120da565b8490610a6f82600361203f565b92610a7c93929190612052565b610a8591612120565b6001600160c01b03191614610a9c57610a9c612158565b610aa782600361203f565b9150610b0c8b8b88818110610abe57610abe6120c4565b9050602002810190610ad091906120da565b8080601f0160208091040260200160405190810160405280939291908181526020018383808284376000920191909152508692506118bd915050565b6001600160401b0390911695509250610b279050848361203f565b915061061760f41b8b8b88818110610b4157610b416120c4565b9050602002810190610b5391906120da565b8490610b6082600261203f565b92610b6d93929190612052565b610b7691612120565b6001600160c01b03191614610b8d57610b8d612158565b610b9882600261203f565b9150610baf8b8b88818110610abe57610abe6120c4565b6001600160401b039091169550925061185d60f21b90508b8b88818110610bd857610bd86120c4565b9050602002810190610bea91906120da565b8490610bf782600261203f565b92610c0493929190612052565b610c0d91612120565b6001600160c01b03191614610c2457610c24612158565b610c2f82600261203f565b9150610c9a8b8b88818110610c4657610c466120c4565b9050602002810190610c5891906120da565b8080601f0160208091040260200160405190810160405280939291908181526020018383808284376000920191909152506106a092508691506001905061203f565b15610d1e57607b60f91b8b8b88818110610cb657610cb66120c4565b9050602002810190610cc891906120da565b610cd385600161203f565b90610cdf86600261203f565b92610cec93929190612052565b610cf591612120565b6001600160c01b03191614610d0c57610d0c612158565b610d1782600261203f565b9150610f45565b63d82a582560e01b8b8b88818110610d3857610d386120c4565b9050602002810190610d4a91906120da565b8490610d5782600461203f565b92610d6493929190612052565b610d6d91612120565b6001600160c01b03191614610d8457610d84612158565b610d8f82600461203f565b9150620b889160dd1b8b8b88818110610daa57610daa6120c4565b9050602002810190610dbc91906120da565b8490610dc982600561203f565b92610dd693929190612052565b610ddf91612120565b6001600160c01b03191614610df657610df6612158565b610e0182600561203f565b9150600085118015610e1c5750610e1960018661216e565b81145b15610f375760008b8b88818110610e3557610e356120c4565b9050602002810190610e4791906120da565b8490610e5482602061203f565b92610e6193929190612052565b610e6a91612181565b90508c8114610ebb5760405162461bcd60e51b815260206004820152601b60248201527f56616c756520646f6573206e6f74206d61746368207461726765740000000000604482015260640161027f565b60028c8c89818110610ecf57610ecf6120c4565b9050602002810190610ee191906120da565b604051610eef929190611fe4565b602060405180830381855afa158015610f0c573d6000803e3d6000fd5b5050506040513d601f19601f82011682018060405250810190610f2f9190612010565b9c50506110a9565b610f4282602061203f565b91505b6130bb60f11b8b8b88818110610f5d57610f5d6120c4565b9050602002810190610f6f91906120da565b8490610f7c82600261203f565b92610f8993929190612052565b610f9291612120565b6001600160c01b03191614610fa957610fa9612158565b610fb482600261203f565b915063d82a582560e01b8b8b88818110610fd057610fd06120c4565b9050602002810190610fe291906120da565b8490610fef82600461203f565b92610ffc93929190612052565b61100591612120565b6001600160c01b0319161461101c5761101c612158565b61102782600461203f565b9150620b889160dd1b8b8b88818110611042576110426120c4565b905060200281019061105491906120da565b849061106182600561203f565b9261106e93929190612052565b61107791612120565b6001600160c01b0319161461108e5761108e612158565b61109982600561203f565b91506110a682602061203f565b91505b600101610a2f565b50836000036114065761185b60f21b8a8a878181106110d2576110d26120c4565b90506020028101906110e491906120da565b83906110f182600261203f565b926110fe93929190612052565b61110791612120565b6001600160c01b0319161461111e5761111e612158565b61112981600261203f565b90506111948a8a87818110611140576111406120c4565b905060200281019061115291906120da565b8080601f0160208091040260200160405190810160405280939291908181526020018383808284376000920191909152506106a092508591506001905061203f565b1561121857607b60f91b8a8a878181106111b0576111b06120c4565b90506020028101906111c291906120da565b6111cd84600161203f565b906111d985600261203f565b926111e693929190612052565b6111ef91612120565b6001600160c01b0319161461120657611206612158565b61121181600261203f565b9050611406565b63d82a582560e01b8a8a87818110611232576112326120c4565b905060200281019061124491906120da565b839061125182600461203f565b9261125e93929190612052565b61126791612120565b6001600160c01b0319161461127e5761127e612158565b61128981600461203f565b9050620b889160dd1b8a8a878181106112a4576112a46120c4565b90506020028101906112b691906120da565b83906112c382600561203f565b926112d093929190612052565b6112d991612120565b6001600160c01b031916146112f0576112f0612158565b6112fb81600561203f565b905060008a8a87818110611311576113116120c4565b905060200281019061132391906120da565b839061133082602061203f565b9261133d93929190612052565b61134691612181565b90508b811461138e5760405162461bcd60e51b81526020600482015260146024820152730d840ecc2d840c8decae640dcdee840dac2e8c6d60631b604482015260640161027f565b60028b8b888181106113a2576113a26120c4565b90506020028101906113b491906120da565b6040516113c2929190611fe4565b602060405180830381855afa1580156113df573d6000803e3d6000fd5b5050506040513d601f19601f820116820180604052508101906114029190612010565b9b50505b5050600190920191506108b69050565b509495945050505050565b642958d91a5960da1b611438600560008486612052565b61144191612120565b6001600160c01b0319161461145857611458612158565b60006005905060006114a184848080601f0160208091040260200160405190810160405280939291908181526020018383808284376000920191909152508692506118bd915050565b93506001600160401b031691506114ba9050818361203f565b91506331b932bb60e11b8483856114d282600461203f565b926114df93929190612052565b6114e891612120565b6001600160c01b031916146114ff576114ff612158565b61150a82600461203f565b915061154d84848080601f0160208091040260200160405190810160405280939291908181526020018383808284376000920191909152508692506118bd915050565b93506001600160401b031691506115669050818361203f565b915064646461746160d81b84838561157f82600561203f565b9261158c93929190612052565b61159591612120565b6001600160c01b031916146115ac576115ac612158565b6115b782600561203f565b915063d82a582560e01b8483856115cf82600461203f565b926115dc93929190612052565b6115e591612120565b6001600160c01b031916146115fc576115fc612158565b61160782600461203f565b9150620b889160dd1b84838561161e82600561203f565b9261162b93929190612052565b61163491612120565b6001600160c01b0319161461164b5761164b612158565b61165682600561203f565b91508484838561166782602061203f565b9261167493929190612052565b61167d91612181565b1461168a5761168a612158565b61169582602061203f565b91506432383932bb60d91b8483856116ae82600561203f565b926116bb93929190612052565b6116c491612120565b6001600160c01b031916146116db576116db612158565b6116e682600561203f565b915061172984848080601f016020809104026020016040519081016040528093929190818152602001838380828437600092019190915250869250611b59915050565b156117405761173982600161203f565b91506117ab565b63d82a582560e01b84838561175682600461203f565b9261176393929190612052565b61176c91612120565b6001600160c01b0319161461178357611783612158565b61178e82600461203f565b915061179b82600561203f565b91506117a882602061203f565b91505b686776657273696f6e0360b81b8483856117c682600961203f565b926117d393929190612052565b6117dc9161219f565b6001600160b81b031916146117f3576117f3612158565b5050505050565b6000806118098686868661084a565b6040519091506001600160a01b038216906000906001600160f81b0319903090849061183760208201611c86565b6020820181038252601f19601f820116604052508051906020012060405160200161189994939291906001600160f81b031994909416845260609290921b6bffffffffffffffffffffffff191660018401526015830152603582015260550190565b60408051808303601f19018152919052805160209091012098975050505050505050565b6000806000806118cd8686611b8c565b90506118da60018661203f565b94506007600582901c16601f8216601c81106119465760405162461bcd60e51b815260206004820152602560248201527f63616e6e6f742068616e646c6520686561646572732077697468206578747261604482015264203e20323760d81b606482015260840161027f565b60188160ff1610156119645790945060ff169250849150611a909050565b8060ff166018036119e057600061197b8989611b8c565b905061198860018961203f565b975060188160ff1610156119cd5760405162461bcd60e51b815260206004820152600c60248201526b34b73b30b634b21031b137b960a11b604482015260640161027f565b9195505060ff169250849150611a909050565b8060ff16601903611a1a5760006119f78989611bdb565b9050611a0460028961203f565b97509195505061ffff169250849150611a909050565b8060ff16601a03611a56576000611a318989611c14565b9050611a3e60048961203f565b97509195505063ffffffff169250849150611a909050565b8060ff16601b14611a6957611a69612158565b6000611a758989611c4d565b9050611a8260088961203f565b975091955090935085925050505b9250925092565b6060836000611aa6858561216e565b6001600160401b03811115611abd57611abd6121d5565b6040519080825280601f01601f191660200182016040528015611ae7576020820181803683370190505b509050845b84811015611b4f57828181518110611b0657611b066120c4565b01602001516001600160f81b03191682611b20888461216e565b81518110611b3057611b306120c4565b60200101906001600160f81b031916908160001a905350600101611aec565b5095945050505050565b6000828281518110611b6d57611b6d6120c4565b6020910101516001600160f81b031916607b60f91b1490505b92915050565b6000611b9982600161203f565b83511015611bb95760405162461bcd60e51b815260040161027f906121eb565b828281518110611bcb57611bcb6120c4565b016020015160f81c905092915050565b6000611be882600261203f565b83511015611c085760405162461bcd60e51b815260040161027f906121eb565b50016020015160f01c90565b6000611c2182600461203f565b83511015611c415760405162461bcd60e51b815260040161027f906121eb565b50016020015160e01c90565b6000611c5a82600861203f565b83511015611c7a5760405162461bcd60e51b815260040161027f906121eb565b50016020015160c01c90565b61028b8061221a83390190565b803560ff81168114611ca457600080fd5b919050565b60008083601f840112611cbb57600080fd5b5081356001600160401b03811115611cd257600080fd5b602083019150836020828501011115611cea57600080fd5b9250929050565b60008083601f840112611d0357600080fd5b5081356001600160401b03811115611d1a57600080fd5b6020830191508360208260051b8501011115611cea57600080fd5b60008060008060008060008060008060e08b8d031215611d5457600080fd5b611d5d8b611c93565b995060208b0135985060408b0135975060608b01356001600160401b03811115611d8657600080fd5b611d928d828e01611ca9565b90985096505060808b01356001600160401b03811115611db157600080fd5b611dbd8d828e01611ca9565b90965094505060a08b0135925060c08b01356001600160401b03811115611de357600080fd5b611def8d828e01611cf1565b915080935050809150509295989b9194979a5092959850565b600060208284031215611e1a57600080fd5b81356001600160a01b0381168114611e3157600080fd5b9392505050565b60008060008060608587031215611e4e57600080fd5b8435935060208501356001600160401b03811115611e6b57600080fd5b611e7787828801611ca9565b9598909750949560400135949350505050565b60005b83811015611ea5578181015183820152602001611e8d565b50506000910152565b6020815260008251806020840152611ecd816040850160208701611e8a565b601f01601f19169190910160400192915050565b60008060008060808587031215611ef757600080fd5b84359350611f0760208601611c93565b93969395505050506040820135916060013590565b600080600080600060608688031215611f3457600080fd5b8535945060208601356001600160401b03811115611f5157600080fd5b611f5d88828901611cf1565b90955093505060408601356001600160401b03811115611f7c57600080fd5b611f8888828901611cf1565b969995985093965092949392505050565b600080600060408486031215611fae57600080fd5b8335925060208401356001600160401b03811115611fcb57600080fd5b611fd786828701611ca9565b9497909650939450505050565b8183823760009101908152919050565b60008251612006818460208701611e8a565b9190910192915050565b60006020828403121561202257600080fd5b5051919050565b634e487b7160e01b600052601160045260246000fd5b80820180821115611b8657611b86612029565b6000808585111561206257600080fd5b8386111561206f57600080fd5b5050820193919092039150565b6000835161208e818460208801611e8a565b8351908301906120a2818360208801611e8a565b01949350505050565b6000600182016120bd576120bd612029565b5060010190565b634e487b7160e01b600052603260045260246000fd5b6000808335601e198436030181126120f157600080fd5b8301803591506001600160401b0382111561210b57600080fd5b602001915036819003821315611cea57600080fd5b80356001600160c01b03198116906008841015612151576001600160c01b0319600885900360031b81901b82161691505b5092915050565b634e487b7160e01b600052600160045260246000fd5b81810381811115611b8657611b86612029565b80356020831015611b8657600019602084900360031b1b1692915050565b80356001600160b81b03198116906009841015612151576001600160b81b031960099490940360031b84901b1690921692915050565b634e487b7160e01b600052604160045260246000fd5b602080825260149082015273736c6963696e67206f7574206f662072616e676560601b60408201526060019056fe6080604052348015600f57600080fd5b50600080546001600160a01b0319163317905561025a806100316000396000f3fe608060405234801561001057600080fd5b50600436106100365760003560e01c80635e3571f51461003b5780638da5cb5b14610050575b600080fd5b61004e610049366004610143565b61007f565b005b600054610063906001600160a01b031681565b6040516001600160a01b03909116815260200160405180910390f35b6000546001600160a01b031633146101035760405162461bcd60e51b815260206004820152603c60248201527f492063616e206f6e6c7920626520636f6e74726f6c6c6564206279207468652060448201527f536b6565744761746577617920746861742063726561746564206d6500000000606482015260840160405180910390fd5b61010e838383610114565b50505050565b60008060008351602085018688600019f1949350505050565b634e487b7160e01b600052604160045260246000fd5b60008060006060848603121561015857600080fd5b83356001600160a01b038116811461016f57600080fd5b925060208401359150604084013567ffffffffffffffff81111561019257600080fd5b8401601f810186136101a357600080fd5b803567ffffffffffffffff8111156101bd576101bd61012d565b604051601f8201601f19908116603f0116810167ffffffffffffffff811182821017156101ec576101ec61012d565b60405281815282820160200188101561020457600080fd5b81602084016020830137600060208383010152809350505050925092509256fea2646970667358221220d75dfdc7173906aed01d1bb817c2abeec89ab7e3a73de6c51c3a288ecd8e7cbd64736f6c634300081a0033a2646970667358221220b1fb3c34dadcb5b982eaf436fe0505a6395a8ba9cd0805fdf385dade0ecd052964736f6c634300081a0033","linkReferences":{}},"methodIdentifiers":{"assertCommitNodeContainsData(bytes32,bytes)":"f9f485b3","dataNodeRecordKeyForCID(bytes32,bytes,uint256)":"c732454b","handleSkeet(uint8,bytes32,bytes32,bytes,bytes,uint256,bytes[])":"3995ac96","merkleProvenRootHash(bytes32,bytes[],uint256[])":"e3e962ac","predictSafeAddress(bytes32,uint8,bytes32,bytes32)":"fe127586","predictSignerAddress(bytes32,uint8,bytes32,bytes32)":"cdbec9f2","signerSafes(address)":"c361a0a5"},"id":26}