{"abi":[{"type":"function","name":"handleSkeet","inputs":[{"name":"_v","type":"uint8","internalType":"uint8"},{"name":"_r","type":"bytes32","internalType":"bytes32"},{"name":"_s","type":"bytes32","internalType":"bytes32"},{"name":"rootCbor","type":"bytes","internalType":"bytes"},{"name":"treeCids","type":"bytes[]","internalType":"bytes[]"},{"name":"treeCbors","type":"bytes[]","internalType":"bytes[]"},{"name":"rkey","type":"string","internalType":"string"}],"outputs":[],"stateMutability":"nonpayable"},{"type":"function","name":"predictSafeAddress","inputs":[{"name":"sigHash","type":"bytes32","internalType":"bytes32"},{"name":"_v","type":"uint8","internalType":"uint8"},{"name":"_r","type":"bytes32","internalType":"bytes32"},{"name":"_s","type":"bytes32","internalType":"bytes32"}],"outputs":[{"name":"","type":"address","internalType":"address"}],"stateMutability":"view"},{"type":"function","name":"predictSignerAddress","inputs":[{"name":"sigHash","type":"bytes32","internalType":"bytes32"},{"name":"_v","type":"uint8","internalType":"uint8"},{"name":"_r","type":"bytes32","internalType":"bytes32"},{"name":"_s","type":"bytes32","internalType":"bytes32"}],"outputs":[{"name":"","type":"address","internalType":"address"}],"stateMutability":"pure"},{"type":"function","name":"signerSafes","inputs":[{"name":"","type":"address","internalType":"address"}],"outputs":[{"name":"","type":"address","internalType":"contract SignerSafe"}],"stateMutability":"view"},{"type":"function","name":"verifyMerkleProof","inputs":[{"name":"proofHashes","type":"bytes32[]","internalType":"bytes32[]"}],"outputs":[],"stateMutability":"nonpayable"},{"type":"event","name":"LogCreateSignerSafe","inputs":[{"name":"signer","type":"address","indexed":true,"internalType":"address"},{"name":"signerSafe","type":"address","indexed":true,"internalType":"address"}],"anonymous":false},{"type":"event","name":"LogExecutePayload","inputs":[{"name":"signer","type":"address","indexed":true,"internalType":"address"},{"name":"to","type":"address","indexed":true,"internalType":"address"},{"name":"value","type":"uint256","indexed":false,"internalType":"uint256"},{"name":"data","type":"bytes","indexed":false,"internalType":"bytes"},{"name":"payload","type":"string","indexed":false,"internalType":"string"}],"anonymous":false}],"bytecode":{"object":"0x608060405234801561001057600080fd5b50610abb806100206000396000f3fe608060405234801561001057600080fd5b50600436106100575760003560e01c8063173a1ea01461005c57806366d0b83814610071578063c361a0a514610082578063cdbec9f2146100c7578063fe127586146100da575b600080fd5b61006f61006a3660046105ec565b6100ed565b005b61006f61007f3660046106bd565b50565b6100ab61009036600461074e565b6000602081905290815260409020546001600160a01b031681565b6040516001600160a01b03909116815260200160405180910390f35b6100ab6100d536600461077e565b610333565b6100ab6100e836600461077e565b61039b565b600060028560405160200161010291906107b9565b60408051601f198184030181529082905261011c916107b9565b602060405180830381855afa158015610139573d6000803e3d6000fd5b5050506040513d601f19601f8201168201806040525081019061015c91906107e8565b6040805160008082526020820180845284905260ff8c1692820192909252606081018a9052608081018990529192509060019060a0016020604051602081039080840390855afa1580156101b4573d6000803e3d6000fd5b5050604051601f1901519150506001600160a01b03811661021c5760405162461bcd60e51b815260206004820152601a60248201527f5369676e65722073686f756c64206e6f7420626520656d70747900000000000060448201526064015b60405180910390fd5b6001600160a01b0381811660009081526020819052604090205416610328576040516001600160a01b0382169081906102549061045e565b8190604051809103906000f5905080158015610274573d6000803e3d6000fd5b506001600160a01b03838116600090815260208190526040902080546001600160a01b0319169290911691821790556102e25760405162461bcd60e51b815260206004820152601060248201526f14d85999481b9bdd0818dc99585d195960821b6044820152606401610213565b6001600160a01b038083166000818152602081905260408082205490519316927f9f5f38090a53b52fccc9ab2ecccf3e10c222adcad8af17ae2974abeaef68b4cc9190a3505b505050505050505050565b6040805160008082526020820180845287905260ff861692820192909252606081018490526080810183905260019060a0016020604051602081039080840390855afa158015610387573d6000803e3d6000fd5b5050604051601f1901519695505050505050565b6000806103aa86868686610333565b6040519091506001600160a01b038216906000906001600160f81b031990309084906103d86020820161045e565b6020820181038252601f19601f820116604052508051906020012060405160200161043a94939291906001600160f81b031994909416845260609290921b6bffffffffffffffffffffffff191660018401526015830152603582015260550190565b60408051808303601f19018152919052805160209091012098975050505050505050565b6102848061080283390190565b803560ff8116811461047c57600080fd5b919050565b634e487b7160e01b600052604160045260246000fd5b604051601f8201601f1916810167ffffffffffffffff811182821017156104c0576104c0610481565b604052919050565b600082601f8301126104d957600080fd5b813567ffffffffffffffff8111156104f3576104f3610481565b610506601f8201601f1916602001610497565b81815284602083860101111561051b57600080fd5b816020850160208301376000918101602001919091529392505050565b600067ffffffffffffffff82111561055257610552610481565b5060051b60200190565b600082601f83011261056d57600080fd5b8135602061058261057d83610538565b610497565b82815260059290921b840181019181810190868411156105a157600080fd5b8286015b848110156105e157803567ffffffffffffffff8111156105c55760008081fd5b6105d38986838b01016104c8565b8452509183019183016105a5565b509695505050505050565b600080600080600080600060e0888a03121561060757600080fd5b6106108861046b565b96506020880135955060408801359450606088013567ffffffffffffffff8082111561063b57600080fd5b6106478b838c016104c8565b955060808a013591508082111561065d57600080fd5b6106698b838c0161055c565b945060a08a013591508082111561067f57600080fd5b61068b8b838c0161055c565b935060c08a01359150808211156106a157600080fd5b506106ae8a828b016104c8565b91505092959891949750929550565b600060208083850312156106d057600080fd5b823567ffffffffffffffff8111156106e757600080fd5b8301601f810185136106f857600080fd5b803561070661057d82610538565b81815260059190911b8201830190838101908783111561072557600080fd5b928401925b828410156107435783358252928401929084019061072a565b979650505050505050565b60006020828403121561076057600080fd5b81356001600160a01b038116811461077757600080fd5b9392505050565b6000806000806080858703121561079457600080fd5b843593506107a46020860161046b565b93969395505050506040820135916060013590565b6000825160005b818110156107da57602081860181015185830152016107c0565b506000920191825250919050565b6000602082840312156107fa57600080fd5b505191905056fe608060405234801561001057600080fd5b50600080546001600160a01b03191633179055610252806100326000396000f3fe608060405234801561001057600080fd5b50600436106100365760003560e01c80635e3571f51461003b5780638da5cb5b14610050575b600080fd5b61004e610049366004610143565b61007f565b005b600054610063906001600160a01b031681565b6040516001600160a01b03909116815260200160405180910390f35b6000546001600160a01b031633146101035760405162461bcd60e51b815260206004820152603c60248201527f492063616e206f6e6c7920626520636f6e74726f6c6c6564206279207468652060448201527f536b6565744761746577617920746861742063726561746564206d6500000000606482015260840160405180910390fd5b61010e838383610114565b50505050565b60008060008351602085018688600019f1949350505050565b634e487b7160e01b600052604160045260246000fd5b60008060006060848603121561015857600080fd5b83356001600160a01b038116811461016f57600080fd5b925060208401359150604084013567ffffffffffffffff8082111561019357600080fd5b818601915086601f8301126101a757600080fd5b8135818111156101b9576101b961012d565b604051601f8201601f19908116603f011681019083821181831017156101e1576101e161012d565b816040528281528960208487010111156101fa57600080fd5b826020860160208301376000602084830101528095505050505050925092509256fea2646970667358221220778b1ff6ac12d24ab28c06c90219a5b7904d06b3fd44f482a6158befbbf7f94c64736f6c63430008140033a26469706673582212203bce7a8c7c18614534fe10fdfcd4bfbb1c09652025c341902acbd235112f9a8064736f6c63430008140033","linkReferences":{}},"methodIdentifiers":{"handleSkeet(uint8,bytes32,bytes32,bytes,bytes[],bytes[],string)":"173a1ea0","predictSafeAddress(bytes32,uint8,bytes32,bytes32)":"fe127586","predictSignerAddress(bytes32,uint8,bytes32,bytes32)":"cdbec9f2","signerSafes(address)":"c361a0a5","verifyMerkleProof(bytes32[])":"66d0b838"},"id":25}