{"abi":[{"type":"function","name":"assertCommitNodeContainsData","inputs":[{"name":"proveMe","type":"bytes32","internalType":"bytes32"},{"name":"commitNode","type":"bytes","internalType":"bytes"}],"outputs":[],"stateMutability":"pure"},{"type":"function","name":"handleSkeet","inputs":[{"name":"content","type":"bytes","internalType":"bytes"},{"name":"nodes","type":"bytes[]","internalType":"bytes[]"},{"name":"nodeHints","type":"uint256[]","internalType":"uint256[]"},{"name":"commitNode","type":"bytes","internalType":"bytes"},{"name":"_v","type":"uint8","internalType":"uint8"},{"name":"_r","type":"bytes32","internalType":"bytes32"},{"name":"_s","type":"bytes32","internalType":"bytes32"}],"outputs":[],"stateMutability":"nonpayable"},{"type":"function","name":"merkleProvenRootHash","inputs":[{"name":"proveMe","type":"bytes32","internalType":"bytes32"},{"name":"nodes","type":"bytes[]","internalType":"bytes[]"},{"name":"hints","type":"uint256[]","internalType":"uint256[]"}],"outputs":[{"name":"","type":"bytes32","internalType":"bytes32"},{"name":"","type":"string","internalType":"string"}],"stateMutability":"pure"},{"type":"function","name":"predictSafeAddress","inputs":[{"name":"_signer","type":"address","internalType":"address"}],"outputs":[{"name":"","type":"address","internalType":"address"}],"stateMutability":"view"},{"type":"function","name":"predictSafeAddressFromSig","inputs":[{"name":"sigHash","type":"bytes32","internalType":"bytes32"},{"name":"_v","type":"uint8","internalType":"uint8"},{"name":"_r","type":"bytes32","internalType":"bytes32"},{"name":"_s","type":"bytes32","internalType":"bytes32"}],"outputs":[{"name":"","type":"address","internalType":"address"}],"stateMutability":"view"},{"type":"function","name":"predictSignerAddressFromSig","inputs":[{"name":"sigHash","type":"bytes32","internalType":"bytes32"},{"name":"_v","type":"uint8","internalType":"uint8"},{"name":"_r","type":"bytes32","internalType":"bytes32"},{"name":"_s","type":"bytes32","internalType":"bytes32"}],"outputs":[{"name":"","type":"address","internalType":"address"}],"stateMutability":"pure"},{"type":"function","name":"signerSafes","inputs":[{"name":"","type":"address","internalType":"address"}],"outputs":[{"name":"","type":"address","internalType":"contract SignerSafe"}],"stateMutability":"view"},{"type":"event","name":"LogCreateSignerSafe","inputs":[{"name":"signer","type":"address","indexed":true,"internalType":"address"},{"name":"signerSafe","type":"address","indexed":true,"internalType":"address"}],"anonymous":false},{"type":"event","name":"LogExecutePayload","inputs":[{"name":"signer","type":"address","indexed":true,"internalType":"address"},{"name":"to","type":"address","indexed":true,"internalType":"address"},{"name":"value","type":"uint256","indexed":false,"internalType":"uint256"},{"name":"data","type":"bytes","indexed":false,"internalType":"bytes"},{"name":"payload","type":"string","indexed":false,"internalType":"string"}],"anonymous":false}],"bytecode":{"object":"0x6080604052348015600f57600080fd5b506149758061001f6000396000f3fe608060405234801561001057600080fd5b506004361061007d5760003560e01c8063c361a0a51161005b578063c361a0a5146100fe578063c4299c701461012e578063e3e962ac1461015e578063f9f485b31461018f5761007d565b80630b8ff967146100825780637c4d95a91461009e5780639ee0ce27146100ce575b600080fd5b61009c60048036038101906100979190613149565b6101ab565b005b6100b860048036038101906100b3919061326d565b610324565b6040516100c59190613315565b60405180910390f35b6100e860048036038101906100e3919061335c565b61037f565b6040516100f59190613315565b60405180910390f35b6101186004803603810190610113919061335c565b61040a565b60405161012591906133e8565b60405180910390f35b6101486004803603810190610143919061326d565b61043d565b6040516101559190613315565b60405180910390f35b61017860048036038101906101739190613403565b6104dc565b604051610186929190613537565b60405180910390f35b6101a960048036038101906101a49190613567565b611a40565b005b600060028c8c6040516020016101c2929190613606565b6040516020818303038152906040526040516101de919061365b565b602060405180830381855afa1580156101fb573d6000803e3d6000fd5b5050506040513d601f19601f8201168201806040525081019061021e9190613687565b9050600080610230838d8d8d8d6104dc565b9150915061023f828989611a40565b505050600060028686604051602001610259929190613606565b604051602081830303815290604052604051610275919061365b565b602060405180830381855afa158015610292573d6000803e3d6000fd5b5050506040513d601f19601f820116820180604052508101906102b59190613687565b90506000600182868686604051600081526020016040526040516102dc94939291906136c3565b6020604051602081039080840390855afa1580156102fe573d6000803e3d6000fd5b505050602060405103519050610315818e8e612125565b50505050505050505050505050565b60006001858585856040516000815260200160405260405161034994939291906136c3565b6020604051602081039080840390855afa15801561036b573d6000803e3d6000fd5b505050602060405103519050949350505050565b6000808273ffffffffffffffffffffffffffffffffffffffff1660001b9050600060ff60f81b3083604051806020016103b790612fb2565b6020820181038252601f19601f82011660405250805190602001206040516020016103e594939291906137be565b6040516020818303038152906040528051906020012090508060001c92505050919050565b60006020528060005260406000206000915054906101000a900473ffffffffffffffffffffffffffffffffffffffff1681565b60008061044c86868686610324565b905060008173ffffffffffffffffffffffffffffffffffffffff1660001b9050600060ff60f81b30836040518060200161048590612fb2565b6020820181038252601f19601f82011660405250805190602001206040516020016104b394939291906137be565b6040516020818303038152906040528051906020012090508060001c9350505050949350505050565b600060608060005b87879050811015611a2e5760008686838181106105045761050361380c565b5b9050602002013590506000807fa26165000000000000000000000000000000000000000000000000000000000077ffffffffffffffffffffffffffffffffffffffffffffffff19168b8b8681811061055f5761055e61380c565b5b9050602002810190610571919061384a565b600090600392610583939291906138b7565b9061058e9190613936565b77ffffffffffffffffffffffffffffffffffffffffffffffff1916146105b7576105b6613995565b5b60006003905061062e8c8c878181106105d3576105d261380c565b5b90506020028101906105e5919061384a565b8080601f016020809104026020016040519081016040528093929190818152602001838380828437600081840152601f19601f820116905080830192505050505050508261260d565b9091508167ffffffffffffffff169150809250819350505081841115610689576040517f08c379a000000000000000000000000000000000000000000000000000000000815260040161068090613a36565b60405180910390fd5b6000841115610696578391505b60005b828110156115815760008603610a93577fa4616b000000000000000000000000000000000000000000000000000000000077ffffffffffffffffffffffffffffffffffffffffffffffff19168d8d888181106106f8576106f761380c565b5b905060200281019061070a919061384a565b84906003866107199190613a8f565b92610726939291906138b7565b906107319190613936565b77ffffffffffffffffffffffffffffffffffffffffffffffff19161461075a57610759613995565b5b6003826107679190613a8f565b91506107da8d8d8881811061077f5761077e61380c565b5b9050602002810190610791919061384a565b8080601f016020809104026020016040519081016040528093929190818152602001838380828437600081840152601f19601f820116905080830192505050505050508361260d565b9091508167ffffffffffffffff169150809350819550505060008d8d888181106108075761080661380c565b5b9050602002810190610819919061384a565b849087866108279190613a8f565b92610834939291906138b7565b8080601f016020809104026020016040519081016040528093929190818152602001838380828437600081840152601f19601f82011690508083019250505050505050905084836108859190613a8f565b92506108f88e8e8981811061089d5761089c61380c565b5b90506020028101906108af919061384a565b8080601f016020809104026020016040519081016040528093929190818152602001838380828437600081840152601f19601f820116905080830192505050505050508461260d565b9091508167ffffffffffffffff169150809450819650505060008e8e898181106109255761092461380c565b5b9050602002810190610937919061384a565b859088876109459190613a8f565b92610952939291906138b7565b8080601f016020809104026020016040519081016040528093929190818152602001838380828437600081840152601f19601f82011690508083019250505050505050905085846109a39190613a8f565b9350610a168f8f8a8181106109bb576109ba61380c565b5b90506020028101906109cd919061384a565b8080601f016020809104026020016040519081016040528093929190818152602001838380828437600081840152601f19601f820116905080830192505050505050508561260d565b9091508167ffffffffffffffff1691505080965050600184610a389190613a8f565b9350600086905060008160ff1603610a5257829950610a8b565b6000610a638b60008460ff166127ff565b90508084604051602001610a78929190613aff565b6040516020818303038152906040529a50505b505050610d34565b7fa4616b000000000000000000000000000000000000000000000000000000000077ffffffffffffffffffffffffffffffffffffffffffffffff19168d8d88818110610ae257610ae161380c565b5b9050602002810190610af4919061384a565b8490600386610b039190613a8f565b92610b10939291906138b7565b90610b1b9190613936565b77ffffffffffffffffffffffffffffffffffffffffffffffff191614610b4457610b43613995565b5b600382610b519190613a8f565b9150610bc48d8d88818110610b6957610b6861380c565b5b9050602002810190610b7b919061384a565b8080601f016020809104026020016040519081016040528093929190818152602001838380828437600081840152601f19601f820116905080830192505050505050508361260d565b9091508167ffffffffffffffff16915080935081955050508382610be89190613a8f565b91507f617000000000000000000000000000000000000000000000000000000000000077ffffffffffffffffffffffffffffffffffffffffffffffff19168d8d88818110610c3957610c3861380c565b5b9050602002810190610c4b919061384a565b8490600286610c5a9190613a8f565b92610c67939291906138b7565b90610c729190613936565b77ffffffffffffffffffffffffffffffffffffffffffffffff191614610c9b57610c9a613995565b5b600282610ca89190613a8f565b9150610d1b8d8d88818110610cc057610cbf61380c565b5b9050602002810190610cd2919061384a565b8080601f016020809104026020016040519081016040528093929190818152602001838380828437600081840152601f19601f820116905080830192505050505050508361260d565b9091508167ffffffffffffffff16915080935081955050505b7f617400000000000000000000000000000000000000000000000000000000000077ffffffffffffffffffffffffffffffffffffffffffffffff19168d8d88818110610d8357610d8261380c565b5b9050602002810190610d95919061384a565b8490600286610da49190613a8f565b92610db1939291906138b7565b90610dbc9190613936565b77ffffffffffffffffffffffffffffffffffffffffffffffff191614610de557610de4613995565b5b600282610df29190613a8f565b9150610e658d8d88818110610e0a57610e0961380c565b5b9050602002810190610e1c919061384a565b8080601f016020809104026020016040519081016040528093929190818152602001838380828437600081840152601f19601f82011690508083019250505050505050836128f5565b15610f2f577ff60000000000000000000000000000000000000000000000000000000000000077ffffffffffffffffffffffffffffffffffffffffffffffff19168d8d88818110610eb957610eb861380c565b5b9050602002810190610ecb919061384a565b8490600186610eda9190613a8f565b92610ee7939291906138b7565b90610ef29190613936565b77ffffffffffffffffffffffffffffffffffffffffffffffff191614610f1b57610f1a613995565b5b600182610f289190613a8f565b91506111f9565b7fd82a58250000000000000000000000000000000000000000000000000000000077ffffffffffffffffffffffffffffffffffffffffffffffff19168d8d88818110610f7e57610f7d61380c565b5b9050602002810190610f90919061384a565b8490600486610f9f9190613a8f565b92610fac939291906138b7565b90610fb79190613936565b77ffffffffffffffffffffffffffffffffffffffffffffffff191614610fe057610fdf613995565b5b600482610fed9190613a8f565b91507e0171122000000000000000000000000000000000000000000000000000000077ffffffffffffffffffffffffffffffffffffffffffffffff19168d8d8881811061103d5761103c61380c565b5b905060200281019061104f919061384a565b849060058661105e9190613a8f565b9261106b939291906138b7565b906110769190613936565b77ffffffffffffffffffffffffffffffffffffffffffffffff19161461109f5761109e613995565b5b6005826110ac9190613a8f565b91506000861180156110be5750600085115b80156110d557506001856110d29190613b23565b81145b156111e95760008d8d888181106110ef576110ee61380c565b5b9050602002810190611101919061384a565b84906020866111109190613a8f565b9261111d939291906138b7565b906111289190613b57565b90508e811461116c576040517f08c379a000000000000000000000000000000000000000000000000000000000815260040161116390613c02565b60405180910390fd5b60028e8e898181106111815761118061380c565b5b9050602002810190611193919061384a565b6040516111a1929190613606565b602060405180830381855afa1580156111be573d6000803e3d6000fd5b5050506040513d601f19601f820116820180604052508101906111e19190613687565b9e5050611574565b6020826111f69190613a8f565b91505b7f617600000000000000000000000000000000000000000000000000000000000077ffffffffffffffffffffffffffffffffffffffffffffffff19168d8d888181106112485761124761380c565b5b905060200281019061125a919061384a565b84906002866112699190613a8f565b92611276939291906138b7565b906112819190613936565b77ffffffffffffffffffffffffffffffffffffffffffffffff1916146112aa576112a9613995565b5b6002826112b79190613a8f565b91507fd82a58250000000000000000000000000000000000000000000000000000000077ffffffffffffffffffffffffffffffffffffffffffffffff19168d8d888181106113085761130761380c565b5b905060200281019061131a919061384a565b84906004866113299190613a8f565b92611336939291906138b7565b906113419190613936565b77ffffffffffffffffffffffffffffffffffffffffffffffff19161461136a57611369613995565b5b6004826113779190613a8f565b91507e0171122000000000000000000000000000000000000000000000000000000077ffffffffffffffffffffffffffffffffffffffffffffffff19168d8d888181106113c7576113c661380c565b5b90506020028101906113d9919061384a565b84906005866113e89190613a8f565b926113f5939291906138b7565b906114009190613936565b77ffffffffffffffffffffffffffffffffffffffffffffffff19161461142957611428613995565b5b6005826114369190613a8f565b915060008614801561145357506001856114509190613b23565b81145b156115645760008d8d8881811061146d5761146c61380c565b5b905060200281019061147f919061384a565b849060208661148e9190613a8f565b9261149b939291906138b7565b906114a69190613b57565b90508e81146114ea576040517f08c379a00000000000000000000000000000000000000000000000000000000081526004016114e190613c6e565b60405180910390fd5b60028e8e6000818110611500576114ff61380c565b5b9050602002810190611512919061384a565b604051611520929190613606565b602060405180830381855afa15801561153d573d6000803e3d6000fd5b5050506040513d601f19601f820116820180604052508101906115609190613687565b9e50505b6020826115719190613a8f565b91505b8080600101915050610699565b506000851180156115925750600084145b15611a1d577f616c00000000000000000000000000000000000000000000000000000000000077ffffffffffffffffffffffffffffffffffffffffffffffff19168c8c878181106115e6576115e561380c565b5b90506020028101906115f8919061384a565b83906002856116079190613a8f565b92611614939291906138b7565b9061161f9190613936565b77ffffffffffffffffffffffffffffffffffffffffffffffff19161461164857611647613995565b5b6002816116559190613a8f565b90506116c88c8c8781811061166d5761166c61380c565b5b905060200281019061167f919061384a565b8080601f016020809104026020016040519081016040528093929190818152602001838380828437600081840152601f19601f82011690508083019250505050505050826128f5565b15611792577ff60000000000000000000000000000000000000000000000000000000000000077ffffffffffffffffffffffffffffffffffffffffffffffff19168c8c8781811061171c5761171b61380c565b5b905060200281019061172e919061384a565b839060018561173d9190613a8f565b9261174a939291906138b7565b906117559190613936565b77ffffffffffffffffffffffffffffffffffffffffffffffff19161461177e5761177d613995565b5b60018161178b9190613a8f565b9050611a1c565b7fd82a58250000000000000000000000000000000000000000000000000000000077ffffffffffffffffffffffffffffffffffffffffffffffff19168c8c878181106117e1576117e061380c565b5b90506020028101906117f3919061384a565b83906004856118029190613a8f565b9261180f939291906138b7565b9061181a9190613936565b77ffffffffffffffffffffffffffffffffffffffffffffffff19161461184357611842613995565b5b6004816118509190613a8f565b90507e0171122000000000000000000000000000000000000000000000000000000077ffffffffffffffffffffffffffffffffffffffffffffffff19168c8c878181106118a05761189f61380c565b5b90506020028101906118b2919061384a565b83906005856118c19190613a8f565b926118ce939291906138b7565b906118d99190613936565b77ffffffffffffffffffffffffffffffffffffffffffffffff19161461190257611901613995565b5b60058161190f9190613a8f565b905060008c8c878181106119265761192561380c565b5b9050602002810190611938919061384a565b83906020856119479190613a8f565b92611954939291906138b7565b9061195f9190613b57565b90508d81146119a3576040517f08c379a000000000000000000000000000000000000000000000000000000000815260040161199a90613cda565b60405180910390fd5b60028d8d888181106119b8576119b761380c565b5b90506020028101906119ca919061384a565b6040516119d8929190613606565b602060405180830381855afa1580156119f5573d6000803e3d6000fd5b5050506040513d601f19601f82011682018060405250810190611a189190613687565b9d50505b5b5050505080806001019150506104e4565b50878192509250509550959350505050565b7fa56364696400000000000000000000000000000000000000000000000000000077ffffffffffffffffffffffffffffffffffffffffffffffff19168282600090600592611a90939291906138b7565b90611a9b9190613936565b77ffffffffffffffffffffffffffffffffffffffffffffffff191614611ac457611ac3613995565b5b6000600590506000611b1a84848080601f016020809104026020016040519081016040528093929190818152602001838380828437600081840152601f19601f820116905080830192505050505050508361260d565b9091508167ffffffffffffffff16915080935081925050508082611b3e9190613a8f565b91507f637265760000000000000000000000000000000000000000000000000000000077ffffffffffffffffffffffffffffffffffffffffffffffff191684848490600486611b8d9190613a8f565b92611b9a939291906138b7565b90611ba59190613936565b77ffffffffffffffffffffffffffffffffffffffffffffffff191614611bce57611bcd613995565b5b600482611bdb9190613a8f565b9150611c2b84848080601f016020809104026020016040519081016040528093929190818152602001838380828437600081840152601f19601f820116905080830192505050505050508361260d565b9091508167ffffffffffffffff16915080935081925050508082611c4f9190613a8f565b91507f646461746100000000000000000000000000000000000000000000000000000077ffffffffffffffffffffffffffffffffffffffffffffffff191684848490600586611c9e9190613a8f565b92611cab939291906138b7565b90611cb69190613936565b77ffffffffffffffffffffffffffffffffffffffffffffffff191614611cdf57611cde613995565b5b600582611cec9190613a8f565b91507fd82a58250000000000000000000000000000000000000000000000000000000077ffffffffffffffffffffffffffffffffffffffffffffffff191684848490600486611d3b9190613a8f565b92611d48939291906138b7565b90611d539190613936565b77ffffffffffffffffffffffffffffffffffffffffffffffff191614611d7c57611d7b613995565b5b600482611d899190613a8f565b91507e0171122000000000000000000000000000000000000000000000000000000077ffffffffffffffffffffffffffffffffffffffffffffffff191684848490600586611dd79190613a8f565b92611de4939291906138b7565b90611def9190613936565b77ffffffffffffffffffffffffffffffffffffffffffffffff191614611e1857611e17613995565b5b600582611e259190613a8f565b91508484848490602086611e399190613a8f565b92611e46939291906138b7565b90611e519190613b57565b14611e91576040517f08c379a0000000000000000000000000000000000000000000000000000000008152600401611e8890613d6c565b60405180910390fd5b602082611e9e9190613a8f565b91507f647072657600000000000000000000000000000000000000000000000000000077ffffffffffffffffffffffffffffffffffffffffffffffff191684848490600586611eed9190613a8f565b92611efa939291906138b7565b90611f059190613936565b77ffffffffffffffffffffffffffffffffffffffffffffffff191614611f2e57611f2d613995565b5b600582611f3b9190613a8f565b9150611f8b84848080601f016020809104026020016040519081016040528093929190818152602001838380828437600081840152601f19601f82011690508083019250505050505050836128f5565b15611fa457600182611f9d9190613a8f565b9150612060565b7fd82a58250000000000000000000000000000000000000000000000000000000077ffffffffffffffffffffffffffffffffffffffffffffffff191684848490600486611ff19190613a8f565b92611ffe939291906138b7565b906120099190613936565b77ffffffffffffffffffffffffffffffffffffffffffffffff19161461203257612031613995565b5b60048261203f9190613a8f565b915060058261204e9190613a8f565b915060208261205d9190613a8f565b91505b7f6776657273696f6e03000000000000000000000000000000000000000000000076ffffffffffffffffffffffffffffffffffffffffffffff1916848484906009866120ac9190613a8f565b926120b9939291906138b7565b906120c49190613db8565b76ffffffffffffffffffffffffffffffffffffffffffffff19161461211e576040517f08c379a000000000000000000000000000000000000000000000000000000000815260040161211590613e63565b60405180910390fd5b5050505050565b600073ffffffffffffffffffffffffffffffffffffffff168373ffffffffffffffffffffffffffffffffffffffff1603612194576040517f08c379a000000000000000000000000000000000000000000000000000000000815260040161218b90613ecf565b60405180910390fd5b600073ffffffffffffffffffffffffffffffffffffffff166000808573ffffffffffffffffffffffffffffffffffffffff1673ffffffffffffffffffffffffffffffffffffffff16815260200190815260200160002060009054906101000a900473ffffffffffffffffffffffffffffffffffffffff1673ffffffffffffffffffffffffffffffffffffffff16036124755760008373ffffffffffffffffffffffffffffffffffffffff1660001b90508060405161225190612fb2565b8190604051809103906000f5905080158015612271573d6000803e3d6000fd5b506000808673ffffffffffffffffffffffffffffffffffffffff1673ffffffffffffffffffffffffffffffffffffffff16815260200190815260200160002060006101000a81548173ffffffffffffffffffffffffffffffffffffffff021916908373ffffffffffffffffffffffffffffffffffffffff160217905550600073ffffffffffffffffffffffffffffffffffffffff166000808673ffffffffffffffffffffffffffffffffffffffff1673ffffffffffffffffffffffffffffffffffffffff16815260200190815260200160002060009054906101000a900473ffffffffffffffffffffffffffffffffffffffff1673ffffffffffffffffffffffffffffffffffffffff16036123bb576040517f08c379a00000000000000000000000000000000000000000000000000000000081526004016123b290613f3b565b60405180910390fd5b6000808573ffffffffffffffffffffffffffffffffffffffff1673ffffffffffffffffffffffffffffffffffffffff16815260200190815260200160002060009054906101000a900473ffffffffffffffffffffffffffffffffffffffff1673ffffffffffffffffffffffffffffffffffffffff168473ffffffffffffffffffffffffffffffffffffffff167f9f5f38090a53b52fccc9ab2ecccf3e10c222adcad8af17ae2974abeaef68b4cc60405160405180910390a3505b60008060006124c785858080601f016020809104026020016040519081016040528093929190818152602001838380828437600081840152601f19601f82011690508083019250505050505050612961565b9250925092506000808773ffffffffffffffffffffffffffffffffffffffff1673ffffffffffffffffffffffffffffffffffffffff16815260200190815260200160002060009054906101000a900473ffffffffffffffffffffffffffffffffffffffff1673ffffffffffffffffffffffffffffffffffffffff16635e3571f58484846040518463ffffffff1660e01b815260040161256893929190613fb4565b600060405180830381600087803b15801561258257600080fd5b505af1158015612596573d6000803e3d6000fd5b505050508273ffffffffffffffffffffffffffffffffffffffff168673ffffffffffffffffffffffffffffffffffffffff167f2fad25adcdcfc59ef8fa907dd52b92e9e90b92f0e832cbbc5ad141b8e587e4ee848489896040516125fd949392919061401f565b60405180910390a3505050505050565b60008060008061261d8686612a54565b905060018561262c9190613a8f565b94506000600560e0831660ff16901c90506000601f83169050601c8160ff161061268b576040517f08c379a0000000000000000000000000000000000000000000000000000000008152600401612682906140d8565b60405180910390fd5b60188160ff1610156126ae578181888160ff1691509550955095505050506127f8565b60188160ff16036127355760006126c58989612a54565b90506001886126d49190613a8f565b975060188160ff16101561271d576040517f08c379a000000000000000000000000000000000000000000000000000000000815260040161271490614144565b60405180910390fd5b8281898160ff169150965096509650505050506127f8565b60198160ff160361277657600061274c8989612acf565b905060028861275b9190613a8f565b97508281898161ffff169150965096509650505050506127f8565b601a8160ff16036127b957600061278d8989612b39565b905060048861279c9190613a8f565b97508281898163ffffffff169150965096509650505050506127f8565b601b8160ff16146127cd576127cc613995565b5b60006127d98989612ba3565b90506008886127e89190613a8f565b9750828189965096509650505050505b9250925092565b60606000849050600084846128149190613b23565b67ffffffffffffffff81111561282d5761282c614164565b5b6040519080825280601f01601f19166020018201604052801561285f5781602001600182028036833780820191505090505b50905060008590505b848110156128e8578281815181106128835761288261380c565b5b602001015160f81c60f81b82878361289b9190613b23565b815181106128ac576128ab61380c565b5b60200101907effffffffffffffffffffffffffffffffffffffffffffffffffffffffffffff1916908160001a9053508080600101915050612868565b5080925050509392505050565b60007ff60000000000000000000000000000000000000000000000000000000000000083838151811061292b5761292a61380c565b5b602001015160f81c60f81b7effffffffffffffffffffffffffffffffffffffffffffffffffffffffffffff191614905092915050565b6000806060600060089050600060439050600061297f8784846127ff565b90506000612998612993836000602a6127ff565b612c0d565b905060006129a983602b85516127ff565b90506000816040516024016129be9190614193565b6040516020818303038152906040527f6630f88f000000000000000000000000000000000000000000000000000000007bffffffffffffffffffffffffffffffffffffffffffffffffffffffff19166020820180517bffffffffffffffffffffffffffffffffffffffffffffffffffffffff83818316178352505050509050826000829850985098505050505050509193909250565b6000600182612a639190613a8f565b83511015612aa6576040517f08c379a0000000000000000000000000000000000000000000000000000000008152600401612a9d90614201565b60405180910390fd5b828281518110612ab957612ab861380c565b5b602001015160f81c60f81b60f81c905092915050565b6000600282612ade9190613a8f565b83511015612b21576040517f08c379a0000000000000000000000000000000000000000000000000000000008152600401612b1890614201565b60405180910390fd5b60008260200184015190508060f01c91505092915050565b6000600482612b489190613a8f565b83511015612b8b576040517f08c379a0000000000000000000000000000000000000000000000000000000008152600401612b8290614201565b60405180910390fd5b60008260200184015190508060e01c91505092915050565b6000600882612bb29190613a8f565b83511015612bf5576040517f08c379a0000000000000000000000000000000000000000000000000000000008152600401612bec90614201565b60405180910390fd5b60008260200184015190508060c01c91505092915050565b600080829050602a815114612c57576040517f08c379a0000000000000000000000000000000000000000000000000000000008152600401612c4e9061426d565b60405180910390fd5b6000601467ffffffffffffffff811115612c7457612c73614164565b5b6040519080825280601f01601f191660200182016040528015612ca65781602001600182028036833780820191505090505b50905060005b6014811015612d9957612cf383600283612cc6919061428d565b6003612cd29190613a8f565b81518110612ce357612ce261380c565b5b602001015160f81c60f81b612db0565b6010612d3385600285612d06919061428d565b6002612d129190613a8f565b81518110612d2357612d2261380c565b5b602001015160f81c60f81b612db0565b612d3d91906142cf565b612d47919061430c565b60f81b828281518110612d5d57612d5c61380c565b5b60200101907effffffffffffffffffffffffffffffffffffffffffffffffffffffffffffff1916908160001a9053508080600101915050612cac565b5080612da490614392565b60601c92505050919050565b6000808260f81c90507f300000000000000000000000000000000000000000000000000000000000000060f81c60ff168160ff1610158015612e1b57507f390000000000000000000000000000000000000000000000000000000000000060f81c60ff168160ff1611155b15612e57577f300000000000000000000000000000000000000000000000000000000000000060f81c81612e4f91906143f9565b915050612fad565b7f610000000000000000000000000000000000000000000000000000000000000060f81c60ff168160ff1610158015612eb957507f660000000000000000000000000000000000000000000000000000000000000060f81c60ff168160ff1611155b15612f01577f610000000000000000000000000000000000000000000000000000000000000060f81c81600a612eef919061430c565b612ef991906143f9565b915050612fad565b7f410000000000000000000000000000000000000000000000000000000000000060f81c60ff168160ff1610158015612f6357507f460000000000000000000000000000000000000000000000000000000000000060f81c60ff168160ff1611155b15612fab577f410000000000000000000000000000000000000000000000000000000000000060f81c81600a612f99919061430c565b612fa391906143f9565b915050612fad565b505b919050565b6105118061442f83390190565b600080fd5b600080fd5b600080fd5b600080fd5b600080fd5b60008083601f840112612fee57612fed612fc9565b5b8235905067ffffffffffffffff81111561300b5761300a612fce565b5b60208301915083600182028301111561302757613026612fd3565b5b9250929050565b60008083601f84011261304457613043612fc9565b5b8235905067ffffffffffffffff81111561306157613060612fce565b5b60208301915083602082028301111561307d5761307c612fd3565b5b9250929050565b60008083601f84011261309a57613099612fc9565b5b8235905067ffffffffffffffff8111156130b7576130b6612fce565b5b6020830191508360208202830111156130d3576130d2612fd3565b5b9250929050565b600060ff82169050919050565b6130f0816130da565b81146130fb57600080fd5b50565b60008135905061310d816130e7565b92915050565b6000819050919050565b61312681613113565b811461313157600080fd5b50565b6000813590506131438161311d565b92915050565b600080600080600080600080600080600060e08c8e03121561316e5761316d612fbf565b5b60008c013567ffffffffffffffff81111561318c5761318b612fc4565b5b6131988e828f01612fd8565b9b509b505060208c013567ffffffffffffffff8111156131bb576131ba612fc4565b5b6131c78e828f0161302e565b995099505060408c013567ffffffffffffffff8111156131ea576131e9612fc4565b5b6131f68e828f01613084565b975097505060608c013567ffffffffffffffff81111561321957613218612fc4565b5b6132258e828f01612fd8565b955095505060806132388e828f016130fe565b93505060a06132498e828f01613134565b92505060c061325a8e828f01613134565b9150509295989b509295989b9093969950565b6000806000806080858703121561328757613286612fbf565b5b600061329587828801613134565b94505060206132a6878288016130fe565b93505060406132b787828801613134565b92505060606132c887828801613134565b91505092959194509250565b600073ffffffffffffffffffffffffffffffffffffffff82169050919050565b60006132ff826132d4565b9050919050565b61330f816132f4565b82525050565b600060208201905061332a6000830184613306565b92915050565b613339816132f4565b811461334457600080fd5b50565b60008135905061335681613330565b92915050565b60006020828403121561337257613371612fbf565b5b600061338084828501613347565b91505092915050565b6000819050919050565b60006133ae6133a96133a4846132d4565b613389565b6132d4565b9050919050565b60006133c082613393565b9050919050565b60006133d2826133b5565b9050919050565b6133e2816133c7565b82525050565b60006020820190506133fd60008301846133d9565b92915050565b60008060008060006060868803121561341f5761341e612fbf565b5b600061342d88828901613134565b955050602086013567ffffffffffffffff81111561344e5761344d612fc4565b5b61345a8882890161302e565b9450945050604086013567ffffffffffffffff81111561347d5761347c612fc4565b5b61348988828901613084565b92509250509295509295909350565b6134a181613113565b82525050565b600081519050919050565b600082825260208201905092915050565b60005b838110156134e15780820151818401526020810190506134c6565b60008484015250505050565b6000601f19601f8301169050919050565b6000613509826134a7565b61351381856134b2565b93506135238185602086016134c3565b61352c816134ed565b840191505092915050565b600060408201905061354c6000830185613498565b818103602083015261355e81846134fe565b90509392505050565b6000806000604084860312156135805761357f612fbf565b5b600061358e86828701613134565b935050602084013567ffffffffffffffff8111156135af576135ae612fc4565b5b6135bb86828701612fd8565b92509250509250925092565b600081905092915050565b82818337600083830152505050565b60006135ed83856135c7565b93506135fa8385846135d2565b82840190509392505050565b60006136138284866135e1565b91508190509392505050565b600081519050919050565b60006136358261361f565b61363f81856135c7565b935061364f8185602086016134c3565b80840191505092915050565b6000613667828461362a565b915081905092915050565b6000815190506136818161311d565b92915050565b60006020828403121561369d5761369c612fbf565b5b60006136ab84828501613672565b91505092915050565b6136bd816130da565b82525050565b60006080820190506136d86000830187613498565b6136e560208301866136b4565b6136f26040830185613498565b6136ff6060830184613498565b95945050505050565b60007fff0000000000000000000000000000000000000000000000000000000000000082169050919050565b6000819050919050565b61374f61374a82613708565b613734565b82525050565b60008160601b9050919050565b600061376d82613755565b9050919050565b600061377f82613762565b9050919050565b613797613792826132f4565b613774565b82525050565b6000819050919050565b6137b86137b382613113565b61379d565b82525050565b60006137ca828761373e565b6001820191506137da8286613786565b6014820191506137ea82856137a7565b6020820191506137fa82846137a7565b60208201915081905095945050505050565b7f4e487b7100000000000000000000000000000000000000000000000000000000600052603260045260246000fd5b600080fd5b600080fd5b600080fd5b600080833560016020038436030381126138675761386661383b565b5b80840192508235915067ffffffffffffffff82111561388957613888613840565b5b6020830192506001820236038313156138a5576138a4613845565b5b509250929050565b600080fd5b600080fd5b600080858511156138cb576138ca6138ad565b5b838611156138dc576138db6138b2565b5b6001850283019150848603905094509492505050565b600082905092915050565b60007fffffffffffffffff00000000000000000000000000000000000000000000000082169050919050565b600082821b905092915050565b600061394283836138f2565b8261394d81356138fd565b9250600882101561398d576139887fffffffffffffffff00000000000000000000000000000000000000000000000083600803600802613929565b831692505b505092915050565b7f4e487b7100000000000000000000000000000000000000000000000000000000600052600160045260246000fd5b7f48696e7420697320666f7220616e20696e646578206265796f6e64207468652060008201527f656e64206f662074686520656e74726965730000000000000000000000000000602082015250565b6000613a206032836134b2565b9150613a2b826139c4565b604082019050919050565b60006020820190508181036000830152613a4f81613a13565b9050919050565b6000819050919050565b7f4e487b7100000000000000000000000000000000000000000000000000000000600052601160045260246000fd5b6000613a9a82613a56565b9150613aa583613a56565b9250828201905080821115613abd57613abc613a60565b5b92915050565b600081905092915050565b6000613ad9826134a7565b613ae38185613ac3565b9350613af38185602086016134c3565b80840191505092915050565b6000613b0b8285613ace565b9150613b178284613ace565b91508190509392505050565b6000613b2e82613a56565b9150613b3983613a56565b9250828203905081811115613b5157613b50613a60565b5b92915050565b6000613b6383836138f2565b82613b6e8135613113565b92506020821015613bae57613ba97fffffffffffffffffffffffffffffffffffffffffffffffffffffffffffffffff83602003600802613929565b831692505b505092915050565b7f56616c756520646f6573206e6f74206d61746368207461726765740000000000600082015250565b6000613bec601b836134b2565b9150613bf782613bb6565b602082019050919050565b60006020820190508181036000830152613c1b81613bdf565b9050919050565b7f652076616c20646f6573206e6f74206d61746368000000000000000000000000600082015250565b6000613c586014836134b2565b9150613c6382613c22565b602082019050919050565b60006020820190508181036000830152613c8781613c4b565b9050919050565b7f6c2076616c20646f6573206e6f74206d61746368000000000000000000000000600082015250565b6000613cc46014836134b2565b9150613ccf82613c8e565b602082019050919050565b60006020820190508181036000830152613cf381613cb7565b9050919050565b7f44617461206669656c6420646f6573206e6f7420636f6e7461696e206578706560008201527f6374656420686173680000000000000000000000000000000000000000000000602082015250565b6000613d566029836134b2565b9150613d6182613cfa565b604082019050919050565b60006020820190508181036000830152613d8581613d49565b9050919050565b60007fffffffffffffffffff000000000000000000000000000000000000000000000082169050919050565b6000613dc483836138f2565b82613dcf8135613d8c565b92506009821015613e0f57613e0a7fffffffffffffffffff000000000000000000000000000000000000000000000083600903600802613929565b831692505b505092915050565b7f7633206669656c64206e6f7420666f756e640000000000000000000000000000600082015250565b6000613e4d6012836134b2565b9150613e5882613e17565b602082019050919050565b60006020820190508181036000830152613e7c81613e40565b9050919050565b7f5369676e65722073686f756c64206e6f7420626520656d707479000000000000600082015250565b6000613eb9601a836134b2565b9150613ec482613e83565b602082019050919050565b60006020820190508181036000830152613ee881613eac565b9050919050565b7f53616665206e6f74206372656174656400000000000000000000000000000000600082015250565b6000613f256010836134b2565b9150613f3082613eef565b602082019050919050565b60006020820190508181036000830152613f5481613f18565b9050919050565b613f6481613a56565b82525050565b600082825260208201905092915050565b6000613f868261361f565b613f908185613f6a565b9350613fa08185602086016134c3565b613fa9816134ed565b840191505092915050565b6000606082019050613fc96000830186613306565b613fd66020830185613f5b565b8181036040830152613fe88184613f7b565b9050949350505050565b6000613ffe83856134b2565b935061400b8385846135d2565b614014836134ed565b840190509392505050565b60006060820190506140346000830187613f5b565b81810360208301526140468186613f7b565b9050818103604083015261405b818486613ff2565b905095945050505050565b7f63616e6e6f742068616e646c652068656164657273207769746820657874726160008201527f203e203237000000000000000000000000000000000000000000000000000000602082015250565b60006140c26025836134b2565b91506140cd82614066565b604082019050919050565b600060208201905081810360008301526140f1816140b5565b9050919050565b7f696e76616c69642063626f720000000000000000000000000000000000000000600082015250565b600061412e600c836134b2565b9150614139826140f8565b602082019050919050565b6000602082019050818103600083015261415d81614121565b9050919050565b7f4e487b7100000000000000000000000000000000000000000000000000000000600052604160045260246000fd5b600060208201905081810360008301526141ad81846134fe565b905092915050565b7f736c6963696e67206f7574206f662072616e6765000000000000000000000000600082015250565b60006141eb6014836134b2565b91506141f6826141b5565b602082019050919050565b6000602082019050818103600083015261421a816141de565b9050919050565b7f496e76616c69642061646472657373206c656e67746800000000000000000000600082015250565b60006142576016836134b2565b915061426282614221565b602082019050919050565b600060208201905081810360008301526142868161424a565b9050919050565b600061429882613a56565b91506142a383613a56565b92508282026142b181613a56565b915082820484148315176142c8576142c7613a60565b5b5092915050565b60006142da826130da565b91506142e5836130da565b92508282026142f3816130da565b915080821461430557614304613a60565b5b5092915050565b6000614317826130da565b9150614322836130da565b9250828201905060ff81111561433b5761433a613a60565b5b92915050565b6000819050602082019050919050565b60007fffffffffffffffffffffffffffffffffffffffff00000000000000000000000082169050919050565b60006143898251614351565b80915050919050565b600061439d8261361f565b826143a784614341565b90506143b28161437d565b925060148210156143f2576143ed7fffffffffffffffffffffffffffffffffffffffff00000000000000000000000083601403600802613929565b831692505b5050919050565b6000614404826130da565b915061440f836130da565b9250828203905060ff81111561442857614427613a60565b5b9291505056fe6080604052348015600f57600080fd5b50336000806101000a81548173ffffffffffffffffffffffffffffffffffffffff021916908373ffffffffffffffffffffffffffffffffffffffff1602179055506104b28061005f6000396000f3fe608060405234801561001057600080fd5b50600436106100365760003560e01c80635e3571f51461003b5780638da5cb5b14610057575b600080fd5b61005560048036038101906100509190610340565b610075565b005b61005f610114565b60405161006c91906103be565b60405180910390f35b60008054906101000a900473ffffffffffffffffffffffffffffffffffffffff1673ffffffffffffffffffffffffffffffffffffffff163373ffffffffffffffffffffffffffffffffffffffff1614610103576040517f08c379a00000000000000000000000000000000000000000000000000000000081526004016100fa9061045c565b60405180910390fd5b61010e838383610138565b50505050565b60008054906101000a900473ffffffffffffffffffffffffffffffffffffffff1681565b60008060008351602085018688600019f190509392505050565b6000604051905090565b600080fd5b600080fd5b600073ffffffffffffffffffffffffffffffffffffffff82169050919050565b600061019182610166565b9050919050565b6101a181610186565b81146101ac57600080fd5b50565b6000813590506101be81610198565b92915050565b6000819050919050565b6101d7816101c4565b81146101e257600080fd5b50565b6000813590506101f4816101ce565b92915050565b600080fd5b600080fd5b6000601f19601f8301169050919050565b7f4e487b7100000000000000000000000000000000000000000000000000000000600052604160045260246000fd5b61024d82610204565b810181811067ffffffffffffffff8211171561026c5761026b610215565b5b80604052505050565b600061027f610152565b905061028b8282610244565b919050565b600067ffffffffffffffff8211156102ab576102aa610215565b5b6102b482610204565b9050602081019050919050565b82818337600083830152505050565b60006102e36102de84610290565b610275565b9050828152602081018484840111156102ff576102fe6101ff565b5b61030a8482856102c1565b509392505050565b600082601f830112610327576103266101fa565b5b81356103378482602086016102d0565b91505092915050565b6000806000606084860312156103595761035861015c565b5b6000610367868287016101af565b9350506020610378868287016101e5565b925050604084013567ffffffffffffffff81111561039957610398610161565b5b6103a586828701610312565b9150509250925092565b6103b881610186565b82525050565b60006020820190506103d360008301846103af565b92915050565b600082825260208201905092915050565b7f492063616e206f6e6c7920626520636f6e74726f6c6c6564206279207468652060008201527f536b6565744761746577617920746861742063726561746564206d6500000000602082015250565b6000610446603c836103d9565b9150610451826103ea565b604082019050919050565b6000602082019050818103600083015261047581610439565b905091905056fea26469706673582212204027c0150178400c89669176639ea70d577194096572eb55defb908ff9781c2464736f6c634300081c0033a2646970667358221220a09184fa93278c94c540f4e7bc3e5ccb844ebee0dbf345c49134a4414a6c562064736f6c634300081c0033","linkReferences":{}},"methodIdentifiers":{"assertCommitNodeContainsData(bytes32,bytes)":"f9f485b3","handleSkeet(bytes,bytes[],uint256[],bytes,uint8,bytes32,bytes32)":"0b8ff967","merkleProvenRootHash(bytes32,bytes[],uint256[])":"e3e962ac","predictSafeAddress(address)":"9ee0ce27","predictSafeAddressFromSig(bytes32,uint8,bytes32,bytes32)":"c4299c70","predictSignerAddressFromSig(bytes32,uint8,bytes32,bytes32)":"7c4d95a9","signerSafes(address)":"c361a0a5"},"id":28}