{"abi":[{"type":"function","name":"assertCommitNodeContainsData","inputs":[{"name":"proveMe","type":"bytes32","internalType":"bytes32"},{"name":"commitNode","type":"bytes","internalType":"bytes"}],"outputs":[],"stateMutability":"pure"},{"type":"function","name":"handleSkeet","inputs":[{"name":"content","type":"bytes","internalType":"bytes"},{"name":"nodes","type":"bytes[]","internalType":"bytes[]"},{"name":"nodeHints","type":"uint256[]","internalType":"uint256[]"},{"name":"commitNode","type":"bytes","internalType":"bytes"},{"name":"_v","type":"uint8","internalType":"uint8"},{"name":"_r","type":"bytes32","internalType":"bytes32"},{"name":"_s","type":"bytes32","internalType":"bytes32"}],"outputs":[],"stateMutability":"nonpayable"},{"type":"function","name":"merkleProvenRootHash","inputs":[{"name":"proveMe","type":"bytes32","internalType":"bytes32"},{"name":"nodes","type":"bytes[]","internalType":"bytes[]"},{"name":"hints","type":"uint256[]","internalType":"uint256[]"}],"outputs":[{"name":"","type":"bytes32","internalType":"bytes32"},{"name":"","type":"string","internalType":"string"}],"stateMutability":"pure"},{"type":"function","name":"predictSafeAddress","inputs":[{"name":"_signer","type":"address","internalType":"address"}],"outputs":[{"name":"","type":"address","internalType":"address"}],"stateMutability":"view"},{"type":"function","name":"predictSafeAddressFromSig","inputs":[{"name":"sigHash","type":"bytes32","internalType":"bytes32"},{"name":"_v","type":"uint8","internalType":"uint8"},{"name":"_r","type":"bytes32","internalType":"bytes32"},{"name":"_s","type":"bytes32","internalType":"bytes32"}],"outputs":[{"name":"","type":"address","internalType":"address"}],"stateMutability":"view"},{"type":"function","name":"predictSignerAddressFromSig","inputs":[{"name":"sigHash","type":"bytes32","internalType":"bytes32"},{"name":"_v","type":"uint8","internalType":"uint8"},{"name":"_r","type":"bytes32","internalType":"bytes32"},{"name":"_s","type":"bytes32","internalType":"bytes32"}],"outputs":[{"name":"","type":"address","internalType":"address"}],"stateMutability":"pure"},{"type":"function","name":"signerSafes","inputs":[{"name":"","type":"address","internalType":"address"}],"outputs":[{"name":"","type":"address","internalType":"contract SignerSafe"}],"stateMutability":"view"},{"type":"event","name":"LogCreateSignerSafe","inputs":[{"name":"signer","type":"address","indexed":true,"internalType":"address"},{"name":"signerSafe","type":"address","indexed":true,"internalType":"address"}],"anonymous":false},{"type":"event","name":"LogExecutePayload","inputs":[{"name":"signer","type":"address","indexed":true,"internalType":"address"},{"name":"to","type":"address","indexed":true,"internalType":"address"},{"name":"value","type":"uint256","indexed":false,"internalType":"uint256"},{"name":"data","type":"bytes","indexed":false,"internalType":"bytes"},{"name":"payload","type":"string","indexed":false,"internalType":"string"}],"anonymous":false}],"bytecode":{"object":"0x6080604052348015600f57600080fd5b506149cd8061001f6000396000f3fe608060405234801561001057600080fd5b506004361061007d5760003560e01c8063c361a0a51161005b578063c361a0a5146100fe578063c4299c701461012e578063e3e962ac1461015e578063f9f485b31461018f5761007d565b80630b8ff967146100825780637c4d95a91461009e5780639ee0ce27146100ce575b600080fd5b61009c600480360381019061009791906130cd565b6101ab565b005b6100b860048036038101906100b391906131f1565b610324565b6040516100c59190613299565b60405180910390f35b6100e860048036038101906100e391906132e0565b61037f565b6040516100f59190613299565b60405180910390f35b610118600480360381019061011391906132e0565b61040a565b604051610125919061336c565b60405180910390f35b610148600480360381019061014391906131f1565b61043d565b6040516101559190613299565b60405180910390f35b61017860048036038101906101739190613387565b6104dc565b6040516101869291906134bb565b60405180910390f35b6101a960048036038101906101a491906134eb565b611b30565b005b600060028c8c6040516020016101c292919061358a565b6040516020818303038152906040526040516101de91906135df565b602060405180830381855afa1580156101fb573d6000803e3d6000fd5b5050506040513d601f19601f8201168201806040525081019061021e919061360b565b9050600080610230838d8d8d8d6104dc565b9150915061023f828989611b30565b50505060006002868660405160200161025992919061358a565b60405160208183030381529060405260405161027591906135df565b602060405180830381855afa158015610292573d6000803e3d6000fd5b5050506040513d601f19601f820116820180604052508101906102b5919061360b565b90506000600182868686604051600081526020016040526040516102dc9493929190613647565b6020604051602081039080840390855afa1580156102fe573d6000803e3d6000fd5b505050602060405103519050610315818e8e612257565b50505050505050505050505050565b6000600185858585604051600081526020016040526040516103499493929190613647565b6020604051602081039080840390855afa15801561036b573d6000803e3d6000fd5b505050602060405103519050949350505050565b6000808273ffffffffffffffffffffffffffffffffffffffff1660001b9050600060ff60f81b3083604051806020016103b790612f36565b6020820181038252601f19601f82011660405250805190602001206040516020016103e59493929190613742565b6040516020818303038152906040528051906020012090508060001c92505050919050565b60006020528060005260406000206000915054906101000a900473ffffffffffffffffffffffffffffffffffffffff1681565b60008061044c86868686610324565b905060008173ffffffffffffffffffffffffffffffffffffffff1660001b9050600060ff60f81b30836040518060200161048590612f36565b6020820181038252601f19601f82011660405250805190602001206040516020016104b39493929190613742565b6040516020818303038152906040528051906020012090508060001c9350505050949350505050565b600060608060005b87879050811015611b1e57600086868381811061050457610503613790565b5b9050602002013590506000807fa26165000000000000000000000000000000000000000000000000000000000077ffffffffffffffffffffffffffffffffffffffffffffffff19168b8b8681811061055f5761055e613790565b5b905060200281019061057191906137ce565b6000906003926105839392919061383b565b9061058e91906138ba565b77ffffffffffffffffffffffffffffffffffffffffffffffff1916146105b7576105b6613919565b5b60006003905061062e8c8c878181106105d3576105d2613790565b5b90506020028101906105e591906137ce565b8080601f016020809104026020016040519081016040528093929190818152602001838380828437600081840152601f19601f820116905080830192505050505050508261273f565b5080935081925050508167ffffffffffffffff168467ffffffffffffffff16111561068e576040517f08c379a0000000000000000000000000000000000000000000000000000000008152600401610685906139ba565b60405180910390fd5b60008467ffffffffffffffff1611156106a5578391505b60005b8267ffffffffffffffff1681101561162b5760008603610ab9577fa4616b000000000000000000000000000000000000000000000000000000000077ffffffffffffffffffffffffffffffffffffffffffffffff19168d8d8881811061071157610710613790565b5b905060200281019061072391906137ce565b8463ffffffff16906003866107389190613a19565b63ffffffff169261074b9392919061383b565b9061075691906138ba565b77ffffffffffffffffffffffffffffffffffffffffffffffff19161461077f5761077e613919565b5b60038261078c9190613a19565b91506107ff8d8d888181106107a4576107a3613790565b5b90506020028101906107b691906137ce565b8080601f016020809104026020016040519081016040528093929190818152602001838380828437600081840152601f19601f820116905080830192505050505050508361273f565b50809550819350505060008d8d8881811061081d5761081c613790565b5b905060200281019061082f91906137ce565b8463ffffffff1690878663ffffffff166108499190613a65565b67ffffffffffffffff16926108609392919061383b565b8080601f016020809104026020016040519081016040528093929190818152602001838380828437600081840152601f19601f82011690508083019250505050505050905084836108b19190613a19565b92506109248e8e898181106108c9576108c8613790565b5b90506020028101906108db91906137ce565b8080601f016020809104026020016040519081016040528093929190818152602001838380828437600081840152601f19601f820116905080830192505050505050508461273f565b50809650819450505060008e8e8981811061094257610941613790565b5b905060200281019061095491906137ce565b8563ffffffff1690888763ffffffff1661096e9190613a65565b67ffffffffffffffff16926109859392919061383b565b8080601f016020809104026020016040519081016040528093929190818152602001838380828437600081840152601f19601f82011690508083019250505050505050905085846109d69190613a19565b9350610a498f8f8a8181106109ee576109ed613790565b5b9050602002810190610a0091906137ce565b8080601f016020809104026020016040519081016040528093929190818152602001838380828437600081840152601f19601f820116905080830192505050505050508561273f565b9091505080965050600184610a5e9190613a19565b9350600086905060008160ff1603610a7857829950610ab1565b6000610a898b60008460ff1661278b565b90508084604051602001610a9e929190613add565b6040516020818303038152906040529a50505b505050610d54565b7fa4616b000000000000000000000000000000000000000000000000000000000077ffffffffffffffffffffffffffffffffffffffffffffffff19168d8d88818110610b0857610b07613790565b5b9050602002810190610b1a91906137ce565b8463ffffffff1690600386610b2f9190613a19565b63ffffffff1692610b429392919061383b565b90610b4d91906138ba565b77ffffffffffffffffffffffffffffffffffffffffffffffff191614610b7657610b75613919565b5b600382610b839190613a19565b9150610bf68d8d88818110610b9b57610b9a613790565b5b9050602002810190610bad91906137ce565b8080601f016020809104026020016040519081016040528093929190818152602001838380828437600081840152601f19601f820116905080830192505050505050508361273f565b5080955081935050508382610c0b9190613a19565b91507f617000000000000000000000000000000000000000000000000000000000000077ffffffffffffffffffffffffffffffffffffffffffffffff19168d8d88818110610c5c57610c5b613790565b5b9050602002810190610c6e91906137ce565b8463ffffffff1690600286610c839190613a19565b63ffffffff1692610c969392919061383b565b90610ca191906138ba565b77ffffffffffffffffffffffffffffffffffffffffffffffff191614610cca57610cc9613919565b5b600282610cd79190613a19565b9150610d4a8d8d88818110610cef57610cee613790565b5b9050602002810190610d0191906137ce565b8080601f016020809104026020016040519081016040528093929190818152602001838380828437600081840152601f19601f820116905080830192505050505050508361273f565b5080955081935050505b7f617400000000000000000000000000000000000000000000000000000000000077ffffffffffffffffffffffffffffffffffffffffffffffff19168d8d88818110610da357610da2613790565b5b9050602002810190610db591906137ce565b8463ffffffff1690600286610dca9190613a19565b63ffffffff1692610ddd9392919061383b565b90610de891906138ba565b77ffffffffffffffffffffffffffffffffffffffffffffffff191614610e1157610e10613919565b5b600282610e1e9190613a19565b9150610e918d8d88818110610e3657610e35613790565b5b9050602002810190610e4891906137ce565b8080601f016020809104026020016040519081016040528093929190818152602001838380828437600081840152601f19601f8201169050808301925050505050505083612881565b15610f67577ff60000000000000000000000000000000000000000000000000000000000000077ffffffffffffffffffffffffffffffffffffffffffffffff19168d8d88818110610ee557610ee4613790565b5b9050602002810190610ef791906137ce565b8463ffffffff1690600186610f0c9190613a19565b63ffffffff1692610f1f9392919061383b565b90610f2a91906138ba565b77ffffffffffffffffffffffffffffffffffffffffffffffff191614610f5357610f52613919565b5b600182610f609190613a19565b9150611269565b7fd82a58250000000000000000000000000000000000000000000000000000000077ffffffffffffffffffffffffffffffffffffffffffffffff19168d8d88818110610fb657610fb5613790565b5b9050602002810190610fc891906137ce565b8463ffffffff1690600486610fdd9190613a19565b63ffffffff1692610ff09392919061383b565b90610ffb91906138ba565b77ffffffffffffffffffffffffffffffffffffffffffffffff19161461102457611023613919565b5b6004826110319190613a19565b91507e0171122000000000000000000000000000000000000000000000000000000077ffffffffffffffffffffffffffffffffffffffffffffffff19168d8d8881811061108157611080613790565b5b905060200281019061109391906137ce565b8463ffffffff16906005866110a89190613a19565b63ffffffff16926110bb9392919061383b565b906110c691906138ba565b77ffffffffffffffffffffffffffffffffffffffffffffffff1916146110ef576110ee613919565b5b6005826110fc9190613a19565b9150600086118015611118575060008567ffffffffffffffff16115b8015611139575060018561112c9190613b01565b67ffffffffffffffff1681145b156112595760008d8d8881811061115357611152613790565b5b905060200281019061116591906137ce565b8463ffffffff169060208661117a9190613a19565b63ffffffff169261118d9392919061383b565b906111989190613b3d565b90508e81146111dc576040517f08c379a00000000000000000000000000000000000000000000000000000000081526004016111d390613be8565b60405180910390fd5b60028e8e898181106111f1576111f0613790565b5b905060200281019061120391906137ce565b60405161121192919061358a565b602060405180830381855afa15801561122e573d6000803e3d6000fd5b5050506040513d601f19601f82011682018060405250810190611251919061360b565b9e505061161e565b6020826112669190613a19565b91505b7f617600000000000000000000000000000000000000000000000000000000000077ffffffffffffffffffffffffffffffffffffffffffffffff19168d8d888181106112b8576112b7613790565b5b90506020028101906112ca91906137ce565b8463ffffffff16906002866112df9190613a19565b63ffffffff16926112f29392919061383b565b906112fd91906138ba565b77ffffffffffffffffffffffffffffffffffffffffffffffff19161461132657611325613919565b5b6002826113339190613a19565b91507fd82a58250000000000000000000000000000000000000000000000000000000077ffffffffffffffffffffffffffffffffffffffffffffffff19168d8d8881811061138457611383613790565b5b905060200281019061139691906137ce565b8463ffffffff16906004866113ab9190613a19565b63ffffffff16926113be9392919061383b565b906113c991906138ba565b77ffffffffffffffffffffffffffffffffffffffffffffffff1916146113f2576113f1613919565b5b6004826113ff9190613a19565b91507e0171122000000000000000000000000000000000000000000000000000000077ffffffffffffffffffffffffffffffffffffffffffffffff19168d8d8881811061144f5761144e613790565b5b905060200281019061146191906137ce565b8463ffffffff16906005866114769190613a19565b63ffffffff16926114899392919061383b565b9061149491906138ba565b77ffffffffffffffffffffffffffffffffffffffffffffffff1916146114bd576114bc613919565b5b6005826114ca9190613a19565b91506000861480156114f157506001856114e49190613b01565b67ffffffffffffffff1681145b1561160e5760008d8d8881811061150b5761150a613790565b5b905060200281019061151d91906137ce565b8463ffffffff16906020866115329190613a19565b63ffffffff16926115459392919061383b565b906115509190613b3d565b90508e8114611594576040517f08c379a000000000000000000000000000000000000000000000000000000000815260040161158b90613c54565b60405180910390fd5b60028e8e60008181106115aa576115a9613790565b5b90506020028101906115bc91906137ce565b6040516115ca92919061358a565b602060405180830381855afa1580156115e7573d6000803e3d6000fd5b5050506040513d601f19601f8201168201806040525081019061160a919061360b565b9e50505b60208261161b9190613a19565b91505b80806001019150506106a8565b50600085118015611646575060008467ffffffffffffffff16145b15611b0d577f616c00000000000000000000000000000000000000000000000000000000000077ffffffffffffffffffffffffffffffffffffffffffffffff19168c8c8781811061169a57611699613790565b5b90506020028101906116ac91906137ce565b8363ffffffff16906002856116c19190613a19565b63ffffffff16926116d49392919061383b565b906116df91906138ba565b77ffffffffffffffffffffffffffffffffffffffffffffffff19161461170857611707613919565b5b6002816117159190613a19565b90506117888c8c8781811061172d5761172c613790565b5b905060200281019061173f91906137ce565b8080601f016020809104026020016040519081016040528093929190818152602001838380828437600081840152601f19601f8201169050808301925050505050505082612881565b1561185e577ff60000000000000000000000000000000000000000000000000000000000000077ffffffffffffffffffffffffffffffffffffffffffffffff19168c8c878181106117dc576117db613790565b5b90506020028101906117ee91906137ce565b8363ffffffff16906001856118039190613a19565b63ffffffff16926118169392919061383b565b9061182191906138ba565b77ffffffffffffffffffffffffffffffffffffffffffffffff19161461184a57611849613919565b5b6001816118579190613a19565b9050611b0c565b7fd82a58250000000000000000000000000000000000000000000000000000000077ffffffffffffffffffffffffffffffffffffffffffffffff19168c8c878181106118ad576118ac613790565b5b90506020028101906118bf91906137ce565b8363ffffffff16906004856118d49190613a19565b63ffffffff16926118e79392919061383b565b906118f291906138ba565b77ffffffffffffffffffffffffffffffffffffffffffffffff19161461191b5761191a613919565b5b6004816119289190613a19565b90507e0171122000000000000000000000000000000000000000000000000000000077ffffffffffffffffffffffffffffffffffffffffffffffff19168c8c8781811061197857611977613790565b5b905060200281019061198a91906137ce565b8363ffffffff169060058561199f9190613a19565b63ffffffff16926119b29392919061383b565b906119bd91906138ba565b77ffffffffffffffffffffffffffffffffffffffffffffffff1916146119e6576119e5613919565b5b6005816119f39190613a19565b905060008c8c87818110611a0a57611a09613790565b5b9050602002810190611a1c91906137ce565b8363ffffffff1690602085611a319190613a19565b63ffffffff1692611a449392919061383b565b90611a4f9190613b3d565b90508d8114611a93576040517f08c379a0000000000000000000000000000000000000000000000000000000008152600401611a8a90613cc0565b60405180910390fd5b60028d8d88818110611aa857611aa7613790565b5b9050602002810190611aba91906137ce565b604051611ac892919061358a565b602060405180830381855afa158015611ae5573d6000803e3d6000fd5b5050506040513d601f19601f82011682018060405250810190611b08919061360b565b9d50505b5b5050505080806001019150506104e4565b50878192509250509550959350505050565b7fa56364696400000000000000000000000000000000000000000000000000000077ffffffffffffffffffffffffffffffffffffffffffffffff19168282600090600592611b809392919061383b565b90611b8b91906138ba565b77ffffffffffffffffffffffffffffffffffffffffffffffff191614611bb457611bb3613919565b5b6000600590506000611c0a84848080601f016020809104026020016040519081016040528093929190818152602001838380828437600081840152601f19601f820116905080830192505050505050508361273f565b5080925081935050508082611c1f9190613a19565b91507f637265760000000000000000000000000000000000000000000000000000000077ffffffffffffffffffffffffffffffffffffffffffffffff191684848463ffffffff1690600486611c749190613a19565b63ffffffff1692611c879392919061383b565b90611c9291906138ba565b77ffffffffffffffffffffffffffffffffffffffffffffffff191614611cbb57611cba613919565b5b600482611cc89190613a19565b9150611d1884848080601f016020809104026020016040519081016040528093929190818152602001838380828437600081840152601f19601f820116905080830192505050505050508361273f565b5080925081935050508082611d2d9190613a19565b91507f646461746100000000000000000000000000000000000000000000000000000077ffffffffffffffffffffffffffffffffffffffffffffffff191684848463ffffffff1690600586611d829190613a19565b63ffffffff1692611d959392919061383b565b90611da091906138ba565b77ffffffffffffffffffffffffffffffffffffffffffffffff191614611dc957611dc8613919565b5b600582611dd69190613a19565b91507fd82a58250000000000000000000000000000000000000000000000000000000077ffffffffffffffffffffffffffffffffffffffffffffffff191684848463ffffffff1690600486611e2b9190613a19565b63ffffffff1692611e3e9392919061383b565b90611e4991906138ba565b77ffffffffffffffffffffffffffffffffffffffffffffffff191614611e7257611e71613919565b5b600482611e7f9190613a19565b91507e0171122000000000000000000000000000000000000000000000000000000077ffffffffffffffffffffffffffffffffffffffffffffffff191684848463ffffffff1690600586611ed39190613a19565b63ffffffff1692611ee69392919061383b565b90611ef191906138ba565b77ffffffffffffffffffffffffffffffffffffffffffffffff191614611f1a57611f19613919565b5b600582611f279190613a19565b91508484848463ffffffff1690602086611f419190613a19565b63ffffffff1692611f549392919061383b565b90611f5f9190613b3d565b14611f9f576040517f08c379a0000000000000000000000000000000000000000000000000000000008152600401611f9690613d52565b60405180910390fd5b602082611fac9190613a19565b91507f647072657600000000000000000000000000000000000000000000000000000077ffffffffffffffffffffffffffffffffffffffffffffffff191684848463ffffffff16906005866120019190613a19565b63ffffffff16926120149392919061383b565b9061201f91906138ba565b77ffffffffffffffffffffffffffffffffffffffffffffffff19161461204857612047613919565b5b6005826120559190613a19565b91506120a584848080601f016020809104026020016040519081016040528093929190818152602001838380828437600081840152601f19601f8201169050808301925050505050505083612881565b156120be576001826120b79190613a19565b9150612186565b7fd82a58250000000000000000000000000000000000000000000000000000000077ffffffffffffffffffffffffffffffffffffffffffffffff191684848463ffffffff16906004866121119190613a19565b63ffffffff16926121249392919061383b565b9061212f91906138ba565b77ffffffffffffffffffffffffffffffffffffffffffffffff19161461215857612157613919565b5b6004826121659190613a19565b91506005826121749190613a19565b91506020826121839190613a19565b91505b7f6776657273696f6e03000000000000000000000000000000000000000000000076ffffffffffffffffffffffffffffffffffffffffffffff191684848463ffffffff16906009866121d89190613a19565b63ffffffff16926121eb9392919061383b565b906121f69190613d9e565b76ffffffffffffffffffffffffffffffffffffffffffffff191614612250576040517f08c379a000000000000000000000000000000000000000000000000000000000815260040161224790613e49565b60405180910390fd5b5050505050565b600073ffffffffffffffffffffffffffffffffffffffff168373ffffffffffffffffffffffffffffffffffffffff16036122c6576040517f08c379a00000000000000000000000000000000000000000000000000000000081526004016122bd90613eb5565b60405180910390fd5b600073ffffffffffffffffffffffffffffffffffffffff166000808573ffffffffffffffffffffffffffffffffffffffff1673ffffffffffffffffffffffffffffffffffffffff16815260200190815260200160002060009054906101000a900473ffffffffffffffffffffffffffffffffffffffff1673ffffffffffffffffffffffffffffffffffffffff16036125a75760008373ffffffffffffffffffffffffffffffffffffffff1660001b90508060405161238390612f36565b8190604051809103906000f59050801580156123a3573d6000803e3d6000fd5b506000808673ffffffffffffffffffffffffffffffffffffffff1673ffffffffffffffffffffffffffffffffffffffff16815260200190815260200160002060006101000a81548173ffffffffffffffffffffffffffffffffffffffff021916908373ffffffffffffffffffffffffffffffffffffffff160217905550600073ffffffffffffffffffffffffffffffffffffffff166000808673ffffffffffffffffffffffffffffffffffffffff1673ffffffffffffffffffffffffffffffffffffffff16815260200190815260200160002060009054906101000a900473ffffffffffffffffffffffffffffffffffffffff1673ffffffffffffffffffffffffffffffffffffffff16036124ed576040517f08c379a00000000000000000000000000000000000000000000000000000000081526004016124e490613f21565b60405180910390fd5b6000808573ffffffffffffffffffffffffffffffffffffffff1673ffffffffffffffffffffffffffffffffffffffff16815260200190815260200160002060009054906101000a900473ffffffffffffffffffffffffffffffffffffffff1673ffffffffffffffffffffffffffffffffffffffff168473ffffffffffffffffffffffffffffffffffffffff167f9f5f38090a53b52fccc9ab2ecccf3e10c222adcad8af17ae2974abeaef68b4cc60405160405180910390a3505b60008060006125f985858080601f016020809104026020016040519081016040528093929190818152602001838380828437600081840152601f19601f8201169050808301925050505050505061289e565b9250925092506000808773ffffffffffffffffffffffffffffffffffffffff1673ffffffffffffffffffffffffffffffffffffffff16815260200190815260200160002060009054906101000a900473ffffffffffffffffffffffffffffffffffffffff1673ffffffffffffffffffffffffffffffffffffffff16635e3571f58484846040518463ffffffff1660e01b815260040161269a93929190613fa4565b600060405180830381600087803b1580156126b457600080fd5b505af11580156126c8573d6000803e3d6000fd5b505050508273ffffffffffffffffffffffffffffffffffffffff168673ffffffffffffffffffffffffffffffffffffffff167f2fad25adcdcfc59ef8fa907dd52b92e9e90b92f0e832cbbc5ad141b8e587e4ee8484898960405161272f949392919061400f565b60405180910390a3505050505050565b60008060008061274f8686612991565b8092508196505050600560ff168160ff16901c91506000601f821690506127778787836129ad565b809550819750505085945050509250925092565b60606000849050600084846127a09190614056565b67ffffffffffffffff8111156127b9576127b861408a565b5b6040519080825280601f01601f1916602001820160405280156127eb5781602001600182028036833780820191505090505b50905060008590505b848110156128745782818151811061280f5761280e613790565b5b602001015160f81c60f81b8287836128279190614056565b8151811061283857612837613790565b5b60200101907effffffffffffffffffffffffffffffffffffffffffffffffffffffffffffff1916908160001a90535080806001019150506127f4565b5080925050509392505050565b60006016600760051b178260208501015160001a14905092915050565b600080606060006008905060006043905060006128bc87848461278b565b905060006128d56128d0836000602a61278b565b612b04565b905060006128e683602b855161278b565b90506000816040516024016128fb91906140b9565b6040516020818303038152906040527f6630f88f000000000000000000000000000000000000000000000000000000007bffffffffffffffffffffffffffffffffffffffffffffffffffffffff19166020820180517bffffffffffffffffffffffffffffffffffffffffffffffffffffffff83818316178352505050509050826000829850985098505050505050509193909250565b6000808260208501015160f81c90506001830191509250929050565b600080601860ff168360ff1610156129d05783838060ff16905091509150612afc565b601860ff168360ff1603612a4e5760006129ea8686612991565b8092508196505050601860ff168160ff161015612a3c576040517f08c379a0000000000000000000000000000000000000000000000000000000008152600401612a339061414d565b60405180910390fd5b84818060ff1690509250925050612afc565b601960ff168360ff1603612a7657612a668585612ca7565b8061ffff16905091509150612afc565b601a60ff168360ff1603612aa057612a8e8585612cc3565b8063ffffffff16905091509150612afc565b601b60ff168360ff1603612ac157612ab88585612cdf565b91509150612afc565b6040517f08c379a0000000000000000000000000000000000000000000000000000000008152600401612af3906141b9565b60405180910390fd5b935093915050565b600080829050602a815114612b4e576040517f08c379a0000000000000000000000000000000000000000000000000000000008152600401612b4590614225565b60405180910390fd5b6000601467ffffffffffffffff811115612b6b57612b6a61408a565b5b6040519080825280601f01601f191660200182016040528015612b9d5781602001600182028036833780820191505090505b50905060005b6014811015612c9057612bea83600283612bbd9190614245565b6003612bc99190614287565b81518110612bda57612bd9613790565b5b602001015160f81c60f81b612cfb565b6010612c2a85600285612bfd9190614245565b6002612c099190614287565b81518110612c1a57612c19613790565b5b602001015160f81c60f81b612cfb565b612c3491906142bb565b612c3e91906142f8565b60f81b828281518110612c5457612c53613790565b5b60200101907effffffffffffffffffffffffffffffffffffffffffffffffffffffffffffff1916908160001a9053508080600101915050612ba3565b5080612c9b9061437e565b60601c92505050919050565b6000808260208501015160f01c90506002830191509250929050565b6000808260208501015160e01c90506004830191509250929050565b6000808260208501015160c01c90506008830191509250929050565b6000808260f81c90507f300000000000000000000000000000000000000000000000000000000000000060f81c60ff168160ff1610158015612d6657507f390000000000000000000000000000000000000000000000000000000000000060f81c60ff168160ff1611155b15612da2577f300000000000000000000000000000000000000000000000000000000000000060f81c81612d9a91906143e5565b915050612f31565b7f610000000000000000000000000000000000000000000000000000000000000060f81c60ff168160ff1610158015612e0457507f660000000000000000000000000000000000000000000000000000000000000060f81c60ff168160ff1611155b15612e4c577f610000000000000000000000000000000000000000000000000000000000000060f81c81600a612e3a91906142f8565b612e4491906143e5565b915050612f31565b7f410000000000000000000000000000000000000000000000000000000000000060f81c60ff168160ff1610158015612eae57507f460000000000000000000000000000000000000000000000000000000000000060f81c60ff168160ff1611155b15612ef6577f410000000000000000000000000000000000000000000000000000000000000060f81c81600a612ee491906142f8565b612eee91906143e5565b915050612f31565b6040517f08c379a0000000000000000000000000000000000000000000000000000000008152600401612f2890614466565b60405180910390fd5b919050565b6105118061448783390190565b600080fd5b600080fd5b600080fd5b600080fd5b600080fd5b60008083601f840112612f7257612f71612f4d565b5b8235905067ffffffffffffffff811115612f8f57612f8e612f52565b5b602083019150836001820283011115612fab57612faa612f57565b5b9250929050565b60008083601f840112612fc857612fc7612f4d565b5b8235905067ffffffffffffffff811115612fe557612fe4612f52565b5b60208301915083602082028301111561300157613000612f57565b5b9250929050565b60008083601f84011261301e5761301d612f4d565b5b8235905067ffffffffffffffff81111561303b5761303a612f52565b5b60208301915083602082028301111561305757613056612f57565b5b9250929050565b600060ff82169050919050565b6130748161305e565b811461307f57600080fd5b50565b6000813590506130918161306b565b92915050565b6000819050919050565b6130aa81613097565b81146130b557600080fd5b50565b6000813590506130c7816130a1565b92915050565b600080600080600080600080600080600060e08c8e0312156130f2576130f1612f43565b5b60008c013567ffffffffffffffff8111156131105761310f612f48565b5b61311c8e828f01612f5c565b9b509b505060208c013567ffffffffffffffff81111561313f5761313e612f48565b5b61314b8e828f01612fb2565b995099505060408c013567ffffffffffffffff81111561316e5761316d612f48565b5b61317a8e828f01613008565b975097505060608c013567ffffffffffffffff81111561319d5761319c612f48565b5b6131a98e828f01612f5c565b955095505060806131bc8e828f01613082565b93505060a06131cd8e828f016130b8565b92505060c06131de8e828f016130b8565b9150509295989b509295989b9093969950565b6000806000806080858703121561320b5761320a612f43565b5b6000613219878288016130b8565b945050602061322a87828801613082565b935050604061323b878288016130b8565b925050606061324c878288016130b8565b91505092959194509250565b600073ffffffffffffffffffffffffffffffffffffffff82169050919050565b600061328382613258565b9050919050565b61329381613278565b82525050565b60006020820190506132ae600083018461328a565b92915050565b6132bd81613278565b81146132c857600080fd5b50565b6000813590506132da816132b4565b92915050565b6000602082840312156132f6576132f5612f43565b5b6000613304848285016132cb565b91505092915050565b6000819050919050565b600061333261332d61332884613258565b61330d565b613258565b9050919050565b600061334482613317565b9050919050565b600061335682613339565b9050919050565b6133668161334b565b82525050565b6000602082019050613381600083018461335d565b92915050565b6000806000806000606086880312156133a3576133a2612f43565b5b60006133b1888289016130b8565b955050602086013567ffffffffffffffff8111156133d2576133d1612f48565b5b6133de88828901612fb2565b9450945050604086013567ffffffffffffffff81111561340157613400612f48565b5b61340d88828901613008565b92509250509295509295909350565b61342581613097565b82525050565b600081519050919050565b600082825260208201905092915050565b60005b8381101561346557808201518184015260208101905061344a565b60008484015250505050565b6000601f19601f8301169050919050565b600061348d8261342b565b6134978185613436565b93506134a7818560208601613447565b6134b081613471565b840191505092915050565b60006040820190506134d0600083018561341c565b81810360208301526134e28184613482565b90509392505050565b60008060006040848603121561350457613503612f43565b5b6000613512868287016130b8565b935050602084013567ffffffffffffffff81111561353357613532612f48565b5b61353f86828701612f5c565b92509250509250925092565b600081905092915050565b82818337600083830152505050565b6000613571838561354b565b935061357e838584613556565b82840190509392505050565b6000613597828486613565565b91508190509392505050565b600081519050919050565b60006135b9826135a3565b6135c3818561354b565b93506135d3818560208601613447565b80840191505092915050565b60006135eb82846135ae565b915081905092915050565b600081519050613605816130a1565b92915050565b60006020828403121561362157613620612f43565b5b600061362f848285016135f6565b91505092915050565b6136418161305e565b82525050565b600060808201905061365c600083018761341c565b6136696020830186613638565b613676604083018561341c565b613683606083018461341c565b95945050505050565b60007fff0000000000000000000000000000000000000000000000000000000000000082169050919050565b6000819050919050565b6136d36136ce8261368c565b6136b8565b82525050565b60008160601b9050919050565b60006136f1826136d9565b9050919050565b6000613703826136e6565b9050919050565b61371b61371682613278565b6136f8565b82525050565b6000819050919050565b61373c61373782613097565b613721565b82525050565b600061374e82876136c2565b60018201915061375e828661370a565b60148201915061376e828561372b565b60208201915061377e828461372b565b60208201915081905095945050505050565b7f4e487b7100000000000000000000000000000000000000000000000000000000600052603260045260246000fd5b600080fd5b600080fd5b600080fd5b600080833560016020038436030381126137eb576137ea6137bf565b5b80840192508235915067ffffffffffffffff82111561380d5761380c6137c4565b5b602083019250600182023603831315613829576138286137c9565b5b509250929050565b600080fd5b600080fd5b6000808585111561384f5761384e613831565b5b838611156138605761385f613836565b5b6001850283019150848603905094509492505050565b600082905092915050565b60007fffffffffffffffff00000000000000000000000000000000000000000000000082169050919050565b600082821b905092915050565b60006138c68383613876565b826138d18135613881565b925060088210156139115761390c7fffffffffffffffff000000000000000000000000000000000000000000000000836008036008026138ad565b831692505b505092915050565b7f4e487b7100000000000000000000000000000000000000000000000000000000600052600160045260246000fd5b7f48696e7420697320666f7220616e20696e646578206265796f6e64207468652060008201527f656e64206f662074686520656e74726965730000000000000000000000000000602082015250565b60006139a4603283613436565b91506139af82613948565b604082019050919050565b600060208201905081810360008301526139d381613997565b9050919050565b600063ffffffff82169050919050565b7f4e487b7100000000000000000000000000000000000000000000000000000000600052601160045260246000fd5b6000613a24826139da565b9150613a2f836139da565b9250828201905063ffffffff811115613a4b57613a4a6139ea565b5b92915050565b600067ffffffffffffffff82169050919050565b6000613a7082613a51565b9150613a7b83613a51565b9250828201905067ffffffffffffffff811115613a9b57613a9a6139ea565b5b92915050565b600081905092915050565b6000613ab78261342b565b613ac18185613aa1565b9350613ad1818560208601613447565b80840191505092915050565b6000613ae98285613aac565b9150613af58284613aac565b91508190509392505050565b6000613b0c82613a51565b9150613b1783613a51565b9250828203905067ffffffffffffffff811115613b3757613b366139ea565b5b92915050565b6000613b498383613876565b82613b548135613097565b92506020821015613b9457613b8f7fffffffffffffffffffffffffffffffffffffffffffffffffffffffffffffffff836020036008026138ad565b831692505b505092915050565b7f56616c756520646f6573206e6f74206d61746368207461726765740000000000600082015250565b6000613bd2601b83613436565b9150613bdd82613b9c565b602082019050919050565b60006020820190508181036000830152613c0181613bc5565b9050919050565b7f652076616c20646f6573206e6f74206d61746368000000000000000000000000600082015250565b6000613c3e601483613436565b9150613c4982613c08565b602082019050919050565b60006020820190508181036000830152613c6d81613c31565b9050919050565b7f6c2076616c20646f6573206e6f74206d61746368000000000000000000000000600082015250565b6000613caa601483613436565b9150613cb582613c74565b602082019050919050565b60006020820190508181036000830152613cd981613c9d565b9050919050565b7f44617461206669656c6420646f6573206e6f7420636f6e7461696e206578706560008201527f6374656420686173680000000000000000000000000000000000000000000000602082015250565b6000613d3c602983613436565b9150613d4782613ce0565b604082019050919050565b60006020820190508181036000830152613d6b81613d2f565b9050919050565b60007fffffffffffffffffff000000000000000000000000000000000000000000000082169050919050565b6000613daa8383613876565b82613db58135613d72565b92506009821015613df557613df07fffffffffffffffffff0000000000000000000000000000000000000000000000836009036008026138ad565b831692505b505092915050565b7f7633206669656c64206e6f7420666f756e640000000000000000000000000000600082015250565b6000613e33601283613436565b9150613e3e82613dfd565b602082019050919050565b60006020820190508181036000830152613e6281613e26565b9050919050565b7f5369676e65722073686f756c64206e6f7420626520656d707479000000000000600082015250565b6000613e9f601a83613436565b9150613eaa82613e69565b602082019050919050565b60006020820190508181036000830152613ece81613e92565b9050919050565b7f53616665206e6f74206372656174656400000000000000000000000000000000600082015250565b6000613f0b601083613436565b9150613f1682613ed5565b602082019050919050565b60006020820190508181036000830152613f3a81613efe565b9050919050565b6000819050919050565b613f5481613f41565b82525050565b600082825260208201905092915050565b6000613f76826135a3565b613f808185613f5a565b9350613f90818560208601613447565b613f9981613471565b840191505092915050565b6000606082019050613fb9600083018661328a565b613fc66020830185613f4b565b8181036040830152613fd88184613f6b565b9050949350505050565b6000613fee8385613436565b9350613ffb838584613556565b61400483613471565b840190509392505050565b60006060820190506140246000830187613f4b565b81810360208301526140368186613f6b565b9050818103604083015261404b818486613fe2565b905095945050505050565b600061406182613f41565b915061406c83613f41565b9250828203905081811115614084576140836139ea565b5b92915050565b7f4e487b7100000000000000000000000000000000000000000000000000000000600052604160045260246000fd5b600060208201905081810360008301526140d38184613482565b905092915050565b7f696e76616c6964207479706520617267756d656e74202873696e676c652d627960008201527f74652076616c756520746f6f206c6f7729000000000000000000000000000000602082015250565b6000614137603183613436565b9150614142826140db565b604082019050919050565b600060208201905081810360008301526141668161412a565b9050919050565b7f6d696e6f7220756e737570706f72746564000000000000000000000000000000600082015250565b60006141a3601183613436565b91506141ae8261416d565b602082019050919050565b600060208201905081810360008301526141d281614196565b9050919050565b7f496e76616c69642061646472657373206c656e67746800000000000000000000600082015250565b600061420f601683613436565b915061421a826141d9565b602082019050919050565b6000602082019050818103600083015261423e81614202565b9050919050565b600061425082613f41565b915061425b83613f41565b925082820261426981613f41565b915082820484148315176142805761427f6139ea565b5b5092915050565b600061429282613f41565b915061429d83613f41565b92508282019050808211156142b5576142b46139ea565b5b92915050565b60006142c68261305e565b91506142d18361305e565b92508282026142df8161305e565b91508082146142f1576142f06139ea565b5b5092915050565b60006143038261305e565b915061430e8361305e565b9250828201905060ff811115614327576143266139ea565b5b92915050565b6000819050602082019050919050565b60007fffffffffffffffffffffffffffffffffffffffff00000000000000000000000082169050919050565b6000614375825161433d565b80915050919050565b6000614389826135a3565b826143938461432d565b905061439e81614369565b925060148210156143de576143d97fffffffffffffffffffffffffffffffffffffffff000000000000000000000000836014036008026138ad565b831692505b5050919050565b60006143f08261305e565b91506143fb8361305e565b9250828203905060ff811115614414576144136139ea565b5b92915050565b7f756e726561636861626c65000000000000000000000000000000000000000000600082015250565b6000614450600b83613436565b915061445b8261441a565b602082019050919050565b6000602082019050818103600083015261447f81614443565b905091905056fe6080604052348015600f57600080fd5b50336000806101000a81548173ffffffffffffffffffffffffffffffffffffffff021916908373ffffffffffffffffffffffffffffffffffffffff1602179055506104b28061005f6000396000f3fe608060405234801561001057600080fd5b50600436106100365760003560e01c80635e3571f51461003b5780638da5cb5b14610057575b600080fd5b61005560048036038101906100509190610340565b610075565b005b61005f610114565b60405161006c91906103be565b60405180910390f35b60008054906101000a900473ffffffffffffffffffffffffffffffffffffffff1673ffffffffffffffffffffffffffffffffffffffff163373ffffffffffffffffffffffffffffffffffffffff1614610103576040517f08c379a00000000000000000000000000000000000000000000000000000000081526004016100fa9061045c565b60405180910390fd5b61010e838383610138565b50505050565b60008054906101000a900473ffffffffffffffffffffffffffffffffffffffff1681565b60008060008351602085018688600019f190509392505050565b6000604051905090565b600080fd5b600080fd5b600073ffffffffffffffffffffffffffffffffffffffff82169050919050565b600061019182610166565b9050919050565b6101a181610186565b81146101ac57600080fd5b50565b6000813590506101be81610198565b92915050565b6000819050919050565b6101d7816101c4565b81146101e257600080fd5b50565b6000813590506101f4816101ce565b92915050565b600080fd5b600080fd5b6000601f19601f8301169050919050565b7f4e487b7100000000000000000000000000000000000000000000000000000000600052604160045260246000fd5b61024d82610204565b810181811067ffffffffffffffff8211171561026c5761026b610215565b5b80604052505050565b600061027f610152565b905061028b8282610244565b919050565b600067ffffffffffffffff8211156102ab576102aa610215565b5b6102b482610204565b9050602081019050919050565b82818337600083830152505050565b60006102e36102de84610290565b610275565b9050828152602081018484840111156102ff576102fe6101ff565b5b61030a8482856102c1565b509392505050565b600082601f830112610327576103266101fa565b5b81356103378482602086016102d0565b91505092915050565b6000806000606084860312156103595761035861015c565b5b6000610367868287016101af565b9350506020610378868287016101e5565b925050604084013567ffffffffffffffff81111561039957610398610161565b5b6103a586828701610312565b9150509250925092565b6103b881610186565b82525050565b60006020820190506103d360008301846103af565b92915050565b600082825260208201905092915050565b7f492063616e206f6e6c7920626520636f6e74726f6c6c6564206279207468652060008201527f536b6565744761746577617920746861742063726561746564206d6500000000602082015250565b6000610446603c836103d9565b9150610451826103ea565b604082019050919050565b6000602082019050818103600083015261047581610439565b905091905056fea26469706673582212204027c0150178400c89669176639ea70d577194096572eb55defb908ff9781c2464736f6c634300081c0033a26469706673582212206faf2f46f784ca1a2dd448f5d9482d2028e5422a43f4821ce04149450b0279ea64736f6c634300081c0033","linkReferences":{}},"methodIdentifiers":{"assertCommitNodeContainsData(bytes32,bytes)":"f9f485b3","handleSkeet(bytes,bytes[],uint256[],bytes,uint8,bytes32,bytes32)":"0b8ff967","merkleProvenRootHash(bytes32,bytes[],uint256[])":"e3e962ac","predictSafeAddress(address)":"9ee0ce27","predictSafeAddressFromSig(bytes32,uint8,bytes32,bytes32)":"c4299c70","predictSignerAddressFromSig(bytes32,uint8,bytes32,bytes32)":"7c4d95a9","signerSafes(address)":"c361a0a5"},"id":29}