{"abi":[{"type":"function","name":"handleSkeet","inputs":[{"name":"signer","type":"address","internalType":"address"},{"name":"r","type":"bytes32","internalType":"bytes32"},{"name":"s","type":"bytes32","internalType":"bytes32"},{"name":"commit","type":"bytes","internalType":"bytes"},{"name":"treeNodes","type":"bytes[]","internalType":"bytes[]"},{"name":"target","type":"bytes","internalType":"bytes"},{"name":"collection","type":"string","internalType":"string"},{"name":"rkey","type":"string","internalType":"string"}],"outputs":[],"stateMutability":"nonpayable"},{"type":"function","name":"signerSafes","inputs":[{"name":"","type":"address","internalType":"address"}],"outputs":[{"name":"","type":"address","internalType":"contract SignerSafe"}],"stateMutability":"view"},{"type":"event","name":"LogCreateSignerSafe","inputs":[{"name":"signer","type":"address","indexed":true,"internalType":"address"},{"name":"signerSafe","type":"address","indexed":true,"internalType":"address"}],"anonymous":false},{"type":"event","name":"LogExecutePayload","inputs":[{"name":"signer","type":"address","indexed":true,"internalType":"address"},{"name":"to","type":"address","indexed":true,"internalType":"address"},{"name":"value","type":"uint256","indexed":false,"internalType":"uint256"},{"name":"data","type":"bytes","indexed":false,"internalType":"bytes"},{"name":"payload","type":"string","indexed":false,"internalType":"string"}],"anonymous":false}],"bytecode":{"object":"0x60808060405234601557611beb908161001b8239f35b600080fdfe6080604052600436101561001257600080fd5b60003560e01c806378b0efad146100375763c361a0a51461003257600080fd5b610297565b346101015761010036600319011261010157610051610106565b602435906044356064356001600160401b038111610101576100779036906004016101bd565b6084356001600160401b03811161010157610096903690600401610219565b60a4356001600160401b038111610101576100b59036906004016101bd565b9160c4356001600160401b038111610101576100d59036906004016101bd565b9360e435966001600160401b038811610101576100f96100ff9836906004016101bd565b966103c4565b005b600080fd5b600435906001600160a01b038216820361010157565b634e487b7160e01b600052604160045260246000fd5b604081019081106001600160401b0382111761014d57604052565b61011c565b90601f801991011681019081106001600160401b0382111761014d57604052565b60405190610182604083610152565b565b60405190610182606083610152565b60405190610182608083610152565b6001600160401b03811161014d57601f01601f191660200190565b81601f82011215610101576020813591016101d7826101a2565b926101e56040519485610152565b828452828201116101015781600092602092838601378301015290565b6001600160401b03811161014d5760051b60200190565b9080601f8301121561010157813561023081610202565b9261023e6040519485610152565b81845260208085019260051b820101918383116101015760208201905b83821061026a57505050505090565b81356001600160401b0381116101015760209161028c878480948801016101bd565b81520191019061025b565b34610101576020366003190112610101576001600160a01b036102b8610106565b166000526000602052602060018060a01b0360406000205416604051908152f35b60005b8381106102ec5750506000910152565b81810151838201526020016102dc565b9061030f602092828151948592016102d9565b0190565b6040513d6000823e3d90fd5b1561010157565b1561032d57565b60405162461bcd60e51b815260206004820152601a60248201527f5369676e65722073686f756c64206e6f7420626520656d7074790000000000006044820152606490fd5b6001610182919392936020604051958261039588945180928580880191016102d9565b8301602f60f81b838201526103b382518093856021850191016102d9565b01010301601f198101845283610152565b96919593929560206000604051806103dc818c6102fc565b039060025afa1561048e576020916000916104178351916040519384938460609194939260808201958252601c602083015260408201520152565b838052039060015afa1561048e57604061047c61046b6104859461046661048b9a61045f61044c60005160018060a01b031690565b6001600160a01b0390921691821461031f565b1515610326565b6104ac565b96610477885151610581565b6106e9565b50015192610372565b926109a4565b50565b610313565b604051906104a082610132565b60606020838281520152565b906104b5610493565b506104be610493565b506104cb82511515610b2c565b6104d58251610b78565b916104e081516108cc565b9060005b8151811015610561576020600061050b6104fe8486610926565b51604051918280926102fc565b039060025afa1561048e576001906000516105268286610926565b5261055b61053d6105378386610926565b516111fe565b90610548848a610926565b526105538386610926565b515114610bc8565b016104e4565b50509161057e9192610571610173565b9182526020820152610c82565b90565b60008091604051602081019163f82c50f160e01b83526024820152602481526105ab604482610152565b51906a636f6e736f6c652e6c6f675afa50565b6040519060a082018281106001600160401b0382111761014d576040526000608083606081528260208201528260408201526060808201520152565b1561060157565b60405162461bcd60e51b815260206004820152601b60248201527f65787065637465642035206669656c647320696e20636f6d6d697400000000006044820152606490fd5b1561064d57565b60405162461bcd60e51b815260206004820152602260248201527f636f6d6d69742064696420737472696e67206d75737420626520333220627974604482015261657360f01b6064820152608490fd5b156106a457565b60405162461bcd60e51b815260206004820152601f60248201527f636f6d6d69742076657273696f6e206e756d626572206d7573742062652033006044820152606490fd5b906001600160401b03916000906107086107016105be565b9282610d32565b941690610717600583146105fa565b6000915b808310610729575050509190565b9091946107369083610d86565b9081906001600160c81b03198116663b32b939b4b7b760c91b0361078d57505061077e95610785600360ff61076d60019588611031565b60ff9190911660208a01819052909a565b161461069d565b01919061071b565b6001600160d81b03198116636461746160e01b81036107c1575050506107b560019184610f8d565b96906040860152610785565b63383932bb60e11b036107e85750506107dc60019184610f57565b96906080860152610785565b6001600160e01b03191662191a5960ea1b810361082457505060209561081f61081360019386610e95565b98908088525114610646565b610785565b909150623932bb60e91b0361084b5761083f60019184610e95565b96906060860152610785565b60405162461bcd60e51b815260206004820152601760248201527f756e657870656374656420636f6d6d6974206669656c640000000000000000006044820152606490fd5b6040519061089d82610132565b6060602083600081520152565b604080519091906108bb8382610152565b6001815291601f1901366020840137565b906108d682610202565b6108e36040519182610152565b82815280926108f4601f1991610202565b0190602036910137565b634e487b7160e01b600052603260045260246000fd5b8051156109215760200190565b6108fe565b80518210156109215760209160051b010190565b6040916020825261095a81518092816020860152602086860191016102d9565b601f01601f1916010190565b1561096d57565b60405162461bcd60e51b815260206004820152600f60248201526e6475706c696361746520656e74727960881b6044820152606490fd5b939092936109b0610890565b506000602060006109c88196604051918280926102fc565b039060025afa1561048e5791600095919551926109e36108aa565b956109ed87610914565b525b855115610b2257610a0a90610a0387610914565b51886110a1565b80979115610b0e57610a1d908251610926565b51906020820197610a2f8951516108cc565b9360005b8a518051821015610ae657610a4a82604092610926565b510151610a578288610926565b52878b6040516020810190610a7e81610a708d8561093a565b03601f198101835282610152565b519020610a8c848351610926565b5151604051610aa381610a7060208201948561093a565b51902014610ab6575b5050600101610a33565b610ac38360209251610926565b51015114610ad3575b878b610aac565b97610ade9015610966565b600197610acc565b505097909391949850610b039251610afd82610914565b52611136565b945b909591956109ef565b5091959094610b1c906110e1565b94610b05565b5094505050905090565b15610b3357565b60405162461bcd60e51b815260206004820152601760248201527f54726565206d75737420636f6e7461696e206e6f6465730000000000000000006044820152606490fd5b90610b8282610202565b610b8f6040519182610152565b8281528092610ba0601f1991610202565b019060005b828110610bb157505050565b602090610bbc610890565b82828501015201610ba5565b15610bcf57565b60405162461bcd60e51b815260206004820152601a60248201527f657870656374656420746f207265616420616c6c2062797465730000000000006044820152606490fd5b634e487b7160e01b600052601160045260246000fd5b9060018201809211610c3857565b610c14565b9060088201809211610c3857565b9060048201809211610c3857565b9060028201809211610c3857565b90601f8201809211610c3857565b91908201809211610c3857565b90610c8b610493565b5060005b602083019081518051821015610d2d5781610ca991610926565b519260018201808311610c38575b855151811015610d2057610ccc818551610926565b518514610cdb57600101610cb7565b60405162461bcd60e51b815260206004820152601860248201527f6e6f64652063696473206d75737420626520756e6971756500000000000000006044820152606490fd5b5092506001915001610c8f565b505050565b610d416005939260ff9261136e565b94919290921603610d50579190565b60405162461bcd60e51b815260206004820152600e60248201526d065787065637465642061206d61760941b6044820152606490fd5b6003610d9560ff94938361136e565b9291959095161480610e1d575b15610dcc576001600160401b0361057e926020836000198860031b1c199201015116941690610c75565b60405162461bcd60e51b815260206004820152602360248201527f657870656374656420737472696e67206c656e677468206f662037206f72206c60448201526265737360e81b6064820152608490fd5b5060076001600160401b0385161115610da2565b60405190610e40602083610152565b6000808352366020840137565b90610e57826101a2565b610e646040519182610152565b82815280926108f4601f19916101a2565b908151811015610921570160200190565b6000198114610c385760010190565b60ff610ea36003938361136e565b94919290921603610f22576001600160401b031690610ec182610e4d565b93839260005b610ed18287610c75565b851015610f1457610f0c600191610ef9610eeb8888610e75565b516001600160f81b03191690565b60001a610f06828b610e75565b53610e86565b940193610ec7565b5091509261057e9250610c75565b60405162461bcd60e51b815260206004820152600d60248201526c195e1c1958dd1959081d195e1d609a1b6044820152606490fd5b60f6610f638383610e75565b5160f81c14610f7a5790610f7691610f8d565b9091565b509060018201809211610c385760009190565b90809291016806c152c128000b889160bd1b68ffffffffffffffffff60b81b60208301511603610fd55760098301809311610c38576029015160208301809311610c38579190565b60405162461bcd60e51b815260206004820152602e60248201527f6578706563746564204349447631206461672d63626f7220736861323536206860448201526d65616465722073657175656e636560901b6064820152608490fd5b60ff929161103e9161136e565b9390911661104d5760ff169190565b60405162461bcd60e51b815260206004820152602660248201527f696e76616c6964206d616a6f7220286578706563746564204d616a6f72556e7360448201526569676e65642960d01b6064820152608490fd5b92915b602084015180518210156110d4576110bd828492610926565b51146110cb576001016110a4565b92505060019190565b5050509050600090600090565b9081516000198101908111610c38576110f9906108cc565b9160015b8151811015611132576111108183610926565b5160001982019190818311610c385761112b60019387610926565b52016110fd565b5050565b805182518101809111610c385761114c906108cc565b9260005b8251811015611178578061116660019285610926565b516111718288610926565b5201611150565b509160005b8151811015610d2d576111908183610926565b5190835191818301809311610c38576111ab60019388610926565b520161117d565b156111b957565b60405162461bcd60e51b815260206004820152601960248201527f65787065637465642032206669656c647320696e206e6f6465000000000000006044820152606490fd5b906001600160401b0391600090611216610701610890565b941690611225600283146111b2565b6000915b808310611237575050509190565b909194611244908361187f565b9081906001600160f81b031916601b60fa1b810361127757505061126a60019184610f57565b969085525b019190611229565b909150606560f81b036112a55761129b9561129460019285611515565b979061167b565b602086015261126f565b60405162461bcd60e51b81526020600482015260156024820152741d5b995e1c1958dd1959081b9bd91948199a595b19605a1b6044820152606490fd5b156112e957565b60405162461bcd60e51b815260206004820152605160248201527f616e20657874656e64656420686561646572206d757374206e6f7420636f6e7460448201527f61696e20612076616c7565207468617420776f756c642066697420696e736964606482015270329030903737b936b0b6103432b0b232b960791b608482015260a490fd5b909161138f611389611383610eeb8686610e75565b60f81c90565b93610c2a565b91601f600585901c60071694169060188210156113ab57509190565b90928360188296951460001461140457506113cc611389916113d293611854565b60ff1690565b915b60186001600160401b038516108015906113f7575b6113f2906112e2565b929190565b5060ff81166007146113e9565b60198103611430575061141d6114249161142a93611836565b61ffff1690565b93610c59565b916113d4565b601a810361145857506114496114529161142a93611818565b63ffffffff1690565b93610c4b565b601b141590506114755761146f8461142a926117f4565b93610c3d565b60405162461bcd60e51b815260206004820152603760248201527f756e737570706f7274656420686561646572206d696e6f72203e32372e20286e60448201527f6f20696e646566696e6974652073657175656e636573290000000000000000006064820152608490fd5b60405190608082018281106001600160401b0382111761014d5760405260006060838281528160208201528260408201520152565b600461152460ff94938361136e565b929195909516036115ba57926001600160401b031661154281610202565b916115506040519384610152565b818352601f1961155f83610202565b0160005b8181106115a3575050906000915b81831061157f575050509190565b90919461158e600191836119a1565b969061159a8287610926565b52019190611571565b6020906115ae6114e0565b82828801015201611563565b60405162461bcd60e51b8152602060048201526011602482015270657870656374656420616e20617272617960781b6044820152606490fd5b906115fd82610202565b61160a6040519182610152565b828152809261161b601f1991610202565b0160005b81811061162b57505050565b6040519060608201918083106001600160401b0384111761014d5760209260405260608152600083820152600060408201528282860101520161161f565b60ff601f9116019060ff8211610c3857565b61168581516115f3565b61168d610e31565b906000915b83518310156117aa576116b06116a88486610926565b515160ff1690565b9060206116bd8587610926565b510151916116d76116d2845160ff8416610c75565b610e4d565b926116f06113cc6116e784611669565b60051c60071690565b6117036116fd8351610c67565b60051c90565b9360005b8281106117905750505060005b8381106117745750505050600190604061172e8587610926565b510151606061173d8688610926565b510151611748610184565b91838352602083015260408201526117608585610926565b5261176b8484610926565b50920191611692565b8060019160051b60208082860101519186018801015201611714565b8060019160051b6020808286010151918a01015201611707565b5091505090565b156117b857565b60405162461bcd60e51b8152602060048201526014602482015273736c6963696e67206f7574206f662072616e676560601b6044820152606490fd5b908151916008820192838311610c38576020936118129110156117b1565b01015190565b908151916004820192838311610c38576020936118129110156117b1565b908151916002820192838311610c38576020936118129110156117b1565b908151916001820192838311610c3857611878936118739110156117b1565b610e75565b5160f81c90565b60ff61188e600394938361136e565b95919290921603611905576001600160401b0316600181036118c0576118ba610eeb8561057e94610e75565b93610c75565b60405162461bcd60e51b815260206004820152601b60248201527f657870656374656420737472696e67206c656e677468206f66203100000000006044820152606490fd5b60405162461bcd60e51b815260206004820152602260248201527f696e76616c6964206d616a6f7220286578706563746564204d616a6f72546578604482015261742960f01b6064820152608490fd5b1561195c57565b60405162461bcd60e51b815260206004820152601f60248201527f65787065637465642034206669656c647320696e206e6f646520656e747279006044820152606490fd5b6119bd6001600160401b0393926119b66114e0565b5082610d32565b9316906119cc60048314611955565b60009160606000916000936000915b808310611a0c575050506119f96119f0610193565b60ff9095168552565b6020840152604083015260608201529190565b90919597611a1a908361187f565b989089906001600160f81b031916600760fc1b8103611a4e57505050611a4260019883611031565b9890965b0191906119db565b91979491606b60f81b8103611a7457505050611a6c60019883611b06565b989093611a46565b94969194909190601d60fa1b8103611a9d57505050611a9560019883610f57565b989095611a46565b919950959450603b60f91b03611ac157611ab960019883610f57565b989094611a46565b60405162461bcd60e51b815260206004820152601b60248201527f756e6578706563746564206e6f646520656e747279206669656c6400000000006044820152606490fd5b60ff611b146002938361136e565b94919290921603611b64576001600160401b031690611b3282610e4d565b93839260005b611b428287610c75565b851015610f1457611b5c600191610ef9610eeb8888610e75565b940193611b38565b60405162461bcd60e51b815260206004820152602360248201527f696e76616c6964206d616a6f7220286578706563746564204d616a6f7242797460448201526265732960e81b6064820152608490fdfea2646970667358221220d063c1075b5a97c3859374a370934934f314a2fa867a104781097885c50e388264736f6c634300081c0033","linkReferences":{}},"methodIdentifiers":{"handleSkeet(address,bytes32,bytes32,bytes,bytes[],bytes,string,string)":"78b0efad","signerSafes(address)":"c361a0a5"},"id":32}