{"abi":[{"type":"function","name":"handleSkeet","inputs":[{"name":"_v","type":"uint8","internalType":"uint8"},{"name":"_r","type":"bytes32","internalType":"bytes32"},{"name":"_s","type":"bytes32","internalType":"bytes32"},{"name":"commit","type":"bytes","internalType":"bytes"},{"name":"treeNodes","type":"bytes[]","internalType":"bytes[]"},{"name":"target","type":"bytes","internalType":"bytes"},{"name":"collection","type":"string","internalType":"string"},{"name":"rkey","type":"string","internalType":"string"}],"outputs":[],"stateMutability":"nonpayable"},{"type":"function","name":"predictSafeAddress","inputs":[{"name":"sigHash","type":"bytes32","internalType":"bytes32"},{"name":"_v","type":"uint8","internalType":"uint8"},{"name":"_r","type":"bytes32","internalType":"bytes32"},{"name":"_s","type":"bytes32","internalType":"bytes32"}],"outputs":[{"name":"","type":"address","internalType":"address"}],"stateMutability":"view"},{"type":"function","name":"predictSignerAddress","inputs":[{"name":"sigHash","type":"bytes32","internalType":"bytes32"},{"name":"_v","type":"uint8","internalType":"uint8"},{"name":"_r","type":"bytes32","internalType":"bytes32"},{"name":"_s","type":"bytes32","internalType":"bytes32"}],"outputs":[{"name":"","type":"address","internalType":"address"}],"stateMutability":"pure"},{"type":"function","name":"signerSafes","inputs":[{"name":"","type":"address","internalType":"address"}],"outputs":[{"name":"","type":"address","internalType":"contract SignerSafe"}],"stateMutability":"view"},{"type":"function","name":"verifyMerkleProof","inputs":[{"name":"proofHashes","type":"bytes32[]","internalType":"bytes32[]"}],"outputs":[],"stateMutability":"nonpayable"},{"type":"event","name":"LogCreateSignerSafe","inputs":[{"name":"signer","type":"address","indexed":true,"internalType":"address"},{"name":"signerSafe","type":"address","indexed":true,"internalType":"address"}],"anonymous":false},{"type":"event","name":"LogExecutePayload","inputs":[{"name":"signer","type":"address","indexed":true,"internalType":"address"},{"name":"to","type":"address","indexed":true,"internalType":"address"},{"name":"value","type":"uint256","indexed":false,"internalType":"uint256"},{"name":"data","type":"bytes","indexed":false,"internalType":"bytes"},{"name":"payload","type":"string","indexed":false,"internalType":"string"}],"anonymous":false}],"bytecode":{"object":"0x6080604052348015600f57600080fd5b50610aba8061001f6000396000f3fe608060405234801561001057600080fd5b50600436106100575760003560e01c8063595d72531461005c57806366d0b83814610071578063c361a0a514610082578063cdbec9f2146100c7578063fe127586146100da575b600080fd5b61006f61006a36600461055c565b6100ed565b005b61006f61007f36600461066c565b50565b6100ab610090366004610702565b6000602081905290815260409020546001600160a01b031681565b6040516001600160a01b03909116815260200160405180910390f35b6100ab6100d5366004610732565b6101ac565b6100ab6100e8366004610732565b610214565b60006002866040516020016101029190610791565b60408051601f198184030181529082905261011c91610791565b602060405180830381855afa158015610139573d6000803e3d6000fd5b5050506040513d601f19601f8201168201806040525081019061015c91906107ad565b905061016a8960ff166102d7565b6101738861031c565b61017c8761031c565b6101858161031c565b61018f85516102d7565b61019883610361565b6101a182610361565b505050505050505050565b6040805160008082526020820180845287905260ff861692820192909252606081018490526080810183905260019060a0016020604051602081039080840390855afa158015610200573d6000803e3d6000fd5b5050604051601f1901519695505050505050565b600080610223868686866101ac565b6040519091506001600160a01b038216906000906001600160f81b03199030908490610251602082016103c5565b6020820181038252601f19601f82011660405250805190602001206040516020016102b394939291906001600160f81b031994909416845260609290921b6bffffffffffffffffffffffff191660018401526015830152603582015260550190565b60408051808303601f19018152919052805160209091012098975050505050505050565b61007f816040516024016102ed91815260200190565b60408051601f198184030181529190526020810180516001600160e01b031663f82c50f160e01b1790526103a0565b61007f8160405160240161033291815260200190565b60408051601f198184030181529190526020810180516001600160e01b03166327b7cf8560e01b1790526103a0565b61007f8160405160240161037591906107c6565b60408051601f198184030181529190526020810180516001600160e01b031663104c13eb60e21b1790525b61007f8160006a636f6e736f6c652e6c6f679050600080835160208501845afa505050565b61028b806107fa83390190565b803560ff811681146103e357600080fd5b919050565b634e487b7160e01b600052604160045260246000fd5b604051601f8201601f1916810167ffffffffffffffff81118282101715610427576104276103e8565b604052919050565b600082601f83011261044057600080fd5b81356020830160008067ffffffffffffffff841115610461576104616103e8565b50601f8301601f1916602001610476816103fe565b91505082815285838301111561048b57600080fd5b82826020830137600092810160200192909252509392505050565b600067ffffffffffffffff8211156104c0576104c06103e8565b5060051b60200190565b600082601f8301126104db57600080fd5b81356104ee6104e9826104a6565b6103fe565b8082825260208201915060208360051b86010192508583111561051057600080fd5b602085015b8381101561055257803567ffffffffffffffff81111561053457600080fd5b610543886020838a010161042f565b84525060209283019201610515565b5095945050505050565b600080600080600080600080610100898b03121561057957600080fd5b610582896103d2565b97506020890135965060408901359550606089013567ffffffffffffffff8111156105ac57600080fd5b6105b88b828c0161042f565b955050608089013567ffffffffffffffff8111156105d557600080fd5b6105e18b828c016104ca565b94505060a089013567ffffffffffffffff8111156105fe57600080fd5b61060a8b828c0161042f565b93505060c089013567ffffffffffffffff81111561062757600080fd5b6106338b828c0161042f565b92505060e089013567ffffffffffffffff81111561065057600080fd5b61065c8b828c0161042f565b9150509295985092959890939650565b60006020828403121561067e57600080fd5b813567ffffffffffffffff81111561069557600080fd5b8201601f810184136106a657600080fd5b80356106b46104e9826104a6565b8082825260208201915060208360051b8501019250868311156106d657600080fd5b6020840193505b828410156106f85783358252602093840193909101906106dd565b9695505050505050565b60006020828403121561071457600080fd5b81356001600160a01b038116811461072b57600080fd5b9392505050565b6000806000806080858703121561074857600080fd5b84359350610758602086016103d2565b93969395505050506040820135916060013590565b60005b83811015610788578181015183820152602001610770565b50506000910152565b600082516107a381846020870161076d565b9190910192915050565b6000602082840312156107bf57600080fd5b5051919050565b60208152600082518060208401526107e581604085016020870161076d565b601f01601f1916919091016040019291505056fe6080604052348015600f57600080fd5b50600080546001600160a01b0319163317905561025a806100316000396000f3fe608060405234801561001057600080fd5b50600436106100365760003560e01c80635e3571f51461003b5780638da5cb5b14610050575b600080fd5b61004e610049366004610143565b61007f565b005b600054610063906001600160a01b031681565b6040516001600160a01b03909116815260200160405180910390f35b6000546001600160a01b031633146101035760405162461bcd60e51b815260206004820152603c60248201527f492063616e206f6e6c7920626520636f6e74726f6c6c6564206279207468652060448201527f536b6565744761746577617920746861742063726561746564206d6500000000606482015260840160405180910390fd5b61010e838383610114565b50505050565b60008060008351602085018688600019f1949350505050565b634e487b7160e01b600052604160045260246000fd5b60008060006060848603121561015857600080fd5b83356001600160a01b038116811461016f57600080fd5b925060208401359150604084013567ffffffffffffffff81111561019257600080fd5b8401601f810186136101a357600080fd5b803567ffffffffffffffff8111156101bd576101bd61012d565b604051601f8201601f19908116603f0116810167ffffffffffffffff811182821017156101ec576101ec61012d565b60405281815282820160200188101561020457600080fd5b81602084016020830137600060208383010152809350505050925092509256fea2646970667358221220923997497b09627dd7d8fdb60c83f13ba70eebf8d4706db939566baa8816e21664736f6c634300081c0033a2646970667358221220c45b3c6b1d83b3f68b064c321a6e6917aa784736f5acde62a7cc3e554b72d0ac64736f6c634300081c0033","linkReferences":{}},"methodIdentifiers":{"handleSkeet(uint8,bytes32,bytes32,bytes,bytes[],bytes,string,string)":"595d7253","predictSafeAddress(bytes32,uint8,bytes32,bytes32)":"fe127586","predictSignerAddress(bytes32,uint8,bytes32,bytes32)":"cdbec9f2","signerSafes(address)":"c361a0a5","verifyMerkleProof(bytes32[])":"66d0b838"},"id":27}