{"abi":[{"type":"function","name":"messages","inputs":[{"name":"","type":"address","internalType":"address"}],"outputs":[{"name":"","type":"string","internalType":"string"}],"stateMutability":"view"},{"type":"function","name":"postMessage","inputs":[{"name":"message","type":"string","internalType":"string"}],"outputs":[],"stateMutability":"nonpayable"}],"bytecode":{"object":"0x60808060405234601557610394908161001b8239f35b600080fdfe608080604052600436101561001357600080fd5b60003560e01c9081635fdd59f8146101e35750636630f88f1461003557600080fd5b346101de5760203660031901126101de5760043567ffffffffffffffff81116101de57366023820112156101de57806004013567ffffffffffffffff81116101c8576040519161008f601f8301601f19166020018461033c565b81835236602483830101116101de578160009260246020930183860137830101523360005260006020526040600020815167ffffffffffffffff81116101c8576100d98254610302565b601f8111610180575b50602092601f82116001146101205792819293600092610115575b5050600019600383901b1c191660019190911b179055005b0151905038806100fd565b601f1982169383600052806000209160005b868110610168575083600195961061014f575b505050811b019055005b015160001960f88460031b161c19169055388080610145565b91926020600181928685015181550194019201610132565b826000526020600020601f830160051c810191602084106101be575b601f0160051c01905b8181106101b257506100e2565b600081556001016101a5565b909150819061019c565b634e487b7160e01b600052604160045260246000fd5b600080fd5b346101de5760203660031901126101de576004356001600160a01b038116908190036101de576000526000602052604060002081600082549261022584610302565b80845293600181169081156102e05750600114610299575b5061024a9250038261033c565b60405190602082528181519182602083015260005b8381106102815750508160006040809484010152601f80199101168101030190f35b6020828201810151604087840101528593500161025f565b90506000929192526020600020906000915b8183106102c457505090602061024a928201018461023d565b60209193508060019154838588010152019101909183926102ab565b90506020925061024a94915060ff191682840152151560051b8201018461023d565b90600182811c92168015610332575b602083101461031c57565b634e487b7160e01b600052602260045260246000fd5b91607f1691610311565b90601f8019910116810190811067ffffffffffffffff8211176101c85760405256fea26469706673582212209d023e1875bd47c5eab4be48aa0df96732af8f03f158fa3a22ab9801814060f264736f6c634300081c0033","linkReferences":{}},"methodIdentifiers":{"messages(address)":"5fdd59f8","postMessage(string)":"6630f88f"},"id":28}