{"abi":[{"type":"constructor","inputs":[],"stateMutability":"nonpayable"},{"type":"function","name":"addBot","inputs":[{"name":"subdomain","type":"string","internalType":"string"},{"name":"domain","type":"string","internalType":"string"},{"name":"parser","type":"address","internalType":"address"}],"outputs":[],"stateMutability":"nonpayable"},{"type":"function","name":"addDomain","inputs":[{"name":"domain","type":"string","internalType":"string"},{"name":"domainOwner","type":"address","internalType":"address"}],"outputs":[],"stateMutability":"nonpayable"},{"type":"function","name":"assertCommitNodeContainsData","inputs":[{"name":"proveMe","type":"bytes32","internalType":"bytes32"},{"name":"commitNode","type":"bytes","internalType":"bytes"}],"outputs":[],"stateMutability":"pure"},{"type":"function","name":"bots","inputs":[{"name":"","type":"bytes32","internalType":"bytes32"}],"outputs":[{"name":"domain","type":"string","internalType":"string"},{"name":"subdomain","type":"string","internalType":"string"},{"name":"parser","type":"address","internalType":"address"}],"stateMutability":"view"},{"type":"function","name":"changeOwner","inputs":[{"name":"_owner","type":"address","internalType":"address"}],"outputs":[],"stateMutability":"nonpayable"},{"type":"function","name":"domainOwners","inputs":[{"name":"","type":"bytes32","internalType":"bytes32"}],"outputs":[{"name":"","type":"address","internalType":"address"}],"stateMutability":"view"},{"type":"function","name":"handleSkeet","inputs":[{"name":"content","type":"bytes[]","internalType":"bytes[]"},{"name":"botNameLength","type":"uint8","internalType":"uint8"},{"name":"nodes","type":"bytes[]","internalType":"bytes[]"},{"name":"nodeHints","type":"uint256[]","internalType":"uint256[]"},{"name":"commitNode","type":"bytes","internalType":"bytes"},{"name":"_v","type":"uint8","internalType":"uint8"},{"name":"_r","type":"bytes32","internalType":"bytes32"},{"name":"_s","type":"bytes32","internalType":"bytes32"}],"outputs":[],"stateMutability":"nonpayable"},{"type":"function","name":"merkleProvenRootHash","inputs":[{"name":"proveMe","type":"bytes32","internalType":"bytes32"},{"name":"nodes","type":"bytes[]","internalType":"bytes[]"},{"name":"hints","type":"uint256[]","internalType":"uint256[]"}],"outputs":[{"name":"","type":"bytes32","internalType":"bytes32"},{"name":"","type":"string","internalType":"string"}],"stateMutability":"pure"},{"type":"function","name":"owner","inputs":[],"outputs":[{"name":"","type":"address","internalType":"address"}],"stateMutability":"view"},{"type":"function","name":"predictSafeAddress","inputs":[{"name":"_signer","type":"address","internalType":"address"}],"outputs":[{"name":"","type":"address","internalType":"address"}],"stateMutability":"view"},{"type":"function","name":"predictSafeAddressFromSig","inputs":[{"name":"sigHash","type":"bytes32","internalType":"bytes32"},{"name":"_v","type":"uint8","internalType":"uint8"},{"name":"_r","type":"bytes32","internalType":"bytes32"},{"name":"_s","type":"bytes32","internalType":"bytes32"}],"outputs":[{"name":"","type":"address","internalType":"address"}],"stateMutability":"view"},{"type":"function","name":"predictSignerAddressFromSig","inputs":[{"name":"sigHash","type":"bytes32","internalType":"bytes32"},{"name":"_v","type":"uint8","internalType":"uint8"},{"name":"_r","type":"bytes32","internalType":"bytes32"},{"name":"_s","type":"bytes32","internalType":"bytes32"}],"outputs":[{"name":"","type":"address","internalType":"address"}],"stateMutability":"pure"},{"type":"function","name":"signerSafes","inputs":[{"name":"","type":"address","internalType":"address"}],"outputs":[{"name":"","type":"address","internalType":"contract SignerSafe"}],"stateMutability":"view"},{"type":"event","name":"LogAddBot","inputs":[{"name":"parser","type":"address","indexed":true,"internalType":"address"},{"name":"domain","type":"string","indexed":false,"internalType":"string"},{"name":"subdomain","type":"string","indexed":false,"internalType":"string"}],"anonymous":false},{"type":"event","name":"LogAddDomain","inputs":[{"name":"owner","type":"address","indexed":true,"internalType":"address"},{"name":"domain","type":"string","indexed":false,"internalType":"string"}],"anonymous":false},{"type":"event","name":"LogChangeOwner","inputs":[{"name":"owner","type":"address","indexed":true,"internalType":"address"}],"anonymous":false},{"type":"event","name":"LogCreateSignerSafe","inputs":[{"name":"signer","type":"address","indexed":true,"internalType":"address"},{"name":"signerSafe","type":"address","indexed":true,"internalType":"address"}],"anonymous":false},{"type":"event","name":"LogExecutePayload","inputs":[{"name":"signer","type":"address","indexed":true,"internalType":"address"},{"name":"to","type":"address","indexed":true,"internalType":"address"},{"name":"value","type":"uint256","indexed":false,"internalType":"uint256"},{"name":"data","type":"bytes","indexed":false,"internalType":"bytes"},{"name":"payload","type":"string","indexed":false,"internalType":"string"}],"anonymous":false}],"bytecode":{"object":"0x6080604052348015600e575f5ffd5b50600180546001600160a01b031916339081179091556040517f95fd54179c11867fb083dd94347ea50f144dd4cfd7612b7bca169f162824af16905f90a261375f806100595f395ff3fe608060405234801561000f575f5ffd5b50600436106100cb575f3560e01c80638da5cb5b11610088578063c361a0a511610063578063c361a0a5146101bd578063c4299c70146101e5578063e3e962ac146101f8578063f9f485b314610219575f5ffd5b80638da5cb5b146101845780639ee0ce2714610197578063a6f9dae1146101aa575f5ffd5b806311fefaf7146100cf5780632600a1bf146100e457806367a05601146100f75780637c4d95a91461013c57806385ed127c1461014f5780638d77b86614610162575b5f5ffd5b6100e26100dd36600461298e565b61022c565b005b6100e26100f2366004612aaa565b61046d565b61011f610105366004612b2b565b60026020525f90815260409020546001600160a01b031681565b6040516001600160a01b0390911681526020015b60405180910390f35b61011f61014a366004612b42565b61073a565b6100e261015d366004612b7a565b6107a0565b610175610170366004612b2b565b610891565b60405161013393929190612bfa565b60015461011f906001600160a01b031681565b61011f6101a5366004612c37565b6109c7565b6100e26101b8366004612c37565b610a41565b61011f6101cb366004612c37565b60036020525f90815260409020546001600160a01b031681565b61011f6101f3366004612b42565b610af9565b61020b610206366004612c52565b610b86565b604051610133929190612cc9565b6100e2610227366004612ce1565b6119cf565b5f60028d8d5f81811061024157610241612d28565b90506020028101906102539190612d3c565b604051602001610264929190612d7e565b60408051601f198184030181529082905261027e91612da4565b602060405180830381855afa158015610299573d5f5f3e3d5ffd5b5050506040513d601f19601f820116820180604052508101906102bc9190612daf565b90505f5f6102cd838d8d8d8d610b86565b9150915060405180604001604052806012815260200171185c1c0b989cdade4b999959590b9c1bdcdd60721b81525061030590612dc6565b6001600160701b03191661031882612dc6565b6001600160701b031916146103745760405162461bcd60e51b815260206004820152601e60248201527f7265636f7264206b657920646964206e6f742073686f77206120706f7374000060448201526064015b60405180910390fd5b61037f8289896119cf565b5050505f60028686604051602001610398929190612d7e565b60408051601f19818403018152908290526103b291612da4565b602060405180830381855afa1580156103cd573d5f5f3e3d5ffd5b5050506040513d601f19601f820116820180604052508101906103f09190612daf565b604080515f8082526020820180845284905260ff88169282019290925260608101869052608081018590529192509060019060a0016020604051602081039080840390855afa158015610445573d5f5f3e3d5ffd5b50505060206040510351905061045d818f8f8f611dba565b5050505050505050505050505050565b60025f8484604051602001610483929190612d7e565b60408051808303601f190181529181528151602092830120835290820192909252015f20546001600160a01b031633146104f15760405162461bcd60e51b815260206004820152600f60248201526e2737ba103cb7bab9103237b6b0b4b760891b604482015260640161036b565b6001600160a01b03811661053f5760405162461bcd60e51b81526020600482015260156024820152741059191c995cdcc81b9bdd081cdc1958da599a5959605a1b604482015260640161036b565b5f8585604051602001610553929190612e0a565b60408051601f19818403018152908290526105749186908690602001612e20565b60408051601f198184030181529082905261059191602001612da4565b60408051601f1981840301815291815281516020928301205f818152928390529120600201549091506001600160a01b0316156106105760405162461bcd60e51b815260206004820152601c60248201527f537562646f6d61696e20616c7265616479207265676973746572656400000000604482015260640161036b565b604051806060016040528085858080601f0160208091040260200160405190810160405280939291908181526020018383808284375f92019190915250505090825250604080516020601f8a01819004810282018101909252888152918101919089908990819084018382808284375f9201829052509385525050506001600160a01b0385166020928301528381529081905260409020815181906106b59082612ed3565b50602082015160018201906106ca9082612ed3565b5060409182015160029190910180546001600160a01b0319166001600160a01b039283161790559051908316907f27743af462b1bae7b9be3000132d87467122b80c25f8d5f36c5d423dd0038dea9061072a90879087908b908b90612fb5565b60405180910390a2505050505050565b604080515f8082526020820180845287905260ff861692820192909252606081018490526080810183905260019060a0016020604051602081039080840390855afa15801561078b573d5f5f3e3d5ffd5b5050506020604051035190505b949350505050565b6001546001600160a01b031633146107fa5760405162461bcd60e51b815260206004820152601e60248201527f4f6e6c7920746865206f776e65722063616e2061646420646f6d61696e730000604482015260640161036b565b8060025f8585604051602001610811929190612d7e565b60408051808303601f19018152918152815160209283012083529082019290925281015f2080546001600160a01b0319166001600160a01b0393841617905551908216907ff9828a5f4a2879a424cfdafa5bf6f44f96aafacec6ae3461f8f1c4b40f2625e7906108849086908690612fe6565b60405180910390a2505050565b5f602081905290815260409020805481906108ab90612e52565b80601f01602080910402602001604051908101604052809291908181526020018280546108d790612e52565b80156109225780601f106108f957610100808354040283529160200191610922565b820191905f5260205f20905b81548152906001019060200180831161090557829003601f168201915b50505050509080600101805461093790612e52565b80601f016020809104026020016040519081016040528092919081815260200182805461096390612e52565b80156109ae5780601f10610985576101008083540402835291602001916109ae565b820191905f5260205f20905b81548152906001019060200180831161099157829003601f168201915b505050600290930154919250506001600160a01b031683565b6040515f906001600160a01b0383169082906001600160f81b031990309084906109f3602082016128ef565b6020820181038252601f19601f8201166040525080519060200120604051602001610a219493929190612ff9565b60408051601f198184030181529190528051602090910120949350505050565b6001546001600160a01b03163314610ab05760405162461bcd60e51b815260206004820152602c60248201527f4f6e6c7920746865206578697374696e67206f776e65722063616e206368616e60448201526b33b2903a34329037bbb732b960a11b606482015260840161036b565b600180546001600160a01b0319166001600160a01b0383169081179091556040517f95fd54179c11867fb083dd94347ea50f144dd4cfd7612b7bca169f162824af16905f90a250565b5f5f610b078686868661073a565b6040519091506001600160a01b038216905f906001600160f81b03199030908490610b34602082016128ef565b6020820181038252601f19601f8201166040525080519060200120604051602001610b629493929190612ff9565b60408051808303601f19018152919052805160209091012098975050505050505050565b5f606080825b868110156119c3575f868683818110610ba757610ba7612d28565b9050602002013590505f5f5f605160f91b6001600160f81b0319168c8c87818110610bd457610bd4612d28565b9050602002810190610be69190612d3c565b8390610bf3826001613046565b92610c009392919061305f565b610c0991613086565b6001600160f81b03191614610c2057610c206130be565b610c2b816001613046565b90505f85118015610c3a575083155b15610f0a575f8c8c87818110610c5257610c52612d28565b9050602002810190610c649190612d3c565b91506230b67b60e91b90508d8d88818110610c8157610c81612d28565b9050602002810190610c939190612d3c565b610c9e6003856130d2565b610caa9285929061305f565b610cb3916130e5565b6001600160e81b03191614610f08578d8d8d88818110610cd557610cd5612d28565b9050602002810190610ce79190612d3c565b610cf26020856130d2565b610cfe9285929061305f565b610d079161311a565b14610d475760405162461bcd60e51b815260206004820152601060248201526f0d840ecc2d8eaca40dad2e6dac2e8c6d60831b604482015260640161036b565b6806c152c128000b889160bd1b8d8d88818110610d6657610d66612d28565b9050602002810190610d789190612d3c565b6009610d856020866130d2565b610d8f91906130d2565b90610d9b6020866130d2565b92610da89392919061305f565b610db191613137565b6001600160b81b03191614610dc4575f5ffd5b61185b60f21b8d8d88818110610ddc57610ddc612d28565b9050602002810190610dee9190612d3c565b60026009610dfd6020876130d2565b610e0791906130d2565b610e1191906130d2565b906009610e1f6020876130d2565b610e2991906130d2565b92610e369392919061305f565b610e3f9161316d565b6001600160f01b03191614610e8a5760405162461bcd60e51b81526020600482015260116024820152700d840e0e4caccd2f040dad2e6dac2e8c6d607b1b604482015260640161036b565b60028d8d88818110610e9e57610e9e612d28565b9050602002810190610eb09190612d3c565b604051610ebe929190612d7e565b602060405180830381855afa158015610ed9573d5f5f3e3d5ffd5b5050506040513d601f19601f82011682018060405250810190610efc9190612daf565b9d5050505050506119bb565b505b61616560f01b8c8c87818110610f2257610f22612d28565b9050602002810190610f349190612d3c565b8390610f41826002613046565b92610f4e9392919061305f565b610f579161316d565b6001600160f01b03191614610f6e57610f6e6130be565b610f79816002613046565b9050610fa88c8c87818110610f9057610f90612d28565b9050602002810190610fa29190612d3c565b83612017565b6001600160401b039091169450915050828411156110235760405162461bcd60e51b815260206004820152603260248201527f48696e7420697320666f7220616e20696e646578206265796f6e642074686520604482015271656e64206f662074686520656e747269657360701b606482015260840161036b565b831561102d578392505b5f5b838110156116dd57602960fa1b8d8d8881811061104e5761104e612d28565b90506020028101906110609190612d3c565b849061106d826001613046565b9261107a9392919061305f565b61108391613086565b6001600160f81b0319161461109a5761109a6130be565b6110a5826001613046565b9150855f036112de5761616b60f01b8d8d888181106110c6576110c6612d28565b90506020028101906110d89190612d3c565b84906110e5826002613046565b926110f29392919061305f565b6110fb9161316d565b6001600160f01b03191614611112576111126130be565b61111d826002613046565b915061114c8d8d8881811061113457611134612d28565b90506020028101906111469190612d3c565b84612017565b6001600160401b03909116945092505f90508d8d8881811061117057611170612d28565b90506020028101906111829190612d3c565b849061118e8783613046565b9261119b9392919061305f565b8080601f0160208091040260200160405190810160405280939291908181526020018383808284375f920191909152509293506111de9250869150859050613046565b925061061760f41b8e8e898181106111f8576111f8612d28565b905060200281019061120a9190612d3c565b8590611217826002613046565b926112249392919061305f565b61122d9161316d565b6001600160f01b03191614611244576112446130be565b61124f836002613046565b925061127e8e8e8981811061126657611266612d28565b90506020028101906112789190612d3c565b85612017565b6001600160401b0382169650945085915060ff165f036112a0578198506112d7565b5f6112af8a5f8460ff166122a4565b905080836040516020016112c49291906131a3565b6040516020818303038152906040529950505b5050611350565b6112e9826002613046565b91506113008d8d8881811061113457611134612d28565b6001600160401b039091169450925061131b90508383613046565b9150611328826002613046565b915061133f8d8d8881811061113457611134612d28565b6001600160401b0390911694509250505b61135b826002613046565b9150607b60f91b8d8d8881811061137457611374612d28565b90506020028101906113869190612d3c565b8490611393826001613046565b926113a09392919061305f565b6113a991613086565b6001600160f81b031916036113ca576113c3826001613046565b915061158b565b6806c152c128000b889160bd1b8d8d888181106113e9576113e9612d28565b90506020028101906113fb9190612d3c565b8490611408826009613046565b926114159392919061305f565b61141e91613137565b6001600160b81b03191614611435576114356130be565b611440826009613046565b91505f8611801561145057505f85115b801561146557506114626001866130d2565b81145b1561157d575f8d8d8881811061147d5761147d612d28565b905060200281019061148f9190612d3c565b849061149c602083613046565b926114a99392919061305f565b6114b29161311a565b90508e81146115035760405162461bcd60e51b815260206004820152601b60248201527f56616c756520646f6573206e6f74206d61746368207461726765740000000000604482015260640161036b565b60028e8e8981811061151757611517612d28565b90506020028101906115299190612d3c565b604051611537929190612d7e565b602060405180830381855afa158015611552573d5f5f3e3d5ffd5b5050506040513d601f19601f820116820180604052508101906115759190612daf565b9e50506116d5565b611588602083613046565b91505b611596826002613046565b91506115a3826009613046565b9150851580156115bc57506115b96001866130d2565b81145b156116c7575f8d8d888181106115d4576115d4612d28565b90506020028101906115e69190612d3c565b84906115f3602083613046565b926116009392919061305f565b6116099161311a565b90508e81146116515760405162461bcd60e51b81526020600482015260146024820152730ca40ecc2d840c8decae640dcdee840dac2e8c6d60631b604482015260640161036b565b60028e8e5f81811061166557611665612d28565b90506020028101906116779190612d3c565b604051611685929190612d7e565b602060405180830381855afa1580156116a0573d5f5f3e3d5ffd5b5050506040513d601f19601f820116820180604052508101906116c39190612daf565b9e50505b6116d2602083613046565b91505b60010161102f565b50835f036119b6575f851161175a5760405162461bcd60e51b815260206004820152603c60248201527f596f752073686f756c64206e6f742062652072656164696e6720616e206c207660448201527f616c756520666f7220746865206e6f6465206174207468652074697000000000606482015260840161036b565b61185b60f21b8c8c8781811061177257611772612d28565b90506020028101906117849190612d3c565b8390611791826002613046565b9261179e9392919061305f565b6117a79161316d565b6001600160f01b031916146117be576117be6130be565b6117c9816002613046565b9050607b60f91b8c8c878181106117e2576117e2612d28565b90506020028101906117f49190612d3c565b8390611801826001613046565b9261180e9392919061305f565b61181791613086565b6001600160f81b0319160361183857611831816001613046565b90506119b6565b6806c152c128000b889160bd1b8c8c8781811061185757611857612d28565b90506020028101906118699190612d3c565b8390611876826009613046565b926118839392919061305f565b61188c91613137565b6001600160b81b031916146118a3576118a36130be565b6118ae816009613046565b90505f8c8c878181106118c3576118c3612d28565b90506020028101906118d59190612d3c565b83906118e2602083613046565b926118ef9392919061305f565b6118f89161311a565b90508d81146119405760405162461bcd60e51b81526020600482015260146024820152730d840ecc2d840c8decae640dcdee840dac2e8c6d60631b604482015260640161036b565b60028d8d8881811061195457611954612d28565b90506020028101906119669190612d3c565b604051611974929190612d7e565b602060405180830381855afa15801561198f573d5f5f3e3d5ffd5b5050506040513d601f19601f820116820180604052508101906119b29190612daf565b9d50505b505050505b600101610b8c565b50969795505050505050565b5f8060a560f81b8482856119e4826001613046565b926119f19392919061305f565b6119fa91613086565b6001600160f81b03191614611a1157611a116130be565b600191506318d91a5960e21b848385611a2b826004613046565b92611a389392919061305f565b611a41916131b7565b6001600160d81b03191614611a5857611a586130be565b611a63826004613046565b9150611a70848484612017565b93506001600160401b03169150611a8990508183613046565b91506331b932bb60e11b848385611aa1826004613046565b92611aae9392919061305f565b611ab7916131ed565b6001600160e01b03191614611ace57611ace6130be565b611ad9826004613046565b9150611ae6848484612017565b93506001600160401b03169150611aff90508183613046565b915064646461746160d81b848385611b18826005613046565b92611b259392919061305f565b611b2e91613223565b6001600160c01b03191614611b4557611b456130be565b611b50826005613046565b91506806c152c128000b889160bd1b848385611b6d826009613046565b92611b7a9392919061305f565b611b8391613137565b6001600160b81b03191614611b9a57611b9a6130be565b611ba5826009613046565b915084848385611bb6602083613046565b92611bc39392919061305f565b611bcc9161311a565b14611c2b5760405162461bcd60e51b815260206004820152602960248201527f44617461206669656c6420646f6573206e6f7420636f6e7461696e20657870656044820152680c6e8cac840d0c2e6d60bb1b606482015260840161036b565b611c36602083613046565b91506432383932bb60d91b848385611c4f826005613046565b92611c5c9392919061305f565b611c65916131b7565b6001600160d81b03191614611c7c57611c7c6130be565b611c87826005613046565b9150607b60f91b848385611c9c826001613046565b92611ca99392919061305f565b611cb291613086565b6001600160f81b03191603611cd357611ccc826001613046565b9150611d36565b6806c152c128000b889160bd1b848385611cee826009613046565b92611cfb9392919061305f565b611d0491613137565b6001600160b81b03191614611d1b57611d1b6130be565b611d26826009613046565b9150611d33602083613046565b91505b686776657273696f6e0360b81b848385611d51826009613046565b92611d5e9392919061305f565b611d6791613137565b6001600160b81b03191614611db35760405162461bcd60e51b81526020600482015260126024820152711d8cc8199a595b19081b9bdd08199bdd5b9960721b604482015260640161036b565b5050505050565b6001600160a01b038416611e105760405162461bcd60e51b815260206004820152601a60248201527f5369676e65722073686f756c64206e6f7420626520656d707479000000000000604482015260640161036b565b6001600160a01b038481165f9081526003602052604090205416611f16576040516001600160a01b038516908190611e47906128ef565b8190604051809103905ff5905080158015611e64573d5f5f3e3d5ffd5b506001600160a01b038681165f90815260036020526040902080546001600160a01b031916929091169182179055611ed15760405162461bcd60e51b815260206004820152601060248201526f14d85999481b9bdd0818dc99585d195960821b604482015260640161036b565b6001600160a01b038086165f818152600360205260408082205490519316927f9f5f38090a53b52fccc9ab2ecccf3e10c222adcad8af17ae2974abeaef68b4cc9190a3505b5f5f5f611f24868686612366565b6001600160a01b03808b165f9081526003602052604090819020549051635e3571f560e01b81529497509295509093501690635e3571f590611f6e90869086908690600401613259565b5f604051808303815f87803b158015611f85575f5ffd5b505af1158015611f97573d5f5f3e3d5ffd5b50505050826001600160a01b0316876001600160a01b03167f2fad25adcdcfc59ef8fa907dd52b92e9e90b92f0e832cbbc5ad141b8e587e4ee84848a8a5f818110611fe457611fe4612d28565b9050602002810190611ff69190612d3c565b6040516120069493929190613288565b60405180910390a350505050505050565b5f808080868587612029826001613046565b926120369392919061305f565b61203f91613086565b60f81c90508461204e816132b3565b9550506007600582901c16601f82165f600683900361212057622a582560e81b8a898b61207c826003613046565b926120899392919061305f565b612092916130e5565b6001600160e81b031916146121005760405162461bcd60e51b815260206004820152602e60248201527f556e737570706f7274656420746167206f7220756e657870656374656420434960448201526d442068656164657220627974657360901b606482015260840161036b565b61210b600389613046565b9750826025899650965096505050505061229b565b60188260ff161015612136575060ff811661228f565b8160ff1660180361217c5789888a61214f826001613046565b9261215c9392919061305f565b61216591613086565b60f81c9050612175600189613046565b975061228f565b8160ff166019036121bb5789888a612195826002613046565b926121a29392919061305f565b6121ab9161316d565b60f01c9050612175600289613046565b8160ff16601a036121fa5789888a6121d4826004613046565b926121e19392919061305f565b6121ea916131ed565b60e01c9050612175600489613046565b8160ff16601b036122395789888a612213826008613046565b926122209392919061305f565b61222991613223565b60c01c9050612175600889613046565b60405162461bcd60e51b815260206004820152602560248201527f63616e6e6f742068616e646c6520686561646572732077697468206578747261604482015264203e20323760d81b606482015260840161036b565b91955090935085925050505b93509350939050565b6060835f6122b285856130d2565b6001600160401b038111156122c9576122c9612e3e565b6040519080825280601f01601f1916602001820160405280156122f3576020820181803683370190505b509050845b8481101561235a5782818151811061231257612312612d28565b01602001516001600160f81b0319168261232c88846130d2565b8151811061233c5761233c612d28565b60200101906001600160f81b03191690815f1a9053506001016122f8565b509150505b9392505050565b5f5f60605f5f61239888885f81811061238157612381612d28565b90506020028101906123939190612d3c565b61261e565b9092509050365f898982816123af576123af612d28565b90506020028101906123c19190612d3c565b6123ce918591879161305f565b9092509050600160fe1b6123e560015f848661305f565b6123ee91613086565b6001600160f81b031916146124455760405162461bcd60e51b815260206004820152601b60248201527f4d6573736167652073686f756c6420626567696e207769746820400000000000604482015260640161036b565b5f8080846001856124568e836132cb565b60ff16926124669392919061305f565b604051612474929190612d7e565b604080519182900390912082526020820192909252015f20600201546001600160a01b03169050806124d85760405162461bcd60e51b815260206004820152600d60248201526c109bdd081b9bdd08199bdd5b99609a1b604482015260640161036b565b600160fd1b83836124ea8c60016132cb565b60ff16906124f98d60016132cb565b6125049060016132cb565b60ff16926125149392919061305f565b61251d91613086565b6001600160f81b031916146125745760405162461bcd60e51b815260206004820152601760248201527f4e6f20737061636520616674657220626f74206e616d65000000000000000000604482015260640161036b565b6001600160a01b03811663d7dca49c8c8c60ff8d166125948a6001613046565b61259e9190613046565b6125a9906001613046565b886040518563ffffffff1660e01b81526004016125c994939291906132e4565b5f60405180830381865afa1580156125e3573d5f5f3e3d5ffd5b505050506040513d5f823e601f3d908101601f1916820160405261260a919081019061338c565b975097509750505050505093509350939050565b5f80808080868187612631826001613046565b9261263e9392919061305f565b61264791613086565b905060a260f882901c101561265e5761265e6130be565b60af60f882901c1115612673576126736130be565b60405164191d195e1d60da1b6020820152600193506126a89088908890602501604051602081830303815290604052866126de565b92506126b5878785612017565b94506001600160401b031692508390506126cf8382613046565b945094505050505b9250929050565b81515f90816126ed82876130d2565b90505b8084101561276f5761270185613458565b6001600160c01b0319168785886127188683613046565b926127259392919061305f565b61272e91613223565b6001600160c01b03191603612750576127478285613046565b92505050610798565b61275b8787866127af565b93506127688787866127af565b93506126f0565b60405162461bcd60e51b8152602060048201526015602482015274199a595b1912195859195c881b9bdd08199bdd5b99605a1b604482015260640161036b565b5f5f5f6127bd868686612017565b95509092509050600260ff831614806127d957508160ff166003145b806127e757508160ff166006145b15612808576127ff6001600160401b03821685613046565b9250505061235f565b60ff8216158061281b57508160ff166001145b8061282957508160ff166007145b1561283857839250505061235f565b8160ff166004148061284d57508160ff166005145b156128ae575f8260ff16600514612864578161286f565b61286f826002613492565b90505f5b816001600160401b0316816001600160401b031610156128a2576128988888886127af565b9550600101612873565b5084935050505061235f565b60405162461bcd60e51b8152602060048201526016602482015275556e737570706f72746564206d616a6f72207479706560501b604482015260640161036b565b610275806134b583390190565b5f5f83601f84011261290c575f5ffd5b5081356001600160401b03811115612922575f5ffd5b6020830191508360208260051b85010111156126d7575f5ffd5b803560ff8116811461294c575f5ffd5b919050565b5f5f83601f840112612961575f5ffd5b5081356001600160401b03811115612977575f5ffd5b6020830191508360208285010111156126d7575f5ffd5b5f5f5f5f5f5f5f5f5f5f5f5f6101008d8f0312156129aa575f5ffd5b6001600160401b038d3511156129be575f5ffd5b6129cb8e8e358f016128fc565b909c509a506129dc60208e0161293c565b99506001600160401b0360408e013511156129f5575f5ffd5b612a058e60408f01358f016128fc565b90995097506001600160401b0360608e01351115612a21575f5ffd5b612a318e60608f01358f016128fc565b90975095506001600160401b0360808e01351115612a4d575f5ffd5b612a5d8e60808f01358f01612951565b9095509350612a6e60a08e0161293c565b9b9e9a9d50989b979a96999598509396929591949193505060c08201359160e0013590565b6001600160a01b0381168114612aa7575f5ffd5b50565b5f5f5f5f5f60608688031215612abe575f5ffd5b85356001600160401b03811115612ad3575f5ffd5b612adf88828901612951565b90965094505060208601356001600160401b03811115612afd575f5ffd5b612b0988828901612951565b9094509250506040860135612b1d81612a93565b809150509295509295909350565b5f60208284031215612b3b575f5ffd5b5035919050565b5f5f5f5f60808587031215612b55575f5ffd5b84359350612b656020860161293c565b93969395505050506040820135916060013590565b5f5f5f60408486031215612b8c575f5ffd5b83356001600160401b03811115612ba1575f5ffd5b612bad86828701612951565b9094509250506020840135612bc181612a93565b809150509250925092565b5f81518084528060208401602086015e5f602082860101526020601f19601f83011685010191505092915050565b606081525f612c0c6060830186612bcc565b8281036020840152612c1e8186612bcc565b91505060018060a01b0383166040830152949350505050565b5f60208284031215612c47575f5ffd5b813561235f81612a93565b5f5f5f5f5f60608688031215612c66575f5ffd5b8535945060208601356001600160401b03811115612c82575f5ffd5b612c8e888289016128fc565b90955093505060408601356001600160401b03811115612cac575f5ffd5b612cb8888289016128fc565b969995985093965092949392505050565b828152604060208201525f6107986040830184612bcc565b5f5f5f60408486031215612cf3575f5ffd5b8335925060208401356001600160401b03811115612d0f575f5ffd5b612d1b86828701612951565b9497909650939450505050565b634e487b7160e01b5f52603260045260245ffd5b5f5f8335601e19843603018112612d51575f5ffd5b8301803591506001600160401b03821115612d6a575f5ffd5b6020019150368190038213156126d7575f5ffd5b818382375f9101908152919050565b5f81518060208401855e5f93019283525090919050565b5f61235f8284612d8d565b5f60208284031215612dbf575f5ffd5b5051919050565b805160208201516001600160701b0319811691906012821015612e03576001600160701b03196001600160701b03198360120360031b1b82161692505b5050919050565b81838237601760f91b9101908152600101919050565b5f612e2b8286612d8d565b838582375f930192835250909392505050565b634e487b7160e01b5f52604160045260245ffd5b600181811c90821680612e6657607f821691505b602082108103612e8457634e487b7160e01b5f52602260045260245ffd5b50919050565b601f821115612ece57805f5260205f20601f840160051c81016020851015612eaf5750805b601f840160051c820191505b81811015611db3575f8155600101612ebb565b505050565b81516001600160401b03811115612eec57612eec612e3e565b612f0081612efa8454612e52565b84612e8a565b6020601f821160018114612f32575f8315612f1b5750848201515b5f19600385901b1c1916600184901b178455611db3565b5f84815260208120601f198516915b82811015612f615787850151825560209485019460019092019101612f41565b5084821015612f7e57868401515f19600387901b60f8161c191681555b50505050600190811b01905550565b81835281816020850137505f828201602090810191909152601f909101601f19169091010190565b604081525f612fc8604083018688612f8d565b8281036020840152612fdb818587612f8d565b979650505050505050565b602081525f610798602083018486612f8d565b6001600160f81b031994909416845260609290921b6bffffffffffffffffffffffff191660018401526015830152603582015260550190565b634e487b7160e01b5f52601160045260245ffd5b8082018082111561305957613059613032565b92915050565b5f5f8585111561306d575f5ffd5b83861115613079575f5ffd5b5050820193919092039150565b80356001600160f81b031981169060018410156130b7576001600160f81b0319600185900360031b81901b82161691505b5092915050565b634e487b7160e01b5f52600160045260245ffd5b8181038181111561305957613059613032565b80356001600160e81b031981169060038410156130b7576001600160e81b0319600394850390941b84901b1690921692915050565b80356020831015613059575f19602084900360031b1b1692915050565b80356001600160b81b031981169060098410156130b7576001600160b81b031960099490940360031b84901b1690921692915050565b80356001600160f01b031981169060028410156130b7576001600160f01b031960029490940360031b84901b1690921692915050565b5f6107986131b18386612d8d565b84612d8d565b80356001600160d81b031981169060058410156130b7576001600160d81b031960059490940360031b84901b1690921692915050565b80356001600160e01b031981169060048410156130b7576001600160e01b031960049490940360031b84901b1690921692915050565b80356001600160c01b031981169060088410156130b7576001600160c01b031960089490940360031b84901b1690921692915050565b60018060a01b0384168152826020820152606060408201525f61327f6060830184612bcc565b95945050505050565b848152606060208201525f6132a06060830186612bcc565b8281036040840152612fdb818587612f8d565b5f600182016132c4576132c4613032565b5060010190565b60ff818116838216019081111561305957613059613032565b606080825281018490525f6080600586901b830181019083018783601e1936839003015b8982101561337557868503607f190184528235818112613326575f5ffd5b8b016020810190356001600160401b03811115613341575f5ffd5b80360382131561334f575f5ffd5b61335a878284612f8d565b96505050602083019250602084019350600182019150613308565b505050506020830194909452506040015292915050565b5f5f5f6060848603121561339e575f5ffd5b83516133a981612a93565b6020850151604086015191945092506001600160401b038111156133cb575f5ffd5b8401601f810186136133db575f5ffd5b80516001600160401b038111156133f4576133f4612e3e565b604051601f8201601f19908116603f011681016001600160401b038111828210171561342257613422612e3e565b604052818152828201602001881015613439575f5ffd5b8160208401602083015e5f602083830101528093505050509250925092565b805160208201516001600160c01b0319811691906008821015612e03576001600160c01b031960089290920360031b82901b161692915050565b6001600160401b0381811683821602908116908181146130b7576130b761303256fe6080604052348015600e575f5ffd5b505f80546001600160a01b031916331790556102488061002d5f395ff3fe608060405234801561000f575f5ffd5b5060043610610034575f3560e01c80635e3571f5146100385780638da5cb5b1461004d575b5f5ffd5b61004b610046366004610139565b61007b565b005b5f5461005f906001600160a01b031681565b6040516001600160a01b03909116815260200160405180910390f35b5f546001600160a01b031633146100fe5760405162461bcd60e51b815260206004820152603c60248201527f492063616e206f6e6c7920626520636f6e74726f6c6c6564206279207468652060448201527f536b6565744761746577617920746861742063726561746564206d6500000000606482015260840160405180910390fd5b61010983838361010f565b50505050565b5f5f5f83516020850186885f19f1949350505050565b634e487b7160e01b5f52604160045260245ffd5b5f5f5f6060848603121561014b575f5ffd5b83356001600160a01b0381168114610161575f5ffd5b925060208401359150604084013567ffffffffffffffff811115610183575f5ffd5b8401601f81018613610193575f5ffd5b803567ffffffffffffffff8111156101ad576101ad610125565b604051601f8201601f19908116603f0116810167ffffffffffffffff811182821017156101dc576101dc610125565b6040528181528282016020018810156101f3575f5ffd5b816020840160208301375f60208383010152809350505050925092509256fea2646970667358221220d389b77ddf632056e96f1e94cb4350a4d29e5572b3d770e760d59f5ad93838fe64736f6c634300081c0033a2646970667358221220de2d3ba698712efee88d1238c4e4540a9115c8a055b78c927f7eb2f772dd755864736f6c634300081c0033","linkReferences":{}},"methodIdentifiers":{"addBot(string,string,address)":"2600a1bf","addDomain(string,address)":"85ed127c","assertCommitNodeContainsData(bytes32,bytes)":"f9f485b3","bots(bytes32)":"8d77b866","changeOwner(address)":"a6f9dae1","domainOwners(bytes32)":"67a05601","handleSkeet(bytes[],uint8,bytes[],uint256[],bytes,uint8,bytes32,bytes32)":"11fefaf7","merkleProvenRootHash(bytes32,bytes[],uint256[])":"e3e962ac","owner()":"8da5cb5b","predictSafeAddress(address)":"9ee0ce27","predictSafeAddressFromSig(bytes32,uint8,bytes32,bytes32)":"c4299c70","predictSignerAddressFromSig(bytes32,uint8,bytes32,bytes32)":"7c4d95a9","signerSafes(address)":"c361a0a5"},"id":34}