{"abi":[{"type":"function","name":"handleSkeet","inputs":[{"name":"_payload","type":"string","internalType":"string"},{"name":"_offsets","type":"uint256[]","internalType":"uint256[]"},{"name":"_proofHashes","type":"bytes32[]","internalType":"bytes32[]"},{"name":"_v","type":"uint8","internalType":"uint8"},{"name":"_r","type":"bytes32","internalType":"bytes32"},{"name":"_s","type":"bytes32","internalType":"bytes32"}],"outputs":[],"stateMutability":"nonpayable"},{"type":"function","name":"predictSafeAddress","inputs":[{"name":"sigHash","type":"bytes32","internalType":"bytes32"},{"name":"_v","type":"uint8","internalType":"uint8"},{"name":"_r","type":"bytes32","internalType":"bytes32"},{"name":"_s","type":"bytes32","internalType":"bytes32"}],"outputs":[{"name":"","type":"address","internalType":"address"}],"stateMutability":"view"},{"type":"function","name":"predictSignerAddress","inputs":[{"name":"sigHash","type":"bytes32","internalType":"bytes32"},{"name":"_v","type":"uint8","internalType":"uint8"},{"name":"_r","type":"bytes32","internalType":"bytes32"},{"name":"_s","type":"bytes32","internalType":"bytes32"}],"outputs":[{"name":"","type":"address","internalType":"address"}],"stateMutability":"pure"},{"type":"function","name":"signerSafes","inputs":[{"name":"","type":"address","internalType":"address"}],"outputs":[{"name":"","type":"address","internalType":"contract SignerSafe"}],"stateMutability":"view"},{"type":"function","name":"verifyMerkleProof","inputs":[{"name":"proofHashes","type":"bytes32[]","internalType":"bytes32[]"}],"outputs":[],"stateMutability":"nonpayable"},{"type":"event","name":"LogCreateSignerSafe","inputs":[{"name":"signer","type":"address","indexed":true,"internalType":"address"},{"name":"signerSafe","type":"address","indexed":true,"internalType":"address"}],"anonymous":false},{"type":"event","name":"LogExecutePayload","inputs":[{"name":"signer","type":"address","indexed":true,"internalType":"address"},{"name":"to","type":"address","indexed":true,"internalType":"address"},{"name":"value","type":"uint256","indexed":false,"internalType":"uint256"},{"name":"data","type":"bytes","indexed":false,"internalType":"bytes"},{"name":"payload","type":"string","indexed":false,"internalType":"string"}],"anonymous":false}],"bytecode":{"object":"0x6080604052348015600f57600080fd5b5061108a8061001f6000396000f3fe608060405234801561001057600080fd5b50600436106100575760003560e01c806366d0b8381461005c578063c361a0a51461006f578063cdbec9f2146100b4578063e01179fd146100c7578063fe127586146100da575b600080fd5b61006d61006a3660046109ea565b50565b005b61009861007d366004610a27565b6000602081905290815260409020546001600160a01b031681565b6040516001600160a01b03909116815260200160405180910390f35b6100986100c2366004610a66565b6100ed565b61006d6100d5366004610aa1565b610155565b6100986100e8366004610a66565b6104fd565b6040805160008082526020820180845287905260ff861692820192909252606081018490526080810183905260019060a0016020604051602081039080840390855afa158015610141573d6000803e3d6000fd5b5050604051601f1901519695505050505050565b600060028760405160200161016a9190610bd9565b60408051601f198184030181529082905261018491610bd9565b602060405180830381855afa1580156101a1573d6000803e3d6000fd5b5050506040513d601f19601f820116820180604052508101906101c49190610bf5565b9050846000815181106101d9576101d9610c0e565b602002602001015181146102525760405162461bcd60e51b815260206004820152603560248201527f7061796c6f6164206861736820646f6573206e6f74206d61746368207468652060448201527468617368206f6620697473206c656166206e6f646560581b60648201526084015b60405180910390fd5b6040805160008082526020820180845284905260ff871692820192909252606081018590526080810184905260019060a0016020604051602081039080840390855afa1580156102a6573d6000803e3d6000fd5b5050604051601f1901519150506001600160a01b0381166103095760405162461bcd60e51b815260206004820152601a60248201527f5369676e65722073686f756c64206e6f7420626520656d7074790000000000006044820152606401610249565b6001600160a01b0381811660009081526020819052604090205416610415576040516001600160a01b0382169081906103419061090f565b8190604051809103906000f5905080158015610361573d6000803e3d6000fd5b506001600160a01b03838116600090815260208190526040902080546001600160a01b0319169290911691821790556103cf5760405162461bcd60e51b815260206004820152601060248201526f14d85999481b9bdd0818dc99585d195960821b6044820152606401610249565b6001600160a01b038083166000818152602081905260408082205490519316927f9f5f38090a53b52fccc9ab2ecccf3e10c222adcad8af17ae2974abeaef68b4cc9190a3505b60008060006104248b8b6105c0565b6001600160a01b0380881660009081526020819052604090819020549051635e3571f560e01b81529497509295509093501690635e3571f59061046f90869086908690600401610c50565b600060405180830381600087803b15801561048957600080fd5b505af115801561049d573d6000803e3d6000fd5b50505050826001600160a01b0316846001600160a01b03167f2fad25adcdcfc59ef8fa907dd52b92e9e90b92f0e832cbbc5ad141b8e587e4ee84848f6040516104e893929190610c80565b60405180910390a35050505050505050505050565b60008061050c868686866100ed565b6040519091506001600160a01b038216906000906001600160f81b0319903090849061053a6020820161090f565b6020820181038252601f19601f820116604052508051906020012060405160200161059c94939291906001600160f81b031994909416845260609290921b6bffffffffffffffffffffffff191660018401526015830152603582015260550190565b60408051808303601f19018152919052805160209091012098975050505050505050565b6000806060600061060686866000815181106105de576105de610c0e565b6020026020010151876001815181106105f9576105f9610c0e565b6020026020010151610683565b9050600061061f61061a836000602a610683565b610746565b9050600061063083602b8551610683565b90506000816040516024016106459190610cb5565b60408051601f198184030181529190526020810180516001600160e01b0316636630f88f60e01b179052929650600095509193505050509250925092565b60608360006106928585610cde565b67ffffffffffffffff8111156106aa576106aa61091c565b6040519080825280601f01601f1916602001820160405280156106d4576020820181803683370190505b509050845b8481101561073c578281815181106106f3576106f3610c0e565b01602001516001600160f81b0319168261070d8884610cde565b8151811061071d5761071d610c0e565b60200101906001600160f81b031916908160001a9053506001016106d9565b5095945050505050565b80516000908290602a146107955760405162461bcd60e51b8152602060048201526016602482015275092dcecc2d8d2c840c2c8c8e4cae6e640d8cadccee8d60531b6044820152606401610249565b60408051601480825281830190925260009160208201818036833701905050905060005b601481101561086357610800836107d1836002610cf7565b6107dc906003610d0e565b815181106107ec576107ec610c0e565b01602001516001600160f81b031916610878565b61081a8461080f846002610cf7565b6107dc906002610d0e565b610825906010610d21565b61082f9190610d44565b60f81b82828151811061084457610844610c0e565b60200101906001600160f81b031916908160001a9053506001016107b9565b5061086d81610d5d565b60601c949350505050565b600060f882901c603081108015906108945750603960ff821611155b156108ab576108a4603082610db0565b9392505050565b606160ff8216108015906108c35750606660ff821611155b156108df5760616108d582600a610d44565b6108a49190610db0565b604160ff8216108015906108f75750604660ff821611155b156109095760416108d582600a610d44565b50919050565b61028b80610dca83390190565b634e487b7160e01b600052604160045260246000fd5b604051601f8201601f1916810167ffffffffffffffff8111828210171561095b5761095b61091c565b604052919050565b600067ffffffffffffffff82111561097d5761097d61091c565b5060051b60200190565b600082601f83011261099857600080fd5b81356109ab6109a682610963565b610932565b8082825260208201915060208360051b8601019250858311156109cd57600080fd5b602085015b8381101561073c5780358352602092830192016109d2565b6000602082840312156109fc57600080fd5b813567ffffffffffffffff811115610a1357600080fd5b610a1f84828501610987565b949350505050565b600060208284031215610a3957600080fd5b81356001600160a01b03811681146108a457600080fd5b803560ff81168114610a6157600080fd5b919050565b60008060008060808587031215610a7c57600080fd5b84359350610a8c60208601610a50565b93969395505050506040820135916060013590565b60008060008060008060c08789031215610aba57600080fd5b863567ffffffffffffffff811115610ad157600080fd5b8701601f81018913610ae257600080fd5b803567ffffffffffffffff811115610afc57610afc61091c565b610b0f601f8201601f1916602001610932565b8181528a6020838501011115610b2457600080fd5b81602084016020830137600060208383010152809850505050602087013567ffffffffffffffff811115610b5757600080fd5b610b6389828a01610987565b955050604087013567ffffffffffffffff811115610b8057600080fd5b610b8c89828a01610987565b945050610b9b60608801610a50565b9598949750929560808101359460a0909101359350915050565b60005b83811015610bd0578181015183820152602001610bb8565b50506000910152565b60008251610beb818460208701610bb5565b9190910192915050565b600060208284031215610c0757600080fd5b5051919050565b634e487b7160e01b600052603260045260246000fd5b60008151808452610c3c816020860160208601610bb5565b601f01601f19169290920160200192915050565b60018060a01b0384168152826020820152606060408201526000610c776060830184610c24565b95945050505050565b838152606060208201526000610c996060830185610c24565b8281036040840152610cab8185610c24565b9695505050505050565b6020815260006108a46020830184610c24565b634e487b7160e01b600052601160045260246000fd5b81810381811115610cf157610cf1610cc8565b92915050565b8082028115828204841417610cf157610cf1610cc8565b80820180821115610cf157610cf1610cc8565b60ff8181168382160290811690818114610d3d57610d3d610cc8565b5092915050565b60ff8181168382160190811115610cf157610cf1610cc8565b805160208201516bffffffffffffffffffffffff19811691906014821015610da9576bffffffffffffffffffffffff196bffffffffffffffffffffffff198360140360031b1b82161692505b5050919050565b60ff8281168282160390811115610cf157610cf1610cc856fe6080604052348015600f57600080fd5b50600080546001600160a01b0319163317905561025a806100316000396000f3fe608060405234801561001057600080fd5b50600436106100365760003560e01c80635e3571f51461003b5780638da5cb5b14610050575b600080fd5b61004e610049366004610143565b61007f565b005b600054610063906001600160a01b031681565b6040516001600160a01b03909116815260200160405180910390f35b6000546001600160a01b031633146101035760405162461bcd60e51b815260206004820152603c60248201527f492063616e206f6e6c7920626520636f6e74726f6c6c6564206279207468652060448201527f536b6565744761746577617920746861742063726561746564206d6500000000606482015260840160405180910390fd5b61010e838383610114565b50505050565b60008060008351602085018688600019f1949350505050565b634e487b7160e01b600052604160045260246000fd5b60008060006060848603121561015857600080fd5b83356001600160a01b038116811461016f57600080fd5b925060208401359150604084013567ffffffffffffffff81111561019257600080fd5b8401601f810186136101a357600080fd5b803567ffffffffffffffff8111156101bd576101bd61012d565b604051601f8201601f19908116603f0116810167ffffffffffffffff811182821017156101ec576101ec61012d565b60405281815282820160200188101561020457600080fd5b81602084016020830137600060208383010152809350505050925092509256fea2646970667358221220d75dfdc7173906aed01d1bb817c2abeec89ab7e3a73de6c51c3a288ecd8e7cbd64736f6c634300081a0033a26469706673582212209fe5f8a84cdd0a0b88b0154076f1b4a85567e5c2bc45f1a031af94bf0c88b30c64736f6c634300081a0033","linkReferences":{}},"methodIdentifiers":{"handleSkeet(string,uint256[],bytes32[],uint8,bytes32,bytes32)":"e01179fd","predictSafeAddress(bytes32,uint8,bytes32,bytes32)":"fe127586","predictSignerAddress(bytes32,uint8,bytes32,bytes32)":"cdbec9f2","signerSafes(address)":"c361a0a5","verifyMerkleProof(bytes32[])":"66d0b838"},"id":25}