{"abi":[{"type":"constructor","inputs":[],"stateMutability":"nonpayable"},{"type":"function","name":"addBot","inputs":[{"name":"subdomain","type":"string","internalType":"string"},{"name":"domain","type":"string","internalType":"string"},{"name":"parser","type":"address","internalType":"address"}],"outputs":[],"stateMutability":"nonpayable"},{"type":"function","name":"addDomain","inputs":[{"name":"domain","type":"string","internalType":"string"},{"name":"domainOwner","type":"address","internalType":"address"}],"outputs":[],"stateMutability":"nonpayable"},{"type":"function","name":"assertCommitNodeContainsData","inputs":[{"name":"proveMe","type":"bytes32","internalType":"bytes32"},{"name":"commitNode","type":"bytes","internalType":"bytes"}],"outputs":[],"stateMutability":"pure"},{"type":"function","name":"bots","inputs":[{"name":"","type":"bytes32","internalType":"bytes32"}],"outputs":[{"name":"domain","type":"string","internalType":"string"},{"name":"subdomain","type":"string","internalType":"string"},{"name":"parser","type":"address","internalType":"address"}],"stateMutability":"view"},{"type":"function","name":"domainOwners","inputs":[{"name":"","type":"bytes32","internalType":"bytes32"}],"outputs":[{"name":"","type":"address","internalType":"address"}],"stateMutability":"view"},{"type":"function","name":"handleSkeet","inputs":[{"name":"content","type":"bytes","internalType":"bytes"},{"name":"botNameLength","type":"uint8","internalType":"uint8"},{"name":"nodes","type":"bytes[]","internalType":"bytes[]"},{"name":"nodeHints","type":"uint256[]","internalType":"uint256[]"},{"name":"commitNode","type":"bytes","internalType":"bytes"},{"name":"_v","type":"uint8","internalType":"uint8"},{"name":"_r","type":"bytes32","internalType":"bytes32"},{"name":"_s","type":"bytes32","internalType":"bytes32"}],"outputs":[],"stateMutability":"nonpayable"},{"type":"function","name":"merkleProvenRootHash","inputs":[{"name":"proveMe","type":"bytes32","internalType":"bytes32"},{"name":"nodes","type":"bytes[]","internalType":"bytes[]"},{"name":"hints","type":"uint256[]","internalType":"uint256[]"}],"outputs":[{"name":"","type":"bytes32","internalType":"bytes32"},{"name":"","type":"string","internalType":"string"}],"stateMutability":"pure"},{"type":"function","name":"predictSafeAddress","inputs":[{"name":"_signer","type":"address","internalType":"address"}],"outputs":[{"name":"","type":"address","internalType":"address"}],"stateMutability":"view"},{"type":"function","name":"predictSafeAddressFromSig","inputs":[{"name":"sigHash","type":"bytes32","internalType":"bytes32"},{"name":"_v","type":"uint8","internalType":"uint8"},{"name":"_r","type":"bytes32","internalType":"bytes32"},{"name":"_s","type":"bytes32","internalType":"bytes32"}],"outputs":[{"name":"","type":"address","internalType":"address"}],"stateMutability":"view"},{"type":"function","name":"predictSignerAddressFromSig","inputs":[{"name":"sigHash","type":"bytes32","internalType":"bytes32"},{"name":"_v","type":"uint8","internalType":"uint8"},{"name":"_r","type":"bytes32","internalType":"bytes32"},{"name":"_s","type":"bytes32","internalType":"bytes32"}],"outputs":[{"name":"","type":"address","internalType":"address"}],"stateMutability":"pure"},{"type":"function","name":"signerSafes","inputs":[{"name":"","type":"address","internalType":"address"}],"outputs":[{"name":"","type":"address","internalType":"contract SignerSafe"}],"stateMutability":"view"},{"type":"event","name":"LogAddBot","inputs":[{"name":"parser","type":"address","indexed":true,"internalType":"address"},{"name":"domain","type":"string","indexed":false,"internalType":"string"},{"name":"subdomain","type":"string","indexed":false,"internalType":"string"}],"anonymous":false},{"type":"event","name":"LogAddDomain","inputs":[{"name":"owner","type":"address","indexed":true,"internalType":"address"},{"name":"domain","type":"string","indexed":false,"internalType":"string"}],"anonymous":false},{"type":"event","name":"LogCreateSignerSafe","inputs":[{"name":"signer","type":"address","indexed":true,"internalType":"address"},{"name":"signerSafe","type":"address","indexed":true,"internalType":"address"}],"anonymous":false},{"type":"event","name":"LogExecutePayload","inputs":[{"name":"signer","type":"address","indexed":true,"internalType":"address"},{"name":"to","type":"address","indexed":true,"internalType":"address"},{"name":"value","type":"uint256","indexed":false,"internalType":"uint256"},{"name":"data","type":"bytes","indexed":false,"internalType":"bytes"},{"name":"payload","type":"string","indexed":false,"internalType":"string"}],"anonymous":false}],"bytecode":{"object":"0x6080604052348015600e575f5ffd5b50600180546001600160a01b0319163317905561352b8061002e5f395ff3fe608060405234801561000f575f5ffd5b50600436106100a6575f3560e01c80638d77b8661161006e5780638d77b8661461013d5780639ee0ce271461015f578063c361a0a514610172578063c4299c701461019a578063e3e962ac146101ad578063f9f485b3146101ce575f5ffd5b80632600a1bf146100aa57806367a05601146100bf578063687ca89f146101045780637c4d95a91461011757806385ed127c1461012a575b5f5ffd5b6100bd6100b83660046127c4565b6101e1565b005b6100e76100cd366004612845565b60026020525f90815260409020546001600160a01b031681565b6040516001600160a01b0390911681526020015b60405180910390f35b6100bd6101123660046128b1565b6104b3565b6100e76101253660046129b6565b6106cd565b6100bd6101383660046129ee565b610733565b61015061014b366004612845565b610824565b6040516100fb93929190612a6e565b6100e761016d366004612aab565b61095a565b6100e7610180366004612aab565b60036020525f90815260409020546001600160a01b031681565b6100e76101a83660046129b6565b6109d4565b6101c06101bb366004612ac6565b610a61565b6040516100fb929190612b3d565b6100bd6101dc366004612b55565b6118a3565b60025f84846040516020016101f7929190612b9c565b60408051808303601f190181529181528151602092830120835290820192909252015f20546001600160a01b0316331461026a5760405162461bcd60e51b815260206004820152600f60248201526e2737ba103cb7bab9103237b6b0b4b760891b60448201526064015b60405180910390fd5b6001600160a01b0381166102b85760405162461bcd60e51b81526020600482015260156024820152741059191c995cdcc81b9bdd081cdc1958da599a5959605a1b6044820152606401610261565b5f85856040516020016102cc929190612bab565b60408051601f19818403018152908290526102ed9186908690602001612bd8565b60408051601f198184030181529082905261030a91602001612bf6565b60408051601f1981840301815291815281516020928301205f818152928390529120600201549091506001600160a01b0316156103895760405162461bcd60e51b815260206004820152601c60248201527f537562646f6d61696e20616c72656164792072656769737465726564000000006044820152606401610261565b604051806060016040528085858080601f0160208091040260200160405190810160405280939291908181526020018383808284375f92019190915250505090825250604080516020601f8a01819004810282018101909252888152918101919089908990819084018382808284375f9201829052509385525050506001600160a01b03851660209283015283815290819052604090208151819061042e9082612c96565b50602082015160018201906104439082612c96565b5060409182015160029190910180546001600160a01b0319166001600160a01b039283161790559051908316907f27743af462b1bae7b9be3000132d87467122b80c25f8d5f36c5d423dd0038dea906104a390879087908b908b90612d78565b60405180910390a2505050505050565b5f60028d8d6040516020016104c9929190612b9c565b60408051601f19818403018152908290526104e391612bf6565b602060405180830381855afa1580156104fe573d5f5f3e3d5ffd5b5050506040513d601f19601f820116820180604052508101906105219190612da9565b90505f5f610532838d8d8d8d610a61565b9150915060405180604001604052806012815260200171185c1c0b989cdade4b999959590b9c1bdcdd60721b81525061056a90612dc0565b6001600160701b03191661057d82612dc0565b6001600160701b031916146105d45760405162461bcd60e51b815260206004820152601e60248201527f7265636f7264206b657920646964206e6f742073686f77206120706f737400006044820152606401610261565b6105df8289896118a3565b5050505f600286866040516020016105f8929190612b9c565b60408051601f198184030181529082905261061291612bf6565b602060405180830381855afa15801561062d573d5f5f3e3d5ffd5b5050506040513d601f19601f820116820180604052508101906106509190612da9565b604080515f8082526020820180845284905260ff88169282019290925260608101869052608081018590529192509060019060a0016020604051602081039080840390855afa1580156106a5573d5f5f3e3d5ffd5b5050506020604051035190506106bd818f8f8f611c8e565b5050505050505050505050505050565b604080515f8082526020820180845287905260ff861692820192909252606081018490526080810183905260019060a0016020604051602081039080840390855afa15801561071e573d5f5f3e3d5ffd5b5050506020604051035190505b949350505050565b6001546001600160a01b0316331461078d5760405162461bcd60e51b815260206004820152601e60248201527f4f6e6c7920746865206f776e65722063616e2061646420646f6d61696e7300006044820152606401610261565b8060025f85856040516020016107a4929190612b9c565b60408051808303601f19018152918152815160209283012083529082019290925281015f2080546001600160a01b0319166001600160a01b0393841617905551908216907ff9828a5f4a2879a424cfdafa5bf6f44f96aafacec6ae3461f8f1c4b40f2625e7906108179086908690612e04565b60405180910390a2505050565b5f6020819052908152604090208054819061083e90612c15565b80601f016020809104026020016040519081016040528092919081815260200182805461086a90612c15565b80156108b55780601f1061088c576101008083540402835291602001916108b5565b820191905f5260205f20905b81548152906001019060200180831161089857829003601f168201915b5050505050908060010180546108ca90612c15565b80601f01602080910402602001604051908101604052809291908181526020018280546108f690612c15565b80156109415780601f1061091857610100808354040283529160200191610941565b820191905f5260205f20905b81548152906001019060200180831161092457829003601f168201915b505050600290930154919250506001600160a01b031683565b6040515f906001600160a01b0383169082906001600160f81b0319903090849061098660208201612763565b6020820181038252601f19601f82011660405250805190602001206040516020016109b49493929190612e17565b60408051601f198184030181529190528051602090910120949350505050565b5f5f6109e2868686866106cd565b6040519091506001600160a01b038216905f906001600160f81b03199030908490610a0f60208201612763565b6020820181038252601f19601f8201166040525080519060200120604051602001610a3d9493929190612e17565b60408051808303601f19018152919052805160209091012098975050505050505050565b5f606080825b86811015611897575f868683818110610a8257610a82612e50565b9050602002013590505f5f5f605160f91b6001600160f81b0319168c8c87818110610aaf57610aaf612e50565b9050602002810190610ac19190612e64565b8390610ace826001612eba565b92610adb93929190612ed3565b610ae491612efa565b6001600160f81b03191614610afb57610afb612f32565b610b06816001612eba565b90505f85118015610b15575083155b15610de5575f8c8c87818110610b2d57610b2d612e50565b9050602002810190610b3f9190612e64565b91506230b67b60e91b90508d8d88818110610b5c57610b5c612e50565b9050602002810190610b6e9190612e64565b610b79600385612f46565b610b8592859290612ed3565b610b8e91612f59565b6001600160e81b03191614610de3578d8d8d88818110610bb057610bb0612e50565b9050602002810190610bc29190612e64565b610bcd602085612f46565b610bd992859290612ed3565b610be291612f8e565b14610c225760405162461bcd60e51b815260206004820152601060248201526f0d840ecc2d8eaca40dad2e6dac2e8c6d60831b6044820152606401610261565b6806c152c128000b889160bd1b8d8d88818110610c4157610c41612e50565b9050602002810190610c539190612e64565b6009610c60602086612f46565b610c6a9190612f46565b90610c76602086612f46565b92610c8393929190612ed3565b610c8c91612fab565b6001600160b81b03191614610c9f575f5ffd5b61185b60f21b8d8d88818110610cb757610cb7612e50565b9050602002810190610cc99190612e64565b60026009610cd8602087612f46565b610ce29190612f46565b610cec9190612f46565b906009610cfa602087612f46565b610d049190612f46565b92610d1193929190612ed3565b610d1a91612fe1565b6001600160f01b03191614610d655760405162461bcd60e51b81526020600482015260116024820152700d840e0e4caccd2f040dad2e6dac2e8c6d607b1b6044820152606401610261565b60028d8d88818110610d7957610d79612e50565b9050602002810190610d8b9190612e64565b604051610d99929190612b9c565b602060405180830381855afa158015610db4573d5f5f3e3d5ffd5b5050506040513d601f19601f82011682018060405250810190610dd79190612da9565b9d50505050505061188f565b505b61616560f01b8c8c87818110610dfd57610dfd612e50565b9050602002810190610e0f9190612e64565b8390610e1c826002612eba565b92610e2993929190612ed3565b610e3291612fe1565b6001600160f01b03191614610e4957610e49612f32565b610e54816002612eba565b9050610e838c8c87818110610e6b57610e6b612e50565b9050602002810190610e7d9190612e64565b83611ec9565b6001600160401b03909116945091505082841115610efe5760405162461bcd60e51b815260206004820152603260248201527f48696e7420697320666f7220616e20696e646578206265796f6e642074686520604482015271656e64206f662074686520656e747269657360701b6064820152608401610261565b8315610f08578392505b5f5b838110156115b857602960fa1b8d8d88818110610f2957610f29612e50565b9050602002810190610f3b9190612e64565b8490610f48826001612eba565b92610f5593929190612ed3565b610f5e91612efa565b6001600160f81b03191614610f7557610f75612f32565b610f80826001612eba565b9150855f036111b95761616b60f01b8d8d88818110610fa157610fa1612e50565b9050602002810190610fb39190612e64565b8490610fc0826002612eba565b92610fcd93929190612ed3565b610fd691612fe1565b6001600160f01b03191614610fed57610fed612f32565b610ff8826002612eba565b91506110278d8d8881811061100f5761100f612e50565b90506020028101906110219190612e64565b84611ec9565b6001600160401b03909116945092505f90508d8d8881811061104b5761104b612e50565b905060200281019061105d9190612e64565b84906110698783612eba565b9261107693929190612ed3565b8080601f0160208091040260200160405190810160405280939291908181526020018383808284375f920191909152509293506110b99250869150859050612eba565b925061061760f41b8e8e898181106110d3576110d3612e50565b90506020028101906110e59190612e64565b85906110f2826002612eba565b926110ff93929190612ed3565b61110891612fe1565b6001600160f01b0319161461111f5761111f612f32565b61112a836002612eba565b92506111598e8e8981811061114157611141612e50565b90506020028101906111539190612e64565b85611ec9565b6001600160401b0382169650945085915060ff165f0361117b578198506111b2565b5f61118a8a5f8460ff16612156565b9050808360405160200161119f929190613017565b6040516020818303038152906040529950505b505061122b565b6111c4826002612eba565b91506111db8d8d8881811061100f5761100f612e50565b6001600160401b03909116945092506111f690508383612eba565b9150611203826002612eba565b915061121a8d8d8881811061100f5761100f612e50565b6001600160401b0390911694509250505b611236826002612eba565b9150607b60f91b8d8d8881811061124f5761124f612e50565b90506020028101906112619190612e64565b849061126e826001612eba565b9261127b93929190612ed3565b61128491612efa565b6001600160f81b031916036112a55761129e826001612eba565b9150611466565b6806c152c128000b889160bd1b8d8d888181106112c4576112c4612e50565b90506020028101906112d69190612e64565b84906112e3826009612eba565b926112f093929190612ed3565b6112f991612fab565b6001600160b81b0319161461131057611310612f32565b61131b826009612eba565b91505f8611801561132b57505f85115b8015611340575061133d600186612f46565b81145b15611458575f8d8d8881811061135857611358612e50565b905060200281019061136a9190612e64565b8490611377602083612eba565b9261138493929190612ed3565b61138d91612f8e565b90508e81146113de5760405162461bcd60e51b815260206004820152601b60248201527f56616c756520646f6573206e6f74206d617463682074617267657400000000006044820152606401610261565b60028e8e898181106113f2576113f2612e50565b90506020028101906114049190612e64565b604051611412929190612b9c565b602060405180830381855afa15801561142d573d5f5f3e3d5ffd5b5050506040513d601f19601f820116820180604052508101906114509190612da9565b9e50506115b0565b611463602083612eba565b91505b611471826002612eba565b915061147e826009612eba565b9150851580156114975750611494600186612f46565b81145b156115a2575f8d8d888181106114af576114af612e50565b90506020028101906114c19190612e64565b84906114ce602083612eba565b926114db93929190612ed3565b6114e491612f8e565b90508e811461152c5760405162461bcd60e51b81526020600482015260146024820152730ca40ecc2d840c8decae640dcdee840dac2e8c6d60631b6044820152606401610261565b60028e8e5f81811061154057611540612e50565b90506020028101906115529190612e64565b604051611560929190612b9c565b602060405180830381855afa15801561157b573d5f5f3e3d5ffd5b5050506040513d601f19601f8201168201806040525081019061159e9190612da9565b9e50505b6115ad602083612eba565b91505b600101610f0a565b50835f0361188a575f851161162e5760405162461bcd60e51b815260206004820152603660248201527f596f752073686f756c64206e6f742062652072656164696e6720616e206c2076604482015275616c756520666f72207468652064617461206e6f646560501b6064820152608401610261565b61185b60f21b8c8c8781811061164657611646612e50565b90506020028101906116589190612e64565b8390611665826002612eba565b9261167293929190612ed3565b61167b91612fe1565b6001600160f01b0319161461169257611692612f32565b61169d816002612eba565b9050607b60f91b8c8c878181106116b6576116b6612e50565b90506020028101906116c89190612e64565b83906116d5826001612eba565b926116e293929190612ed3565b6116eb91612efa565b6001600160f81b0319160361170c57611705816001612eba565b905061188a565b6806c152c128000b889160bd1b8c8c8781811061172b5761172b612e50565b905060200281019061173d9190612e64565b839061174a826009612eba565b9261175793929190612ed3565b61176091612fab565b6001600160b81b0319161461177757611777612f32565b611782816009612eba565b90505f8c8c8781811061179757611797612e50565b90506020028101906117a99190612e64565b83906117b6602083612eba565b926117c393929190612ed3565b6117cc91612f8e565b90508d81146118145760405162461bcd60e51b81526020600482015260146024820152730d840ecc2d840c8decae640dcdee840dac2e8c6d60631b6044820152606401610261565b60028d8d8881811061182857611828612e50565b905060200281019061183a9190612e64565b604051611848929190612b9c565b602060405180830381855afa158015611863573d5f5f3e3d5ffd5b5050506040513d601f19601f820116820180604052508101906118869190612da9565b9d50505b505050505b600101610a67565b50969795505050505050565b5f8060a560f81b8482856118b8826001612eba565b926118c593929190612ed3565b6118ce91612efa565b6001600160f81b031916146118e5576118e5612f32565b600191506318d91a5960e21b8483856118ff826004612eba565b9261190c93929190612ed3565b6119159161302b565b6001600160d81b0319161461192c5761192c612f32565b611937826004612eba565b9150611944848484611ec9565b93506001600160401b0316915061195d90508183612eba565b91506331b932bb60e11b848385611975826004612eba565b9261198293929190612ed3565b61198b91613061565b6001600160e01b031916146119a2576119a2612f32565b6119ad826004612eba565b91506119ba848484611ec9565b93506001600160401b031691506119d390508183612eba565b915064646461746160d81b8483856119ec826005612eba565b926119f993929190612ed3565b611a0291613097565b6001600160c01b03191614611a1957611a19612f32565b611a24826005612eba565b91506806c152c128000b889160bd1b848385611a41826009612eba565b92611a4e93929190612ed3565b611a5791612fab565b6001600160b81b03191614611a6e57611a6e612f32565b611a79826009612eba565b915084848385611a8a602083612eba565b92611a9793929190612ed3565b611aa091612f8e565b14611aff5760405162461bcd60e51b815260206004820152602960248201527f44617461206669656c6420646f6573206e6f7420636f6e7461696e20657870656044820152680c6e8cac840d0c2e6d60bb1b6064820152608401610261565b611b0a602083612eba565b91506432383932bb60d91b848385611b23826005612eba565b92611b3093929190612ed3565b611b399161302b565b6001600160d81b03191614611b5057611b50612f32565b611b5b826005612eba565b9150607b60f91b848385611b70826001612eba565b92611b7d93929190612ed3565b611b8691612efa565b6001600160f81b03191603611ba757611ba0826001612eba565b9150611c0a565b6806c152c128000b889160bd1b848385611bc2826009612eba565b92611bcf93929190612ed3565b611bd891612fab565b6001600160b81b03191614611bef57611bef612f32565b611bfa826009612eba565b9150611c07602083612eba565b91505b686776657273696f6e0360b81b848385611c25826009612eba565b92611c3293929190612ed3565b611c3b91612fab565b6001600160b81b03191614611c875760405162461bcd60e51b81526020600482015260126024820152711d8cc8199a595b19081b9bdd08199bdd5b9960721b6044820152606401610261565b5050505050565b6001600160a01b038416611ce45760405162461bcd60e51b815260206004820152601a60248201527f5369676e65722073686f756c64206e6f7420626520656d7074790000000000006044820152606401610261565b6001600160a01b038481165f9081526003602052604090205416611dea576040516001600160a01b038516908190611d1b90612763565b8190604051809103905ff5905080158015611d38573d5f5f3e3d5ffd5b506001600160a01b038681165f90815260036020526040902080546001600160a01b031916929091169182179055611da55760405162461bcd60e51b815260206004820152601060248201526f14d85999481b9bdd0818dc99585d195960821b6044820152606401610261565b6001600160a01b038086165f818152600360205260408082205490519316927f9f5f38090a53b52fccc9ab2ecccf3e10c222adcad8af17ae2974abeaef68b4cc9190a3505b5f5f5f611df8868686612218565b6001600160a01b03808b165f9081526003602052604090819020549051635e3571f560e01b81529497509295509093501690635e3571f590611e42908690869086906004016130cd565b5f604051808303815f87803b158015611e59575f5ffd5b505af1158015611e6b573d5f5f3e3d5ffd5b50505050826001600160a01b0316876001600160a01b03167f2fad25adcdcfc59ef8fa907dd52b92e9e90b92f0e832cbbc5ad141b8e587e4ee84848a8a604051611eb894939291906130fc565b60405180910390a350505050505050565b5f808080868587611edb826001612eba565b92611ee893929190612ed3565b611ef191612efa565b60f81c905084611f0081613127565b9550506007600582901c16601f82165f6006839003611fd257622a582560e81b8a898b611f2e826003612eba565b92611f3b93929190612ed3565b611f4491612f59565b6001600160e81b03191614611fb25760405162461bcd60e51b815260206004820152602e60248201527f556e737570706f7274656420746167206f7220756e657870656374656420434960448201526d442068656164657220627974657360901b6064820152608401610261565b611fbd600389612eba565b9750826025899650965096505050505061214d565b60188260ff161015611fe8575060ff8116612141565b8160ff1660180361202e5789888a612001826001612eba565b9261200e93929190612ed3565b61201791612efa565b60f81c9050612027600189612eba565b9750612141565b8160ff1660190361206d5789888a612047826002612eba565b9261205493929190612ed3565b61205d91612fe1565b60f01c9050612027600289612eba565b8160ff16601a036120ac5789888a612086826004612eba565b9261209393929190612ed3565b61209c91613061565b60e01c9050612027600489612eba565b8160ff16601b036120eb5789888a6120c5826008612eba565b926120d293929190612ed3565b6120db91613097565b60c01c9050612027600889612eba565b60405162461bcd60e51b815260206004820152602560248201527f63616e6e6f742068616e646c6520686561646572732077697468206578747261604482015264203e20323760d81b6064820152608401610261565b91955090935085925050505b93509350939050565b6060835f6121648585612f46565b6001600160401b0381111561217b5761217b612c01565b6040519080825280601f01601f1916602001820160405280156121a5576020820181803683370190505b509050845b8481101561220c578281815181106121c4576121c4612e50565b01602001516001600160f81b031916826121de8884612f46565b815181106121ee576121ee612e50565b60200101906001600160f81b03191690815f1a9053506001016121aa565b509150505b9392505050565b5f5f6060365f6122288888612477565b9092509050600160fe1b61223f60015f8486612ed3565b61224891612efa565b6001600160f81b0319161461229f5760405162461bcd60e51b815260206004820152601b60248201527f4d6573736167652073686f756c6420626567696e2077697468204000000000006044820152606401610261565b5f8080846001856122b08c8361313f565b60ff16926122c093929190612ed3565b6040516122ce929190612b9c565b604080519182900390912082526020820192909252015f20600201546001600160a01b03169050806123325760405162461bcd60e51b815260206004820152600d60248201526c109bdd081b9bdd08199bdd5b99609a1b6044820152606401610261565b600160fd1b83836123448a600161313f565b60ff16906123538b600161313f565b61235e90600161313f565b60ff169261236e93929190612ed3565b61237791612efa565b6001600160f81b031916146123ce5760405162461bcd60e51b815260206004820152601760248201527f4e6f20737061636520616674657220626f74206e616d650000000000000000006044820152606401610261565b6001600160a01b0381166352af1c0484846123ea8b600161313f565b6123f590600161313f565b60ff1690809261240793929190612ed3565b6040518363ffffffff1660e01b8152600401612424929190612e04565b5f60405180830381865afa15801561243e573d5f5f3e3d5ffd5b505050506040513d5f823e601f3d908101601f191682016040526124659190810190613158565b95509550955050505093509350939050565b365f80808086818761248a826001612eba565b9261249793929190612ed3565b6124a091612efa565b905060a260f882901c10156124b7576124b7612f32565b60af60f882901c11156124cc576124cc612f32565b60405164191d195e1d60da1b60208201526001935061250190889088906025016040516020818303038152906040528661254b565b925061250e878785611ec9565b94506001600160401b031692503690505f88858961252c8783612eba565b9261253993929190612ed3565b909750955050505050505b9250929050565b81515f908161255a8287612f46565b90505f5f5f5b838710156125e25761257188613224565b6001600160c01b0319168a888b6125888983612eba565b9261259593929190612ed3565b61259e91613097565b6001600160c01b031916036125c3576125b78588612eba565b9550505050505061072b565b6125ce8a8a89612622565b96506125db8a8a89612622565b9650612560565b60405162461bcd60e51b8152602060048201526015602482015274199a595b1912195859195c881b9bdd08199bdd5b99605a1b6044820152606401610261565b5f5f5f612630868686611ec9565b95509092509050600260ff8316148061264c57508160ff166003145b8061265a57508160ff166006145b1561267b576126726001600160401b03821685612eba565b92505050612211565b60ff8216158061268e57508160ff166001145b8061269c57508160ff166007145b156126ab578392505050612211565b8160ff16600414806126c057508160ff166005145b15612722575f8260ff166005146126d757816126e2565b6126e282600261325e565b9050845f5b826001600160401b0316816001600160401b031610156127165761270c898989612622565b96506001016126e7565b50935061221192505050565b60405162461bcd60e51b8152602060048201526016602482015275556e737570706f72746564206d616a6f72207479706560501b6044820152606401610261565b6102758061328183390190565b5f5f83601f840112612780575f5ffd5b5081356001600160401b03811115612796575f5ffd5b602083019150836020828501011115612544575f5ffd5b6001600160a01b03811681146127c1575f5ffd5b50565b5f5f5f5f5f606086880312156127d8575f5ffd5b85356001600160401b038111156127ed575f5ffd5b6127f988828901612770565b90965094505060208601356001600160401b03811115612817575f5ffd5b61282388828901612770565b9094509250506040860135612837816127ad565b809150509295509295909350565b5f60208284031215612855575f5ffd5b5035919050565b803560ff8116811461286c575f5ffd5b919050565b5f5f83601f840112612881575f5ffd5b5081356001600160401b03811115612897575f5ffd5b6020830191508360208260051b8501011115612544575f5ffd5b5f5f5f5f5f5f5f5f5f5f5f5f6101008d8f0312156128cd575f5ffd5b6001600160401b038d3511156128e1575f5ffd5b6128ee8e8e358f01612770565b909c509a506128ff60208e0161285c565b99506001600160401b0360408e01351115612918575f5ffd5b6129288e60408f01358f01612871565b90995097506001600160401b0360608e01351115612944575f5ffd5b6129548e60608f01358f01612871565b90975095506001600160401b0360808e01351115612970575f5ffd5b6129808e60808f01358f01612770565b909550935061299160a08e0161285c565b9b9e9a9d50989b979a96999598509396929591949193505060c08201359160e0013590565b5f5f5f5f608085870312156129c9575f5ffd5b843593506129d96020860161285c565b93969395505050506040820135916060013590565b5f5f5f60408486031215612a00575f5ffd5b83356001600160401b03811115612a15575f5ffd5b612a2186828701612770565b9094509250506020840135612a35816127ad565b809150509250925092565b5f81518084528060208401602086015e5f602082860101526020601f19601f83011685010191505092915050565b606081525f612a806060830186612a40565b8281036020840152612a928186612a40565b91505060018060a01b0383166040830152949350505050565b5f60208284031215612abb575f5ffd5b8135612211816127ad565b5f5f5f5f5f60608688031215612ada575f5ffd5b8535945060208601356001600160401b03811115612af6575f5ffd5b612b0288828901612871565b90955093505060408601356001600160401b03811115612b20575f5ffd5b612b2c88828901612871565b969995985093965092949392505050565b828152604060208201525f61072b6040830184612a40565b5f5f5f60408486031215612b67575f5ffd5b8335925060208401356001600160401b03811115612b83575f5ffd5b612b8f86828701612770565b9497909650939450505050565b818382375f9101908152919050565b81838237601760f91b9101908152600101919050565b5f81518060208401855e5f93019283525090919050565b5f612be38286612bc1565b838582375f930192835250909392505050565b5f6122118284612bc1565b634e487b7160e01b5f52604160045260245ffd5b600181811c90821680612c2957607f821691505b602082108103612c4757634e487b7160e01b5f52602260045260245ffd5b50919050565b601f821115612c9157805f5260205f20601f840160051c81016020851015612c725750805b601f840160051c820191505b81811015611c87575f8155600101612c7e565b505050565b81516001600160401b03811115612caf57612caf612c01565b612cc381612cbd8454612c15565b84612c4d565b6020601f821160018114612cf5575f8315612cde5750848201515b5f19600385901b1c1916600184901b178455611c87565b5f84815260208120601f198516915b82811015612d245787850151825560209485019460019092019101612d04565b5084821015612d4157868401515f19600387901b60f8161c191681555b50505050600190811b01905550565b81835281816020850137505f828201602090810191909152601f909101601f19169091010190565b604081525f612d8b604083018688612d50565b8281036020840152612d9e818587612d50565b979650505050505050565b5f60208284031215612db9575f5ffd5b5051919050565b805160208201516001600160701b0319811691906012821015612dfd576001600160701b03196001600160701b03198360120360031b1b82161692505b5050919050565b602081525f61072b602083018486612d50565b6001600160f81b031994909416845260609290921b6bffffffffffffffffffffffff191660018401526015830152603582015260550190565b634e487b7160e01b5f52603260045260245ffd5b5f5f8335601e19843603018112612e79575f5ffd5b8301803591506001600160401b03821115612e92575f5ffd5b602001915036819003821315612544575f5ffd5b634e487b7160e01b5f52601160045260245ffd5b80820180821115612ecd57612ecd612ea6565b92915050565b5f5f85851115612ee1575f5ffd5b83861115612eed575f5ffd5b5050820193919092039150565b80356001600160f81b03198116906001841015612f2b576001600160f81b0319600185900360031b81901b82161691505b5092915050565b634e487b7160e01b5f52600160045260245ffd5b81810381811115612ecd57612ecd612ea6565b80356001600160e81b03198116906003841015612f2b576001600160e81b0319600394850390941b84901b1690921692915050565b80356020831015612ecd575f19602084900360031b1b1692915050565b80356001600160b81b03198116906009841015612f2b576001600160b81b031960099490940360031b84901b1690921692915050565b80356001600160f01b03198116906002841015612f2b576001600160f01b031960029490940360031b84901b1690921692915050565b5f61072b6130258386612bc1565b84612bc1565b80356001600160d81b03198116906005841015612f2b576001600160d81b031960059490940360031b84901b1690921692915050565b80356001600160e01b03198116906004841015612f2b576001600160e01b031960049490940360031b84901b1690921692915050565b80356001600160c01b03198116906008841015612f2b576001600160c01b031960089490940360031b84901b1690921692915050565b60018060a01b0384168152826020820152606060408201525f6130f36060830184612a40565b95945050505050565b848152606060208201525f6131146060830186612a40565b8281036040840152612d9e818587612d50565b5f6001820161313857613138612ea6565b5060010190565b60ff8181168382160190811115612ecd57612ecd612ea6565b5f5f5f6060848603121561316a575f5ffd5b8351613175816127ad565b6020850151604086015191945092506001600160401b03811115613197575f5ffd5b8401601f810186136131a7575f5ffd5b80516001600160401b038111156131c0576131c0612c01565b604051601f8201601f19908116603f011681016001600160401b03811182821017156131ee576131ee612c01565b604052818152828201602001881015613205575f5ffd5b8160208401602083015e5f602083830101528093505050509250925092565b805160208201516001600160c01b0319811691906008821015612dfd576001600160c01b031960089290920360031b82901b161692915050565b6001600160401b038181168382160290811690818114612f2b57612f2b612ea656fe6080604052348015600e575f5ffd5b505f80546001600160a01b031916331790556102488061002d5f395ff3fe608060405234801561000f575f5ffd5b5060043610610034575f3560e01c80635e3571f5146100385780638da5cb5b1461004d575b5f5ffd5b61004b610046366004610139565b61007b565b005b5f5461005f906001600160a01b031681565b6040516001600160a01b03909116815260200160405180910390f35b5f546001600160a01b031633146100fe5760405162461bcd60e51b815260206004820152603c60248201527f492063616e206f6e6c7920626520636f6e74726f6c6c6564206279207468652060448201527f536b6565744761746577617920746861742063726561746564206d6500000000606482015260840160405180910390fd5b61010983838361010f565b50505050565b5f5f5f83516020850186885f19f1949350505050565b634e487b7160e01b5f52604160045260245ffd5b5f5f5f6060848603121561014b575f5ffd5b83356001600160a01b0381168114610161575f5ffd5b925060208401359150604084013567ffffffffffffffff811115610183575f5ffd5b8401601f81018613610193575f5ffd5b803567ffffffffffffffff8111156101ad576101ad610125565b604051601f8201601f19908116603f0116810167ffffffffffffffff811182821017156101dc576101dc610125565b6040528181528282016020018810156101f3575f5ffd5b816020840160208301375f60208383010152809350505050925092509256fea2646970667358221220d389b77ddf632056e96f1e94cb4350a4d29e5572b3d770e760d59f5ad93838fe64736f6c634300081c0033a26469706673582212201556eec75f17bcb0ec5f62d19155f59a7509ef62d3ba2b8f6e5d39c4a15a99bd64736f6c634300081c0033","linkReferences":{}},"methodIdentifiers":{"addBot(string,string,address)":"2600a1bf","addDomain(string,address)":"85ed127c","assertCommitNodeContainsData(bytes32,bytes)":"f9f485b3","bots(bytes32)":"8d77b866","domainOwners(bytes32)":"67a05601","handleSkeet(bytes,uint8,bytes[],uint256[],bytes,uint8,bytes32,bytes32)":"687ca89f","merkleProvenRootHash(bytes32,bytes[],uint256[])":"e3e962ac","predictSafeAddress(address)":"9ee0ce27","predictSafeAddressFromSig(bytes32,uint8,bytes32,bytes32)":"c4299c70","predictSignerAddressFromSig(bytes32,uint8,bytes32,bytes32)":"7c4d95a9","signerSafes(address)":"c361a0a5"},"id":34}