{"abi":[{"type":"constructor","inputs":[],"stateMutability":"nonpayable"},{"type":"function","name":"executeOwnerCall","inputs":[{"name":"to","type":"address","internalType":"address"},{"name":"value","type":"uint256","internalType":"uint256"},{"name":"data","type":"bytes","internalType":"bytes"}],"outputs":[],"stateMutability":"nonpayable"},{"type":"function","name":"owner","inputs":[],"outputs":[{"name":"","type":"address","internalType":"address"}],"stateMutability":"view"}],"bytecode":{"object":"0x6080604052348015600f57600080fd5b50600080546001600160a01b0319163317905561025a806100316000396000f3fe608060405234801561001057600080fd5b50600436106100365760003560e01c80635e3571f51461003b5780638da5cb5b14610050575b600080fd5b61004e610049366004610143565b61007f565b005b600054610063906001600160a01b031681565b6040516001600160a01b03909116815260200160405180910390f35b6000546001600160a01b031633146101035760405162461bcd60e51b815260206004820152603c60248201527f492063616e206f6e6c7920626520636f6e74726f6c6c6564206279207468652060448201527f536b6565744761746577617920746861742063726561746564206d6500000000606482015260840160405180910390fd5b61010e838383610114565b50505050565b60008060008351602085018688600019f1949350505050565b634e487b7160e01b600052604160045260246000fd5b60008060006060848603121561015857600080fd5b83356001600160a01b038116811461016f57600080fd5b925060208401359150604084013567ffffffffffffffff81111561019257600080fd5b8401601f810186136101a357600080fd5b803567ffffffffffffffff8111156101bd576101bd61012d565b604051601f8201601f19908116603f0116810167ffffffffffffffff811182821017156101ec576101ec61012d565b60405281815282820160200188101561020457600080fd5b81602084016020830137600060208383010152809350505050925092509256fea2646970667358221220d75dfdc7173906aed01d1bb817c2abeec89ab7e3a73de6c51c3a288ecd8e7cbd64736f6c634300081a0033","linkReferences":{}},"methodIdentifiers":{"executeOwnerCall(address,uint256,bytes)":"5e3571f5","owner()":"8da5cb5b"},"id":24}