{"abi":[{"type":"constructor","inputs":[],"stateMutability":"nonpayable"},{"type":"function","name":"executeOwnerCall","inputs":[{"name":"to","type":"address","internalType":"address"},{"name":"value","type":"uint256","internalType":"uint256"},{"name":"data","type":"bytes","internalType":"bytes"}],"outputs":[],"stateMutability":"nonpayable"},{"type":"function","name":"owner","inputs":[],"outputs":[{"name":"","type":"address","internalType":"address"}],"stateMutability":"view"}],"bytecode":{"object":"0x60808060405234602757600080546001600160a01b031916331790556101f3908161002d8239f35b600080fdfe6080604052600436101561001257600080fd5b60003560e01c80635e3571f51461003757638da5cb5b1461003257600080fd5b610102565b346100e75760603660031901126100e7576004356001600160a01b03811681036100e7576044359067ffffffffffffffff82116100e757366023830112156100e75781600401359067ffffffffffffffff82116100ec5760405191601f8101601f19908116603f0116830167ffffffffffffffff8111848210176100ec5760405280835236602482860101116100e75760208160009260246100e5970183870137840101526024359061012b565b005b600080fd5b634e487b7160e01b600052604160045260246000fd5b346100e75760003660031901126100e7576000546040516001600160a01b039091168152602090f35b6000549092906001600160a01b03163303610152576000928392602083519301918419f150565b60405162461bcd60e51b815260206004820152603c60248201527f492063616e206f6e6c7920626520636f6e74726f6c6c6564206279207468652060448201527f536b6565744761746577617920746861742063726561746564206d65000000006064820152608490fdfea26469706673582212209474af3cf2df1f4025140b3a2e6e480e3ce2598fdeef9beb4186b1c859ac14de64736f6c634300081c0033","linkReferences":{}},"methodIdentifiers":{"executeOwnerCall(address,uint256,bytes)":"5e3571f5","owner()":"8da5cb5b"},"id":29}